{
  "_format": "hh-sol-artifact-1",
  "contractName": "MarketOdds",
  "sourceName": "contracts/MarketOdds.sol",
  "abi": [
    {
      "inputs": [
        {
          "internalType": "address",
          "name": "_controllingMarket",
          "type": "address"
        },
        {
          "internalType": "address",
          "name": "_oddsProvider",
          "type": "address"
        },
        {
          "internalType": "uint256",
          "name": "_initialHomeOdds",
          "type": "uint256"
        },
        {
          "internalType": "uint256",
          "name": "_initialAwayOdds",
          "type": "uint256"
        },
        {
          "internalType": "int256",
          "name": "_initialHomeSpreadPoints",
          "type": "int256"
        },
        {
          "internalType": "uint256",
          "name": "_initialHomeSpreadOdds",
          "type": "uint256"
        },
        {
          "internalType": "uint256",
          "name": "_initialAwaySpreadOdds",
          "type": "uint256"
        },
        {
          "internalType": "uint256",
          "name": "_initialTotalPoints",
          "type": "uint256"
        },
        {
          "internalType": "uint256",
          "name": "_initialOverOdds",
          "type": "uint256"
        },
        {
          "internalType": "uint256",
          "name": "_initialUnderOdds",
          "type": "uint256"
        }
      ],
      "stateMutability": "nonpayable",
      "type": "constructor"
    },
    {
      "anonymous": false,
      "inputs": [
        {
          "indexed": true,
          "internalType": "address",
          "name": "marketAddress",
          "type": "address"
        },
        {
          "indexed": false,
          "internalType": "uint256",
          "name": "homeOdds",
          "type": "uint256"
        },
        {
          "indexed": false,
          "internalType": "uint256",
          "name": "awayOdds",
          "type": "uint256"
        },
        {
          "indexed": false,
          "internalType": "int256",
          "name": "homeSpreadPoints",
          "type": "int256"
        },
        {
          "indexed": false,
          "internalType": "uint256",
          "name": "homeSpreadOdds",
          "type": "uint256"
        },
        {
          "indexed": false,
          "internalType": "uint256",
          "name": "awaySpreadOdds",
          "type": "uint256"
        },
        {
          "indexed": false,
          "internalType": "uint256",
          "name": "totalPoints",
          "type": "uint256"
        },
        {
          "indexed": false,
          "internalType": "uint256",
          "name": "overOdds",
          "type": "uint256"
        },
        {
          "indexed": false,
          "internalType": "uint256",
          "name": "underOdds",
          "type": "uint256"
        }
      ],
      "name": "OddsUpdated",
      "type": "event"
    },
    {
      "inputs": [],
      "name": "awayOdds",
      "outputs": [
        {
          "internalType": "uint256",
          "name": "",
          "type": "uint256"
        }
      ],
      "stateMutability": "view",
      "type": "function"
    },
    {
      "inputs": [],
      "name": "awaySpreadOdds",
      "outputs": [
        {
          "internalType": "uint256",
          "name": "",
          "type": "uint256"
        }
      ],
      "stateMutability": "view",
      "type": "function"
    },
    {
      "inputs": [
        {
          "internalType": "address",
          "name": "_newOddsProvider",
          "type": "address"
        }
      ],
      "name": "changeOddsProvider",
      "outputs": [],
      "stateMutability": "nonpayable",
      "type": "function"
    },
    {
      "inputs": [],
      "name": "controllingMarket",
      "outputs": [
        {
          "internalType": "address",
          "name": "",
          "type": "address"
        }
      ],
      "stateMutability": "view",
      "type": "function"
    },
    {
      "inputs": [],
      "name": "getFullOdds",
      "outputs": [
        {
          "internalType": "uint256",
          "name": "_homeOdds",
          "type": "uint256"
        },
        {
          "internalType": "uint256",
          "name": "_awayOdds",
          "type": "uint256"
        },
        {
          "internalType": "int256",
          "name": "_homeSpreadPoints",
          "type": "int256"
        },
        {
          "internalType": "uint256",
          "name": "_homeSpreadOdds",
          "type": "uint256"
        },
        {
          "internalType": "uint256",
          "name": "_awaySpreadOdds",
          "type": "uint256"
        },
        {
          "internalType": "uint256",
          "name": "_totalPoints",
          "type": "uint256"
        },
        {
          "internalType": "uint256",
          "name": "_overOdds",
          "type": "uint256"
        },
        {
          "internalType": "uint256",
          "name": "_underOdds",
          "type": "uint256"
        }
      ],
      "stateMutability": "view",
      "type": "function"
    },
    {
      "inputs": [],
      "name": "getMoneylineOdds",
      "outputs": [
        {
          "internalType": "uint256",
          "name": "",
          "type": "uint256"
        },
        {
          "internalType": "uint256",
          "name": "",
          "type": "uint256"
        }
      ],
      "stateMutability": "view",
      "type": "function"
    },
    {
      "inputs": [],
      "name": "getSpreadDetails",
      "outputs": [
        {
          "internalType": "int256",
          "name": "",
          "type": "int256"
        },
        {
          "internalType": "uint256",
          "name": "",
          "type": "uint256"
        },
        {
          "internalType": "uint256",
          "name": "",
          "type": "uint256"
        }
      ],
      "stateMutability": "view",
      "type": "function"
    },
    {
      "inputs": [],
      "name": "getTotalPointsDetails",
      "outputs": [
        {
          "internalType": "uint256",
          "name": "",
          "type": "uint256"
        },
        {
          "internalType": "uint256",
          "name": "",
          "type": "uint256"
        },
        {
          "internalType": "uint256",
          "name": "",
          "type": "uint256"
        }
      ],
      "stateMutability": "view",
      "type": "function"
    },
    {
      "inputs": [],
      "name": "homeOdds",
      "outputs": [
        {
          "internalType": "uint256",
          "name": "",
          "type": "uint256"
        }
      ],
      "stateMutability": "view",
      "type": "function"
    },
    {
      "inputs": [],
      "name": "homeSpreadOdds",
      "outputs": [
        {
          "internalType": "uint256",
          "name": "",
          "type": "uint256"
        }
      ],
      "stateMutability": "view",
      "type": "function"
    },
    {
      "inputs": [],
      "name": "homeSpreadPoints",
      "outputs": [
        {
          "internalType": "int256",
          "name": "",
          "type": "int256"
        }
      ],
      "stateMutability": "view",
      "type": "function"
    },
    {
      "inputs": [],
      "name": "initialOddsSet",
      "outputs": [
        {
          "internalType": "bool",
          "name": "",
          "type": "bool"
        }
      ],
      "stateMutability": "view",
      "type": "function"
    },
    {
      "inputs": [],
      "name": "marketStarted",
      "outputs": [
        {
          "internalType": "bool",
          "name": "",
          "type": "bool"
        }
      ],
      "stateMutability": "view",
      "type": "function"
    },
    {
      "inputs": [],
      "name": "oddsProvider",
      "outputs": [
        {
          "internalType": "address",
          "name": "",
          "type": "address"
        }
      ],
      "stateMutability": "view",
      "type": "function"
    },
    {
      "inputs": [],
      "name": "overOdds",
      "outputs": [
        {
          "internalType": "uint256",
          "name": "",
          "type": "uint256"
        }
      ],
      "stateMutability": "view",
      "type": "function"
    },
    {
      "inputs": [
        {
          "internalType": "address",
          "name": "_marketAddress",
          "type": "address"
        }
      ],
      "name": "setControllingMarket",
      "outputs": [],
      "stateMutability": "nonpayable",
      "type": "function"
    },
    {
      "inputs": [],
      "name": "setMarketStarted",
      "outputs": [],
      "stateMutability": "nonpayable",
      "type": "function"
    },
    {
      "inputs": [],
      "name": "totalPoints",
      "outputs": [
        {
          "internalType": "uint256",
          "name": "",
          "type": "uint256"
        }
      ],
      "stateMutability": "view",
      "type": "function"
    },
    {
      "inputs": [],
      "name": "underOdds",
      "outputs": [
        {
          "internalType": "uint256",
          "name": "",
          "type": "uint256"
        }
      ],
      "stateMutability": "view",
      "type": "function"
    },
    {
      "inputs": [
        {
          "internalType": "uint256",
          "name": "_homeOdds",
          "type": "uint256"
        },
        {
          "internalType": "uint256",
          "name": "_awayOdds",
          "type": "uint256"
        },
        {
          "internalType": "int256",
          "name": "_homeSpreadPoints",
          "type": "int256"
        },
        {
          "internalType": "uint256",
          "name": "_homeSpreadOdds",
          "type": "uint256"
        },
        {
          "internalType": "uint256",
          "name": "_awaySpreadOdds",
          "type": "uint256"
        },
        {
          "internalType": "uint256",
          "name": "_totalPoints",
          "type": "uint256"
        },
        {
          "internalType": "uint256",
          "name": "_overOdds",
          "type": "uint256"
        },
        {
          "internalType": "uint256",
          "name": "_underOdds",
          "type": "uint256"
        }
      ],
      "name": "updateOdds",
      "outputs": [],
      "stateMutability": "nonpayable",
      "type": "function"
    }
  ],
  "bytecode": "0x60803461023757601f610bb138819003918201601f191683019291906001600160401b0384118385101761023c578161014092849260409687528339810103126102375761004c81610252565b61005860208301610252565b918381015160608201519260808301519260a081015160c082015160e08301519161010096610120888601519501519560015460ff19600a54169182600a5560018060a01b038091169c8d156101e4571690811561019657600080546001600160a01b0319168e1790556001600160a81b03191617600155600288905560038a90556004829055600583905560068490556007859055600886905560098790556103e880891015908161018b575b5061017f575b5060ff600a5416610126575b8a5161094a90816102678239f35b7f3f4ba67b0696ad90365f5ac73375b1ee9f56ed7ae2a5517fb6f5b4707db01770988b5197885260208801528a8701526060860152608085015260a084015260c083015260e0820152a238808080808080808080610118565b600117600a553861010c565b90508a101538610106565b8d5162461bcd60e51b815260206004820152602160248201527f4d61726b65744f6464733a20496e76616c6964206f6464732070726f766964656044820152603960f91b6064820152608490fd5b8e5162461bcd60e51b815260206004820152602660248201527f4d61726b65744f6464733a20496e76616c696420636f6e74726f6c6c696e67206044820152651b585c9ad95d60d21b6064820152608490fd5b600080fd5b634e487b7160e01b600052604160045260246000fd5b51906001600160a01b03821682036102375756fe608060408181526004908136101561001657600080fd5b600092833560e01c90816319e26f4b1461083e575080631cf599811461058f5780632eb4342e1461056b57806336d1e69b1461053b5780633cc4c0e11461051c578063567142be146104fd578063593536121461044f57806367b952ab1461043057806368ee8634146104015780636c90a37e146103da5780637ba02939146103b15780637c2430b91461028b5780638ceec93f1461026d578063a9565ac714610245578063b3f9596914610226578063b762b141146101fe578063c68e052c146101df578063dce4a3b0146101c0578063f50a81bf1461019d5763f7b002c41461010057600080fd5b3461019957826003193601126101995782546001600160a01b03163303610138576001805460ff60a01b1916600160a01b1790558280f35b906020608492519162461bcd60e51b8352820152603560248201527f4d61726b65744f6464733a204f6e6c792074686520636f6e74726f6c6c696e67604482015274206d61726b65742063616e2063616c6c207468697360581b6064820152fd5b8280fd5b8382346101bc57816003193601126101bc576020906006549051908152f35b5080fd5b8382346101bc57816003193601126101bc576020906005549051908152f35b8382346101bc57816003193601126101bc576020906003549051908152f35b5082346102235780600319360112610223575060025460035482519182526020820152f35b80fd5b8382346101bc57816003193601126101bc576020906002549051908152f35b8382346101bc57816003193601126101bc57905490516001600160a01b039091168152602090f35b50903461019957826003193601126101995760209250549051908152f35b5034610199576020366003190112610199576001600160a01b038235818116939192908490036103ad57845492831680159081156103a3575b50156103305783156102e25750506001600160a01b03191617815580f35b906020608492519162461bcd60e51b8352820152602260248201527f4d61726b65744f6464733a20496e76616c6964206d61726b6574206164647265604482015261737360f01b6064820152fd5b90602060a492519162461bcd60e51b8352820152604160248201527f4d61726b65744f6464733a20436f6e74726f6c6c696e67206d61726b6574206160448201527f6c726561647920736574206f7220756e617574686f72697a65642063616c6c656064820152603960f91b6084820152fd5b90503314386102c4565b8480fd5b8382346101bc57816003193601126101bc5760015490516001600160a01b039091168152602090f35b8382346101bc57816003193601126101bc5760209060ff60015460a01c1690519015158152f35b509034610199578260031936011261019957606092505490600554906006549181519384526020840152820152f35b8382346101bc57816003193601126101bc576020906009549051908152f35b5034610199576020366003190112610199576001600160a01b038235818116939192908490036103ad5761048960015493841633146108b3565b83156104a25750506001600160a01b0319161760015580f35b906020608492519162461bcd60e51b8352820152602f60248201527f4d61726b65744f6464733a204e65772070726f76696465722063616e6e6f742060448201526e6265207a65726f206164647265737360881b6064820152fd5b8382346101bc57816003193601126101bc576020906007549051908152f35b8382346101bc57816003193601126101bc576020906008549051908152f35b8382346101bc57816003193601126101bc5760609060075490600854906009549181519384526020840152820152f35b8382346101bc57816003193601126101bc5760209060ff600a541690519015158152f35b508290346101bc576101003660031901126101bc5782356024908135916044356064356084359060a4359260c4359460e4359a6001549160ff60018060a01b03936105dd85821633146108b3565b60a01c166107e0576103e8808a1015806107d6575b156107875785158061077f575b801561076a575b1561070f5788159081610706575b81156106e8575b501561068f5750917f3f4ba67b0696ad90365f5ac73375b1ee9f56ed7ae2a5517fb6f5b4707db01770999a9b959391816106899896948a6002558b600355558260055583600655846007558560085586600955600160ff19600a541617600a558c54169a519889988961087c565b0390a280f35b90602e60849260208d519362461bcd60e51b85528401528201527f4d61726b65744f6464733a20546f74616c206f646473206d757374206265203e60448201526d0f480c4b8c0c0c081a59881cd95d60921b6064820152fd5b808a10159150816106fb575b508e61061b565b90508d10158e6106f4565b8e159150610614565b5090602f60849260208d519362461bcd60e51b85528401528201527f4d61726b65744f6464733a20537072656164206f646473206d7573742062652060448201526e0f8f480c4b8c0c0c081a59881cd95d608a1b6064820152fd5b50808610158015610606575080871015610606565b5086156105ff565b8b5162461bcd60e51b81526020818501528083018390527f4d61726b65744f6464733a204d4c206f646473206d757374206265203e3d203160448201526302e3030360e41b6064820152608490fd5b50808b10156105f2565b90603360849260208d519362461bcd60e51b85528401528201527f4d61726b65744f6464733a2043616e6e6f7420757064617465206f6464732061604482015272199d195c881b585c9ad95d081cdd185c9d1959606a1b6064820152fd5b838534610223578060031936011261022357506108788291600254906003549054600554600654906007549260085494600954968961087c565b0390f35b94919260e0969399989794919961010087019a8752602087015260408601526060850152608084015260a083015260c08201520152565b156108ba57565b60405162461bcd60e51b815260206004820152602c60248201527f4d61726b65744f6464733a204f6e6c79206f6464732070726f7669646572206360448201526b616e2063616c6c207468697360a01b6064820152608490fdfea26469706673582212203ca1f954b2a2d06b7407142b05f59d54ae84ee3685de6920b78f0d2e0fca3e7f64736f6c63430008130033",
  "linkReferences": {},
  "deployedLinkReferences": {}
}