{
  "_format": "hh-sol-artifact-1",
  "contractName": "MarketOdds",
  "sourceName": "contracts/MarketOdds.sol",
  "abi": [
    {
      "inputs": [
        {
          "internalType": "address",
          "name": "_controllingMarket",
          "type": "address"
        },
        {
          "internalType": "address",
          "name": "_oddsProvider",
          "type": "address"
        },
        {
          "internalType": "uint256",
          "name": "_initialHomeOdds",
          "type": "uint256"
        },
        {
          "internalType": "uint256",
          "name": "_initialAwayOdds",
          "type": "uint256"
        },
        {
          "internalType": "uint256",
          "name": "_initialDrawOdds",
          "type": "uint256"
        },
        {
          "internalType": "int256",
          "name": "_initialHomeSpreadPoints",
          "type": "int256"
        },
        {
          "internalType": "uint256",
          "name": "_initialHomeSpreadOdds",
          "type": "uint256"
        },
        {
          "internalType": "uint256",
          "name": "_initialAwaySpreadOdds",
          "type": "uint256"
        },
        {
          "internalType": "uint256",
          "name": "_initialTotalPoints",
          "type": "uint256"
        },
        {
          "internalType": "uint256",
          "name": "_initialOverOdds",
          "type": "uint256"
        },
        {
          "internalType": "uint256",
          "name": "_initialUnderOdds",
          "type": "uint256"
        }
      ],
      "stateMutability": "nonpayable",
      "type": "constructor"
    },
    {
      "anonymous": false,
      "inputs": [
        {
          "indexed": true,
          "internalType": "address",
          "name": "marketAddress",
          "type": "address"
        },
        {
          "indexed": false,
          "internalType": "uint256",
          "name": "homeOdds",
          "type": "uint256"
        },
        {
          "indexed": false,
          "internalType": "uint256",
          "name": "awayOdds",
          "type": "uint256"
        },
        {
          "indexed": false,
          "internalType": "uint256",
          "name": "drawOdds",
          "type": "uint256"
        },
        {
          "indexed": false,
          "internalType": "int256",
          "name": "homeSpreadPoints",
          "type": "int256"
        },
        {
          "indexed": false,
          "internalType": "uint256",
          "name": "homeSpreadOdds",
          "type": "uint256"
        },
        {
          "indexed": false,
          "internalType": "uint256",
          "name": "awaySpreadOdds",
          "type": "uint256"
        },
        {
          "indexed": false,
          "internalType": "uint256",
          "name": "totalPoints",
          "type": "uint256"
        },
        {
          "indexed": false,
          "internalType": "uint256",
          "name": "overOdds",
          "type": "uint256"
        },
        {
          "indexed": false,
          "internalType": "uint256",
          "name": "underOdds",
          "type": "uint256"
        }
      ],
      "name": "OddsUpdated",
      "type": "event"
    },
    {
      "inputs": [],
      "name": "awayOdds",
      "outputs": [
        {
          "internalType": "uint256",
          "name": "",
          "type": "uint256"
        }
      ],
      "stateMutability": "view",
      "type": "function"
    },
    {
      "inputs": [],
      "name": "awaySpreadOdds",
      "outputs": [
        {
          "internalType": "uint256",
          "name": "",
          "type": "uint256"
        }
      ],
      "stateMutability": "view",
      "type": "function"
    },
    {
      "inputs": [
        {
          "internalType": "address",
          "name": "_newOddsProvider",
          "type": "address"
        }
      ],
      "name": "changeOddsProvider",
      "outputs": [],
      "stateMutability": "nonpayable",
      "type": "function"
    },
    {
      "inputs": [],
      "name": "controllingMarket",
      "outputs": [
        {
          "internalType": "address",
          "name": "",
          "type": "address"
        }
      ],
      "stateMutability": "view",
      "type": "function"
    },
    {
      "inputs": [],
      "name": "drawOdds",
      "outputs": [
        {
          "internalType": "uint256",
          "name": "",
          "type": "uint256"
        }
      ],
      "stateMutability": "view",
      "type": "function"
    },
    {
      "inputs": [],
      "name": "getFullOdds",
      "outputs": [
        {
          "internalType": "uint256",
          "name": "_homeOdds",
          "type": "uint256"
        },
        {
          "internalType": "uint256",
          "name": "_awayOdds",
          "type": "uint256"
        },
        {
          "internalType": "uint256",
          "name": "_drawOdds",
          "type": "uint256"
        },
        {
          "internalType": "int256",
          "name": "_homeSpreadPoints",
          "type": "int256"
        },
        {
          "internalType": "uint256",
          "name": "_homeSpreadOdds",
          "type": "uint256"
        },
        {
          "internalType": "uint256",
          "name": "_awaySpreadOdds",
          "type": "uint256"
        },
        {
          "internalType": "uint256",
          "name": "_totalPoints",
          "type": "uint256"
        },
        {
          "internalType": "uint256",
          "name": "_overOdds",
          "type": "uint256"
        },
        {
          "internalType": "uint256",
          "name": "_underOdds",
          "type": "uint256"
        }
      ],
      "stateMutability": "view",
      "type": "function"
    },
    {
      "inputs": [],
      "name": "getMoneylineOdds",
      "outputs": [
        {
          "internalType": "uint256",
          "name": "",
          "type": "uint256"
        },
        {
          "internalType": "uint256",
          "name": "",
          "type": "uint256"
        },
        {
          "internalType": "uint256",
          "name": "",
          "type": "uint256"
        }
      ],
      "stateMutability": "view",
      "type": "function"
    },
    {
      "inputs": [],
      "name": "getSpreadDetails",
      "outputs": [
        {
          "internalType": "int256",
          "name": "",
          "type": "int256"
        },
        {
          "internalType": "uint256",
          "name": "",
          "type": "uint256"
        },
        {
          "internalType": "uint256",
          "name": "",
          "type": "uint256"
        }
      ],
      "stateMutability": "view",
      "type": "function"
    },
    {
      "inputs": [],
      "name": "getTotalPointsDetails",
      "outputs": [
        {
          "internalType": "uint256",
          "name": "",
          "type": "uint256"
        },
        {
          "internalType": "uint256",
          "name": "",
          "type": "uint256"
        },
        {
          "internalType": "uint256",
          "name": "",
          "type": "uint256"
        }
      ],
      "stateMutability": "view",
      "type": "function"
    },
    {
      "inputs": [],
      "name": "homeOdds",
      "outputs": [
        {
          "internalType": "uint256",
          "name": "",
          "type": "uint256"
        }
      ],
      "stateMutability": "view",
      "type": "function"
    },
    {
      "inputs": [],
      "name": "homeSpreadOdds",
      "outputs": [
        {
          "internalType": "uint256",
          "name": "",
          "type": "uint256"
        }
      ],
      "stateMutability": "view",
      "type": "function"
    },
    {
      "inputs": [],
      "name": "homeSpreadPoints",
      "outputs": [
        {
          "internalType": "int256",
          "name": "",
          "type": "int256"
        }
      ],
      "stateMutability": "view",
      "type": "function"
    },
    {
      "inputs": [],
      "name": "initialOddsSet",
      "outputs": [
        {
          "internalType": "bool",
          "name": "",
          "type": "bool"
        }
      ],
      "stateMutability": "view",
      "type": "function"
    },
    {
      "inputs": [],
      "name": "marketStarted",
      "outputs": [
        {
          "internalType": "bool",
          "name": "",
          "type": "bool"
        }
      ],
      "stateMutability": "view",
      "type": "function"
    },
    {
      "inputs": [],
      "name": "oddsProvider",
      "outputs": [
        {
          "internalType": "address",
          "name": "",
          "type": "address"
        }
      ],
      "stateMutability": "view",
      "type": "function"
    },
    {
      "inputs": [],
      "name": "overOdds",
      "outputs": [
        {
          "internalType": "uint256",
          "name": "",
          "type": "uint256"
        }
      ],
      "stateMutability": "view",
      "type": "function"
    },
    {
      "inputs": [
        {
          "internalType": "address",
          "name": "_marketAddress",
          "type": "address"
        }
      ],
      "name": "setControllingMarket",
      "outputs": [],
      "stateMutability": "nonpayable",
      "type": "function"
    },
    {
      "inputs": [],
      "name": "setMarketStarted",
      "outputs": [],
      "stateMutability": "nonpayable",
      "type": "function"
    },
    {
      "inputs": [],
      "name": "totalPoints",
      "outputs": [
        {
          "internalType": "uint256",
          "name": "",
          "type": "uint256"
        }
      ],
      "stateMutability": "view",
      "type": "function"
    },
    {
      "inputs": [],
      "name": "underOdds",
      "outputs": [
        {
          "internalType": "uint256",
          "name": "",
          "type": "uint256"
        }
      ],
      "stateMutability": "view",
      "type": "function"
    },
    {
      "inputs": [
        {
          "internalType": "uint256",
          "name": "_homeOdds",
          "type": "uint256"
        },
        {
          "internalType": "uint256",
          "name": "_awayOdds",
          "type": "uint256"
        },
        {
          "internalType": "uint256",
          "name": "_drawOdds",
          "type": "uint256"
        },
        {
          "internalType": "int256",
          "name": "_homeSpreadPoints",
          "type": "int256"
        },
        {
          "internalType": "uint256",
          "name": "_homeSpreadOdds",
          "type": "uint256"
        },
        {
          "internalType": "uint256",
          "name": "_awaySpreadOdds",
          "type": "uint256"
        },
        {
          "internalType": "uint256",
          "name": "_totalPoints",
          "type": "uint256"
        },
        {
          "internalType": "uint256",
          "name": "_overOdds",
          "type": "uint256"
        },
        {
          "internalType": "uint256",
          "name": "_underOdds",
          "type": "uint256"
        }
      ],
      "name": "updateOdds",
      "outputs": [],
      "stateMutability": "nonpayable",
      "type": "function"
    }
  ],
  "bytecode": "0x60803461024357601f610c3638819003918201601f191683019291906001600160401b03841183851017610248578161016092849260409687528339810103126102435761004c8161025e565b6100586020830161025e565b918381015160608201519260808301519260a08101519060c08101519160e0820151610100938484015192610120986101408a8701519601519760015460ff19600b54169182600b5560018060a01b038091169e8f156101ee571690811561019f578e60018060a01b0319600054161760005560018060a81b03191617600155896002558b60035581600455826005558360065584600755856008558660095588600a556103e8808b10159081610194575b50610188575b5060ff600b541661012a575b8c516109c390816102738239f35b7ff8f307e03bac9d16c97daf718b85c0ac1e705bc96da176f0d33459faa138d6fc9a8d51998a5260208a01528c8901526060880152608087015260a086015260c085015260e0840152820152a238808080808080808080808061011c565b600117600b5538610110565b90508c10153861010a565b508e5162461bcd60e51b815260206004820152602160248201527f4d61726b65744f6464733a20496e76616c6964206f6464732070726f766964656044820152603960f91b6064820152608490fd5b50508e5162461bcd60e51b815260206004820152602660248201527f4d61726b65744f6464733a20496e76616c696420636f6e74726f6c6c696e67206044820152651b585c9ad95d60d21b6064820152608490fd5b600080fd5b634e487b7160e01b600052604160045260246000fd5b51906001600160a01b03821682036102435756fe608060408181526004908136101561001657600080fd5b600092833560e01c90816319e26f4b1461090c575080631b019673146108ee5780632eb4342e146108ca57806336d1e69b1461089f5780633cc4c0e114610880578063567142be1461086157806359353612146107bb57806367b952ab1461079c57806368ee86341461076c5780636c90a37e146107455780637ba029391461071c5780637c2430b9146105f65780638ceec93f146105d7578063999552d014610281578063a9565ac714610259578063b3f959691461023a578063b762b14114610209578063c68e052c146101ea578063dce4a3b0146101cb578063f50a81bf146101a85763f7b002c41461010b57600080fd5b346101a457826003193601126101a45782546001600160a01b03163303610143576001805460ff60a01b1916600160a01b1790558280f35b906020608492519162461bcd60e51b8352820152603560248201527f4d61726b65744f6464733a204f6e6c792074686520636f6e74726f6c6c696e67604482015274206d61726b65742063616e2063616c6c207468697360581b6064820152fd5b8280fd5b8382346101c757816003193601126101c7576020906007549051908152f35b5080fd5b8382346101c757816003193601126101c7576020906006549051908152f35b8382346101c757816003193601126101c7576020906003549051908152f35b50823461023757806003193601126102375750610233600254916003549354905193849384610977565b0390f35b80fd5b8382346101c757816003193601126101c7576020906002549051908152f35b8382346101c757816003193601126101c757905490516001600160a01b039091168152602090f35b5090346101a4576101203660031901126101a45760ff60015460a01c166105795780356103e8808210158061056d575b1561051e576044359081158015610514575b156104bb576084358015806104b1575b801561049a575b1561043f5760e4359182159081610433575b8115610412575b50156103b857916103b29184937ff8f307e03bac9d16c97daf718b85c0ac1e705bc96da176f0d33459faa138d6fc96956002558260243596876003555560643590816005558060065560a435908160075560c435928360085584600955610104359586600a55600160ff19600b541617600b5560018060a01b038d54169b51998a998a95926101009794919a9998959261012088019b8852602088015260408701526060860152608085015260a084015260c083015260e08201520152565b0390a280f35b855162461bcd60e51b8152602081870152602e60248201527f4d61726b65744f6464733a20546f74616c206f646473206d757374206265203e60448201526d0f480c4b8c0c0c081a59881cd95d60921b6064820152608490fd5b80841015915081610425575b50386102f3565b90506101043510153861041e565b610104351591506102ec565b855162461bcd60e51b8152602081870152602f60248201527f4d61726b65744f6464733a20537072656164206f646473206d7573742062652060448201526e0f8f480c4b8c0c0c081a59881cd95d608a1b6064820152608490fd5b508181101580156102da57508160a43510156102da565b5060a435156102d3565b845162461bcd60e51b8152602081860152602d60248201527f4d61726b65744f6464733a2044726177206f646473206d757374206265203e3d60448201526c080c4b8c0c0c081a59881cd95d609a1b6064820152608490fd5b50808210156102c3565b835162461bcd60e51b81526020818501526024808201527f4d61726b65744f6464733a204d4c206f646473206d757374206265203e3d203160448201526302e3030360e41b6064820152608490fd5b508060243510156102b1565b6020608492519162461bcd60e51b8352820152603360248201527f4d61726b65744f6464733a2043616e6e6f7420757064617465206f6464732061604482015272199d195c881b585c9ad95d081cdd185c9d1959606a1b6064820152fd5b8382346101c757816003193601126101c7576020906005549051908152f35b50346101a45760203660031901126101a4576001600160a01b03823581811693919290849003610718578454928316801590811561070e575b501561069b57831561064d5750506001600160a01b03191617815580f35b906020608492519162461bcd60e51b8352820152602260248201527f4d61726b65744f6464733a20496e76616c6964206d61726b6574206164647265604482015261737360f01b6064820152fd5b90602060a492519162461bcd60e51b8352820152604160248201527f4d61726b65744f6464733a20436f6e74726f6c6c696e67206d61726b6574206160448201527f6c726561647920736574206f7220756e617574686f72697a65642063616c6c656064820152603960f91b6084820152fd5b905033143861062f565b8480fd5b8382346101c757816003193601126101c75760015490516001600160a01b039091168152602090f35b8382346101c757816003193601126101c75760209060ff60015460a01c1690519015158152f35b8382346101c757816003193601126101c75760609060055490600654906007549181519384526020840152820152f35b8382346101c757816003193601126101c757602090600a549051908152f35b5090346101a45760203660031901126101a45780356001600160a01b038116929083900361085d578215610802575050600180546001600160a01b03191691909117905580f35b906020608492519162461bcd60e51b8352820152602f60248201527f4d61726b65744f6464733a204e65772070726f76696465722063616e6e6f742060448201526e6265207a65726f206164647265737360881b6064820152fd5b8380fd5b8382346101c757816003193601126101c7576020906008549051908152f35b8382346101c757816003193601126101c7576020906009549051908152f35b5082346102375780600319360112610237575060085461023360095492600a54905193849384610977565b8382346101c757816003193601126101c75760209060ff600b541690519015158152f35b5090346101a457826003193601126101a45760209250549051908152f35b838534610237578060031936011261023757506002546003549154600554600654600754600854600954600a54968952602089019790975260408801949094526060870192909252608086015260a085015260c084015260e083019190915261010082015261012090f35b604091949392606082019582526020820152015256fea2646970667358221220c7ccd5342fd2e05d4525685c95d175aee524fc11d4906a0f5eb2384ba4e44f5964736f6c63430008130033",
  "linkReferences": {},
  "deployedLinkReferences": {}
}