{
  "_format": "hh-sol-artifact-1",
  "contractName": "MarketDeployer",
  "sourceName": "contracts/MarketDeployer.sol",
  "abi": [
    {
      "inputs": [
        {
          "internalType": "string",
          "name": "homeTeam",
          "type": "string"
        },
        {
          "internalType": "string",
          "name": "awayTeam",
          "type": "string"
        },
        {
          "internalType": "uint256",
          "name": "gameTimestamp",
          "type": "uint256"
        },
        {
          "internalType": "string",
          "name": "oddsApiId",
          "type": "string"
        },
        {
          "internalType": "address",
          "name": "admin",
          "type": "address"
        },
        {
          "internalType": "address",
          "name": "oddsProvider",
          "type": "address"
        },
        {
          "internalType": "address",
          "name": "resultsProvider",
          "type": "address"
        },
        {
          "internalType": "address",
          "name": "usdx",
          "type": "address"
        },
        {
          "internalType": "address",
          "name": "liquidityPool",
          "type": "address"
        },
        {
          "internalType": "address",
          "name": "oddsContractAddress",
          "type": "address"
        },
        {
          "internalType": "uint256",
          "name": "marketFunding",
          "type": "uint256"
        }
      ],
      "name": "deployMarketContract",
      "outputs": [
        {
          "internalType": "address",
          "name": "",
          "type": "address"
        }
      ],
      "stateMutability": "nonpayable",
      "type": "function"
    },
    {
      "inputs": [
        {
          "internalType": "address",
          "name": "caller",
          "type": "address"
        },
        {
          "internalType": "address",
          "name": "oddsProvider",
          "type": "address"
        },
        {
          "internalType": "uint256",
          "name": "homeOdds",
          "type": "uint256"
        },
        {
          "internalType": "uint256",
          "name": "awayOdds",
          "type": "uint256"
        },
        {
          "internalType": "uint256",
          "name": "drawOdds",
          "type": "uint256"
        },
        {
          "internalType": "int256",
          "name": "homeSpreadPoints",
          "type": "int256"
        },
        {
          "internalType": "uint256",
          "name": "homeSpreadOdds",
          "type": "uint256"
        },
        {
          "internalType": "uint256",
          "name": "awaySpreadOdds",
          "type": "uint256"
        },
        {
          "internalType": "uint256",
          "name": "totalPoints",
          "type": "uint256"
        },
        {
          "internalType": "uint256",
          "name": "overOdds",
          "type": "uint256"
        },
        {
          "internalType": "uint256",
          "name": "underOdds",
          "type": "uint256"
        }
      ],
      "name": "deployOddsContract",
      "outputs": [
        {
          "internalType": "address",
          "name": "",
          "type": "address"
        }
      ],
      "stateMutability": "nonpayable",
      "type": "function"
    }
  ],
  "bytecode": "0x6080806040523461001657615c40908161001c8239f35b600080fdfe604060808152600490813610156200001657600080fd5b600091823560e01c806372db437714620001375763d26c0ce6146200003a57600080fd5b346200013357610160806003193601126200012f576001600160a01b039180358381169291908390036200012b576024358481168091036200012757855193610c36808601936001600160401b038511878610176200011457509085939291620003ae853982526020820152604435868201526064356060820152608435608082015260a43560a082015260c43560c082015260e43560e082015261010435610100820152610124356101208201526101443561014082015203019084f09182156200010b57602093505191168152f35b513d84823e3d90fd5b634e487b7160e01b8a5260419052602489fd5b8680fd5b8580fd5b8380fd5b8280fd5b50919034620002e557610160928360031936011262000133576001600160401b03908035828111620002e157620001729036908301620002e9565b6024358381116200012b576200018c9036908401620002e9565b926064358181116200012757620001a79036908501620002e9565b966001600160a01b0394608435868116949190859003620002dd5760a435878116809103620002d95760c43590888216809203620002d55760e43592898416809403620002d15761010435948a8616809603620002cd5761012435968b8816809803620002c9578c519a614c2790818d019a8d8c10908c1117620002b65750928b9c9d9e9f926200024f906200025e9362000274968f62000fe49039808d528c01906200036b565b908a820360208c01526200036b565b604435898f015288810360608a0152906200036b565b96608087015260a086015260c085015260e084015261010083015261012082015261014061014435910152039084f09182156200010b57602093505191168152f35b8f6041602492634e487b7160e01b835252fd5b8d80fd5b8c80fd5b8b80fd5b8a80fd5b8980fd5b8880fd5b8480fd5b5080fd5b81601f8201121562000350576001600160401b039181359190838311620003555760405193601f8401601f19908116603f01168501908111858210176200035557604052828452602083830101116200035057816000926020809301838601378301015290565b600080fd5b634e487b7160e01b600052604160045260246000fd5b919082519283825260005b84811062000398575050826000602080949584010152601f8019910116010190565b6020818301810151848301820152016200037656fe60803461024357601f610c3638819003918201601f191683019291906001600160401b03841183851017610248578161016092849260409687528339810103126102435761004c8161025e565b6100586020830161025e565b918381015160608201519260808301519260a08101519060c08101519160e0820151610100938484015192610120986101408a8701519601519760015460ff19600b54169182600b5560018060a01b038091169e8f156101ee571690811561019f578e60018060a01b0319600054161760005560018060a81b03191617600155896002558b60035581600455826005558360065584600755856008558660095588600a556103e8808b10159081610194575b50610188575b5060ff600b541661012a575b8c516109c390816102738239f35b7ff8f307e03bac9d16c97daf718b85c0ac1e705bc96da176f0d33459faa138d6fc9a8d51998a5260208a01528c8901526060880152608087015260a086015260c085015260e0840152820152a238808080808080808080808061011c565b600117600b5538610110565b90508c10153861010a565b508e5162461bcd60e51b815260206004820152602160248201527f4d61726b65744f6464733a20496e76616c6964206f6464732070726f766964656044820152603960f91b6064820152608490fd5b50508e5162461bcd60e51b815260206004820152602660248201527f4d61726b65744f6464733a20496e76616c696420636f6e74726f6c6c696e67206044820152651b585c9ad95d60d21b6064820152608490fd5b600080fd5b634e487b7160e01b600052604160045260246000fd5b51906001600160a01b03821682036102435756fe608060408181526004908136101561001657600080fd5b600092833560e01c90816319e26f4b1461090c575080631b019673146108ee5780632eb4342e146108ca57806336d1e69b1461089f5780633cc4c0e114610880578063567142be1461086157806359353612146107bb57806367b952ab1461079c57806368ee86341461076c5780636c90a37e146107455780637ba029391461071c5780637c2430b9146105f65780638ceec93f146105d7578063999552d014610281578063a9565ac714610259578063b3f959691461023a578063b762b14114610209578063c68e052c146101ea578063dce4a3b0146101cb578063f50a81bf146101a85763f7b002c41461010b57600080fd5b346101a457826003193601126101a45782546001600160a01b03163303610143576001805460ff60a01b1916600160a01b1790558280f35b906020608492519162461bcd60e51b8352820152603560248201527f4d61726b65744f6464733a204f6e6c792074686520636f6e74726f6c6c696e67604482015274206d61726b65742063616e2063616c6c207468697360581b6064820152fd5b8280fd5b8382346101c757816003193601126101c7576020906007549051908152f35b5080fd5b8382346101c757816003193601126101c7576020906006549051908152f35b8382346101c757816003193601126101c7576020906003549051908152f35b50823461023757806003193601126102375750610233600254916003549354905193849384610977565b0390f35b80fd5b8382346101c757816003193601126101c7576020906002549051908152f35b8382346101c757816003193601126101c757905490516001600160a01b039091168152602090f35b5090346101a4576101203660031901126101a45760ff60015460a01c166105795780356103e8808210158061056d575b1561051e576044359081158015610514575b156104bb576084358015806104b1575b801561049a575b1561043f5760e4359182159081610433575b8115610412575b50156103b857916103b29184937ff8f307e03bac9d16c97daf718b85c0ac1e705bc96da176f0d33459faa138d6fc96956002558260243596876003555560643590816005558060065560a435908160075560c435928360085584600955610104359586600a55600160ff19600b541617600b5560018060a01b038d54169b51998a998a95926101009794919a9998959261012088019b8852602088015260408701526060860152608085015260a084015260c083015260e08201520152565b0390a280f35b855162461bcd60e51b8152602081870152602e60248201527f4d61726b65744f6464733a20546f74616c206f646473206d757374206265203e60448201526d0f480c4b8c0c0c081a59881cd95d60921b6064820152608490fd5b80841015915081610425575b50386102f3565b90506101043510153861041e565b610104351591506102ec565b855162461bcd60e51b8152602081870152602f60248201527f4d61726b65744f6464733a20537072656164206f646473206d7573742062652060448201526e0f8f480c4b8c0c0c081a59881cd95d608a1b6064820152608490fd5b508181101580156102da57508160a43510156102da565b5060a435156102d3565b845162461bcd60e51b8152602081860152602d60248201527f4d61726b65744f6464733a2044726177206f646473206d757374206265203e3d60448201526c080c4b8c0c0c081a59881cd95d609a1b6064820152608490fd5b50808210156102c3565b835162461bcd60e51b81526020818501526024808201527f4d61726b65744f6464733a204d4c206f646473206d757374206265203e3d203160448201526302e3030360e41b6064820152608490fd5b508060243510156102b1565b6020608492519162461bcd60e51b8352820152603360248201527f4d61726b65744f6464733a2043616e6e6f7420757064617465206f6464732061604482015272199d195c881b585c9ad95d081cdd185c9d1959606a1b6064820152fd5b8382346101c757816003193601126101c7576020906005549051908152f35b50346101a45760203660031901126101a4576001600160a01b03823581811693919290849003610718578454928316801590811561070e575b501561069b57831561064d5750506001600160a01b03191617815580f35b906020608492519162461bcd60e51b8352820152602260248201527f4d61726b65744f6464733a20496e76616c6964206d61726b6574206164647265604482015261737360f01b6064820152fd5b90602060a492519162461bcd60e51b8352820152604160248201527f4d61726b65744f6464733a20436f6e74726f6c6c696e67206d61726b6574206160448201527f6c726561647920736574206f7220756e617574686f72697a65642063616c6c656064820152603960f91b6084820152fd5b905033143861062f565b8480fd5b8382346101c757816003193601126101c75760015490516001600160a01b039091168152602090f35b8382346101c757816003193601126101c75760209060ff60015460a01c1690519015158152f35b8382346101c757816003193601126101c75760609060055490600654906007549181519384526020840152820152f35b8382346101c757816003193601126101c757602090600a549051908152f35b5090346101a45760203660031901126101a45780356001600160a01b038116929083900361085d578215610802575050600180546001600160a01b03191691909117905580f35b906020608492519162461bcd60e51b8352820152602f60248201527f4d61726b65744f6464733a204e65772070726f76696465722063616e6e6f742060448201526e6265207a65726f206164647265737360881b6064820152fd5b8380fd5b8382346101c757816003193601126101c7576020906008549051908152f35b8382346101c757816003193601126101c7576020906009549051908152f35b5082346102375780600319360112610237575060085461023360095492600a54905193849384610977565b8382346101c757816003193601126101c75760209060ff600b541690519015158152f35b5090346101a457826003193601126101a45760209250549051908152f35b838534610237578060031936011261023757506002546003549154600554600654600754600854600954600a54968952602089019790975260408801949094526060870192909252608086015260a085015260c084015260e083019190915261010082015261012090f35b604091949392606082019582526020820152015256fea2646970667358221220c7ccd5342fd2e05d4525685c95d175aee524fc11d4906a0f5eb2384ba4e44f5964736f6c6343000813003360808060405234620004655762004c2780380380916200002082856200076b565b8339810161016082820312620004655781516001600160401b0381116200046557816200004f9184016200078f565b60208301516001600160401b038111620004655782620000719185016200078f565b6040840151606085015190939192916001600160401b03821162000465576200009c9186016200078f565b93620000ab6080820162000806565b620000b960a0830162000806565b91620000c860c0820162000806565b620000d660e0830162000806565b96620000e6610100840162000806565b96610140620000f9610120860162000806565b9401516001600055875190976001600160401b038211620004065760015490600182811c9216801562000760575b60208310146200055e5781601f849311620006ff575b50602090601f8311600114620006815760009262000675575b50508160011b916000199060031b1c1916176001555b8051906001600160401b038211620004065760025490600182811c921680156200066a575b60208310146200055e5781601f84931162000609575b50602090601f83116001146200058b576000926200057f575b50508160011b916000199060031b1c1916176002555b60035587516001600160401b0381116200040657600454600181811c9116801562000574575b60208210146200055e57601f8111620004f4575b506020601f82116001146200047f579080602094939260049b60009262000473575b50508160011b916000199060031b1c19161789555b600e8054610100600160a81b03198116600887901b610100600160a81b031617909155600f80546001600160a01b03199081166001600160a01b0398891617909155601080548216938816939093179092556011805483169387169384179055601280548316998716998a1790556013805490921697909516968717905560405163175a1a1760e11b815297959695889182905afa958615620003fa576000966200042a575b50600b805462ff0000191680825590966200041c575b50855461ffff191686556001600160a81b031990911660089190911b610100600160a81b031617600e5560405192611e6391828501916001600160401b038311868410176200040657608094869462002d8486393084526020840152604083015260608201520301906000f0908115620003fa57601480546001600160a01b0319166001600160a01b0390931692909217909155546040519060101c60ff166005811015620003e457816020917fb786c19cad4ec6fc2aeb481fb6b1473feb22fe8caf8abfcb7702a077e98845e49352a160405161256890816200081c8239f35b634e487b7160e01b600052602160045260246000fd5b6040513d6000823e3d90fd5b634e487b7160e01b600052604160045260246000fd5b620100001786553862000303565b9095506020813d6020116200046a575b8162000449602093836200076b565b81010312620004655751801515810362000465579438620002ed565b600080fd5b3d91506200043a565b01519050388062000232565b600460005260206000209960005b601f1984168110620004db57509160049a600192602096959483601f19811610620004c1575b505050811b01895562000247565b015160001960f88460031b161c19169055388080620004b3565b828201518c556001909b019a602092830192016200048d565b60046000527f8a35acfbc15ff81a39ae7d344fd709f28e8600b4aa8c65c6b64bfe7fe36bd19b601f830160051c8101916020841062000553575b601f0160051c01905b81811062000546575062000210565b6000815560010162000537565b90915081906200052e565b634e487b7160e01b600052602260045260246000fd5b90607f1690620001fc565b015190503880620001c0565b60026000908152935060008051602062004be783398151915291905b601f1984168510620005ed576001945083601f19811610620005d3575b505050811b01600255620001d6565b015160001960f88460031b161c19169055388080620005c4565b81810151835560209485019460019093019290910190620005a7565b600260005290915060008051602062004be7833981519152601f840160051c81016020851062000662575b90849392915b601f830160051c8201811062000652575050620001a7565b600081558594506001016200063a565b508062000634565b91607f169162000191565b01519050388062000156565b60016000908152935060008051602062004c0783398151915291905b601f1984168510620006e3576001945083601f19811610620006c9575b505050811b016001556200016c565b015160001960f88460031b161c19169055388080620006ba565b818101518355602094850194600190930192909101906200069d565b600160005290915060008051602062004c07833981519152601f840160051c81016020851062000758575b90849392915b601f830160051c82018110620007485750506200013d565b6000815585945060010162000730565b50806200072a565b91607f169162000127565b601f909101601f19168101906001600160401b038211908210176200040657604052565b919080601f8401121562000465578251906001600160401b038211620004065760405191602091620007cb601f8301601f19168401856200076b565b818452828287010111620004655760005b818110620007f257508260009394955001015290565b8581018301518482018401528201620007dc565b51906001600160a01b0382168203620004655756fe608060408181526004918236101561001657600080fd5b60009260e08435811c92836306705b2d146122055750826306fe87661461209157826319e26f4b14611f89578483631f43e0db14611eea57508263285088ac14611e1e5782632f6fe39614611df6578263310efb4814611bc6578263311176d714611b9c57826336d1e69b14611b6b5782633cc4c0e114611b4b5782633df2967e146119fc578263479eaf25146118ac5782634e69d56014611881578263567142be1461186157826359353612146118115782635e123ce4146117ec578263665a11ca146117c257826367b952ab146117a257826368ee8634146117715782636bfefd6b146115ed5782636c81ea0a146115c35782636db5fc9c146115a35782637ba02939146115795782637d79c192146114c957826380327bbb1461147957826388a0a981146113bb5782638ac6d217146113665782638ceec93f1461134657826390065d5f1461112a57508163a29b989314611090578163a72f37cd1461105f578163a780459d14610e7c578163ae989d3614610d85578163bd02de1b14610d3f578163beda201414610d1b578163c1aa6b9f14610c3757838263c1e2e6de14610ba557508163c6cb8ce114610b7c578163d38d963914610b5d578163d65ab5f21461096157838263da4cdb23146108de57508163dce4a3b0146108bf578163e0e081d714610893578163e7ea03ba1461086a578163f034836e14610841578163f43a6eac1461028a57508063f50a81bf1461026c5763f851a4401461023d57600080fd5b34610268578160031936011261026857600e54905160089190911c6001600160a01b03168152602090f35b5080fd5b50346102685781600319360112610268576020906007549051908152f35b9190503461083d57606080600319360112610839578235928084101561083557602491823594604491823591821515908184036103db5760028a54146107f45760028a5560ff600b5460101c1660058110156107e2576001036107a3578815610769576011546001600160a01b039081169490938b9161030b8715156123d6565b88839785156000146104c95783908d519283809263b762b14160e01b82525afa9283156104bf57849361048a575b505082151580610481575b15610432571561042b57505b925b6103e884106103f0579260c495926103916020999896938d9660145416958c519d8e9b8c9a636f420a5b60e11b8c5233908c01528a0152880190612221565b6064860152608485015260a48401525af19081156103e757506103b7575b506001815580f35b602090813d81116103e0575b6103cd818361227a565b810103126103db57386103af565b600080fd5b503d6103c3565b513d84823e3d90fd5b885162461bcd60e51b81526020818901526017818a01527614d95b1958dd1959081bd9191cc81b9bdd081d985b1a59604a1b81880152606490fd5b9050610350565b50895162461bcd60e51b81526020818a0152808a018a90527f4d6f6e65796c696e65206f646473206e6f742073657420696e204d61726b657481890152634f64647360e01b6064820152608490fd5b50811515610344565b80919294506104ae9350903d106104b8575b6104a6818361227a565b8101906124a1565b5090913880610339565b503d61049c565b8c513d86823e3d90fd5b92939092916003860361057357505082908b519283809263b762b14160e01b82525afa918215610569578c92610549575b505080156105085792610352565b885162461bcd60e51b8152602081890152601f818a01527f44726177206f646473206e6f742073657420696e204d61726b65744f6464730081880152606490fd5b61055f9250803d106104b8576104a6818361227a565b91505038806104fa565b8a513d8e823e3d90fd5b96975092959086906001860361066d578c51631a3ba18d60e21b815293849182905afa9182156106635783968493610621575b505082151580610618575b156105cb57156105c457505b9293610352565b90506105bd565b5050885162461bcd60e51b81526020818901526021818a01527f537072656164206f646473206e6f742073657420696e204d61726b65744f646481880152607360f81b6064820152608490fd5b508115156105b1565b92509550915084813d831161065c575b61063b818361227a565b810103126106585783516020850151948a015190949138806105a6565b8a80fd5b503d610631565b8b513d85823e3d90fd5b925050915060028314600014610734578b918589928c51938480926336d1e69b60e01b82525afa918215610663578396849361070d575b505082151580610704575b156106c157156105c457509293610352565b5050885162461bcd60e51b81526020818901819052818a01527f546f74616c206f646473206e6f742073657420696e204d61726b65744f64647381880152606490fd5b508115156106af565b91965091506107289250803d106104b8576104a6818361227a565b919490919038806106a4565b50885162461bcd60e51b81526020818901526010818a01526f496e76616c696420626574207479706560801b81880152606490fd5b875162461bcd60e51b815260208188015260168189015275042657420616d6f756e74206d757374206265203e20360541b81870152606490fd5b875162461bcd60e51b8152602081880152601b818901527a4d61726b6574206e6f74206f70656e20666f722062657474696e6760281b81870152606490fd5b634e487b7160e01b8b5260218752878bfd5b875162461bcd60e51b8152602081880152601f818901527f5265656e7472616e637947756172643a207265656e7472616e742063616c6c0081870152606490fd5b8480fd5b8380fd5b8280fd5b50503461026857816003193601126102685760115490516001600160a01b039091168152602090f35b50503461026857816003193601126102685760105490516001600160a01b039091168152602090f35b5050346102685781600319360112610268576020906108bd60ff600b5460101c1691518092612244565bf35b5050346102685781600319360112610268576020906006549051908152f35b8091843461095d57602036600319011261095d5760018060a01b0361090b81600e5460081c1633146124bc565b6014541691823b15610958578392602484928451958693849263da4cdb2360e01b84528035908401525af19081156103e757506109455750f35b61094e90612251565b6109555780f35b80fd5b505050fd5b5050fd5b90503461083d578260031936011261083d57600b549060ff8260101c166005811015610b4a578015908115610b3f575b5015610b03576011546001600160a01b0316906109af8215156123d6565b835163175a1a1760e11b81526020939084818481875afa908115610af9578791610ac0575b5015610a6f5762ff00ff19166202000117600b55849190813b1561083d578451633dec00b160e21b81529183918391829084905af1610a5b575b505060008051602061251383398151915291517f762f260439bb4be3ef6e4dc2786e2e7bd187d3d80b79057d7a424fe98563e3358480a1610a578160ff600b5460101c16612244565ba180f35b610a6490612251565b61083d578238610a0e565b845162461bcd60e51b8152808301859052602560248201527f43616e6e6f742073746172742067616d65206265666f7265206f64647320617260448201526419481cd95d60da1b6064820152608490fd5b90508481813d8311610af2575b610ad7818361227a565b81010312610aee57610ae89061243c565b386109d4565b8680fd5b503d610acd565b86513d89823e3d90fd5b606490602084519162461bcd60e51b8352820152601660248201527513585c9ad95d08185b1c9958591e481cdd185c9d195960521b6044820152fd5b600191501438610991565b634e487b7160e01b855260218252602485fd5b505034610268578160031936011261026857602090600d549051908152f35b50503461026857816003193601126102685760145490516001600160a01b039091168152602090f35b8091843461095d57606036600319011261095d5781358281101561095857610bcb6123ab565b9060018060a01b03610be581600e5460081c1633146124bc565b60145416803b15610c3357610c1394866064928195875198899687956360f1736f60e11b8752860190612221565b1515602484015260443560448401525af19081156103e757506109455750f35b8580fd5b9050823461095557806003193601126109555760145483516304f0d71560e51b8152926020916001600160a01b031682858381845afa948515610d11578495610ce2575b5082908651928380926315ef6c7b60e01b82525afa928315610cd75792610ca8575b508351928352820152f35b9080925081813d8311610cd0575b610cc0818361227a565b810103126103db57519084610c9d565b503d610cb6565b8551903d90823e3d90fd5b9094508281813d8311610d0a575b610cfa818361227a565b810103126103db57519382610c7b565b503d610cf0565b86513d86823e3d90fd5b50503461026857816003193601126102685760209060ff600e541690519015158152f35b9050823461095557806003193601126109555760ff600b5460101c16916005831015610d72576020836001865191148152f35b634e487b7160e01b825260219052602490fd5b8284346109555780600319360112610955575080519060009060019182549283811c90808516948515610e72575b6020958684108114610e5f57838852879493929187908215610e3d575050600114610dfe575b5050610dfa9291610deb91038561227a565b5192828493845283019061236b565b0390f35b908592508160005282600020916000925b828410610e255750505082010181610deb610dd9565b8054848a018601528895508794909301928101610e0f565b60ff19168682015292151560051b85019092019250839150610deb9050610dd9565b634e487b7160e01b855260228952602485fd5b91607f1691610db3565b83915034610268578160031936011261026857600b5460ff8160101c16600581101561104c57610ff9576011546001600160a01b0316918215610fb6578451809363175a1a1760e11b8252818360209687935afa908115610fac578591610f77575b5015610f195750610a5760008051602061251383398151915293946201000060ff9362ff00001916179081600b555192839160101c16612244565b845162461bcd60e51b8152908101839052603260248201527f4e42414d61726b65743a204f646473206e6f74207965742073657420696e204d604482015271185c9ad95d13d9191cc818dbdb9d1c9858dd60721b6064820152608490fd5b90508381813d8311610fa5575b610f8e818361227a565b8101031261083557610f9f9061243c565b86610ede565b503d610f84565b86513d87823e3d90fd5b606490602086519162461bcd60e51b8352820152602060248201527f4e42414d61726b65743a204f64647320636f6e7472616374206e6f74207365746044820152fd5b835162461bcd60e51b8152602081840152602760248201527f4e42414d61726b65743a204d61726b6574206e6f7420696e2050454e44494e476044820152662073746174757360c81b6064820152608490fd5b634e487b7160e01b845260218352602484fd5b505034610268578160031936011261026857610dfa9061107d61229d565b905191829160208352602083019061236b565b828434610955578060031936011261095557601454825163a29b989360e01b81529360809185919082906001600160a01b03165afa801561111e5781809381926110e5575b90610dfa929151948594856123ba565b935050505061110d610dfa9260803d8111611117575b611105818361227a565b81019061241a565b91945084936110d5565b503d6110fb565b509051903d90823e3d90fd5b9150919234610955578060031936011261095557506003549260ff600b5460101c169160ff600e5416600c5490600d5493805196600098600180549a8b821c828d169c8d1561133c575b60209d8e8310811461132957918e93918e93828552908160001461130b57506001146112ca575b506111a89250038b61227a565b8351926000916002548d81831c938383169182156112c0575b851082146112ad575083875290811561128f5750600114611255575b505091611242939161122661121a9b9c6111fc8461123797038561227a565b61120461229d565b9385519e8f9e8f9161010080845283019061236b565b9281840391015261236b565b928b015289820360608b015261236b565b956080880190612244565b151560a086015260c08501528301520390f35b915060026000528b600020916000925b82841061127c5750505082018a01816112266111dd565b80548685018f0152928d01928101611265565b60ff19168e8701525050151560051b83018b019050816112266111dd565b634e487b7160e01b865260229052602485fd5b94607f16946111c1565b9050836000528260002090846000925b8284106112f357505050916111a8928201018d9261119b565b85929483858354920101520191019091848e936112da565b60ff191684860152508e9390151560051b83010190506111a861119b565b634e487b7160e01b845260228752602484fd5b90607f1690611174565b505050346102685781600319360112610268576020906005549051908152f35b508284346109555780600319360112610955576014548251638ac6d21760e01b81529360809185919082906001600160a01b03165afa801561111e5781809381926110e55790610dfa929151948594856123ba565b838583346102685782600319360112610268578035908082101561083d5761141291604485926113e96123ab565b60145485516388a0a98160e01b815296879586946001600160a01b039093169392850190612221565b151560248301525afa90811561146f57828092611438575b505082519182526020820152f35b915091508282813d8311611468575b611451818361227a565b81010312610955575060208151910151838061142a565b503d611447565b83513d84823e3d90fd5b84823461026857602036600319011261026857356001600160a01b038181169182900361083d576114b290600e5460081c1633146124bc565b601080546001600160a01b03191691909117905580f35b508284346109555780600319360112610955575080519060009060025491600183811c9080851694851561156f575b6020958684108114610e5f57838852879493929187908215610e3d57505060011461152f575050610dfa9291610deb91038561227a565b90859250600260005282600020916000925b8284106115575750505082010181610deb610dd9565b8054848a018601528895508794909301928101611541565b91607f16916114f8565b50505034610268578160031936011261026857600f5490516001600160a01b039091168152602090f35b50505034610268578160031936011261026857602090600c549051908152f35b5050503461026857816003193601126102685760115490516001600160a01b039091168152602090f35b5090503461083d578260031936011261083d5760018060a01b0361161981600e5460081c1633146124bc565b600b5460ff8160101c1660058110158061175e57600382141580611750575b61164190612449565b61173d576002146116e05762ffff0019166204010017600b5560145483516308c678f760e21b815292602092849283918891165af180156116d4576116a9575b50602060008051602061251383398151915291610a5760ff600b5460101c1691518092612244565b602090813d81116116cd575b6116bf818361227a565b810103126103db5738611681565b503d6116b5565b505051903d90823e3d90fd5b835162461bcd60e51b8152602081850152603160248201527f43616e6e6f742063616e63656c2061667465722067616d65207374617274656460448201527020756e6c65737320656d657267656e637960781b6064820152608490fd5b634e487b7160e01b865260218452602486fd5b506000905081851415611638565b634e487b7160e01b875260218552602487fd5b5050503461026857816003193601126102685760609060055490600654906007549181519384526020840152820152f35b50505034610268578160031936011261026857602090600a549051908152f35b5050503461026857816003193601126102685760135490516001600160a01b039091168152602090f35b5050503461026857816003193601126102685760209060ff600b541690519015158152f35b84823461026857602036600319011261026857356001600160a01b038181169182900361083d5761184a90600e5460081c1633146124bc565b600f80546001600160a01b03191691909117905580f35b505050346102685781600319360112610268576020906008549051908152f35b505050346102685781600319360112610268576020906108bd60ff600b5460101c1691518092612244565b8482853461083d57602080600319360112610839576001600160a01b038335818116918691839003610268576014541691602485518094819363479eaf2560e01b8352898301525afa9384156119f2578594611945575b5050815181815283518183018190529094859493850193830192905b82811061192e57505050500390f35b83518552869550938101939281019260010161191f565b909193503d8086843e611958818461227a565b8201908483830312610c335782516001600160401b03938482116119ee57019082601f83011215610aee5781519384116119db57508260051b908451936119a18784018661227a565b84528580850192820101928311610aee5785809101915b8383106119cb5750505050918480611903565b82518152918101918691016119b8565b634e487b7160e01b875260419052602486fd5b8780fd5b83513d87823e3d90fd5b84849134610268576020366003190112610268576014548351631ef94b3f60e11b8152853586820152610120956001600160a01b03949287908390602490829089165afa948515611b415783968490859086928794889689988a809d611a9f575b505083519c9091168c525060208b0152890152611a7e906060890190612221565b1515608087015260a086015260c08501521515908301521515610100820152f35b985098509b5099505095505050508682813d8311611b3a575b611ac2818361227a565b810103126109555781519285841684036102685760208301519681840151926060850151918210156109555750611a7e90611aff6080860161243c565b9060a08601519360c087015195611b24610100611b1d8c8b0161243c565b990161243c565b989b909293959697989a90919293948e80611a5d565b503d611ab8565b86513d85823e3d90fd5b505050346102685781600319360112610268576020906009549051908152f35b505050346102685781600319360112610268576060906008549060095490600a549181519384526020840152820152f35b5050503461026857816003193601126102685760125490516001600160a01b039091168152602090f35b508383346102685780600319360112610268578235602490813590600b5460ff8160101c16600581101580611de457600382141580611dd6575b611c0990612449565b611dc457600203611d6057600e5460ff8116611d145796610100604492600188999a86600c5587600d5560ff191617600e5561ff00191617600b55878651948486527fd49e6bd1813fbfe286dc118bb4079a0c5f53c4c9228645a6459e0d74d00dc50f60209887838b809a0152a160018060a01b0360145416908951978896879563bddf3c8560e01b87528601528401525af18015611d0757611cdd575b5060ff610a57600080516020612513833981519152936203000062ff000019600b5416179081600b555192839160101c16612244565b8190813d8311611d00575b611cf2818361227a565b810103126103db5783611ca7565b503d611ce8565b50505051903d90823e3d90fd5b855162461bcd60e51b81526020818a01526021818701527f4e42414d61726b65743a20526573756c7420616c726561647920736574746c656044820152601960fa1b6064820152608490fd5b845162461bcd60e51b81526020818901526039818601527f4e42414d61726b65743a204d61726b6574206d75737420626520696e2053544160448201527814951151081cdd185d1d5cc81d1bc81cd95d081c995cdd5b1d603a1b6064820152608490fd5b634e487b7160e01b8752602188528487fd5b506000905081891415611c00565b634e487b7160e01b8852602189528588fd5b5050503461026857816003193601126102685760209060ff600b5460081c1690519015158152f35b5090503461083d578260031936011261083d576014548251630a14222b60e21b81529160c09183919082906001600160a01b03165afa9081156116d457839284908590869287948896611e8f575b5060c09750815196875260208701528501526060840152608083015260a0820152f35b965050935050505060c0823d8211611ee2575b81611eaf60c0938361227a565b8101031261083d5781516020830151828401516060850151608086015160a09096015160c0975093959394909238611e6c565b3d9150611ea2565b939250346109585736600319011261095d5760018060a01b03611f1581600e5460081c1633146124bc565b60145416803b156109585760e4849284519586938492631f43e0db60e01b8452803590840152602435602484015260443560448401526064356064840152608435608484015260a43560a484015260c43560c48401525af19081156103e75750611f7d575080f35b611f8690612251565b80f35b838286346109555780600319360112610955576011546001600160a01b031693611fb48515156123d6565b8351948580946319e26f4b60e01b82526101209788935afa928315612087578294839084859086928794889689809b612016575b505081519a8b5260208b01528901526060880152608087015260a086015260c0850152830152610100820152f35b9899509a5050975050505050508484813d8311612080575b612038818361227a565b81010312610955575082519060208401519383810151936060820151608083015160a08401519160c08501519361010087870151960151979998919293949597988c80611fe8565b503d61202e565b84513d84823e3d90fd5b5090503461083d578260031936011261083d57600e546001600160a01b039060ff906120c433600883901c8516146124bc565b16156121ae5760ff600b5460101c16600581101561219b57906120f78284600360209514159182612190575b5050612449565b60145416916044600c549186600d54958751968795869463bddf3c8560e01b865285015260248401525af180156116d457612165575b50602060ff610a57600080516020612513833981519152936203000062ff000019600b5416179081600b555192839160101c16612244565b602090813d8111612189575b61217b818361227a565b81010312610268573861212d565b503d612171565b1415905084386120f0565b634e487b7160e01b855260218352602485fd5b506020608492519162461bcd60e51b8352820152602b60248201527f53636f726573206d7573742062652073657420666f7220656d657267656e637960448201526a081cd95d1d1b195b595b9d60aa1b6064820152fd5b8590346102685781600319360112610268576020906003548152f35b90600482101561222e5752565b634e487b7160e01b600052602160045260246000fd5b90600582101561222e5752565b6001600160401b03811161226457604052565b634e487b7160e01b600052604160045260246000fd5b601f909101601f19168101906001600160401b0382119082101761226457604052565b60405190600060045490600182811c90808416938415612361575b602094858410811461234d578388528794939291811561232d57506001146122eb575b50506122e99250038361227a565b565b90939150600460005281600020936000915b8183106123155750506122e9935082010138806122db565b855488840185015294850194879450918301916122fd565b9150506122e994925060ff191682840152151560051b82010138806122db565b634e487b7160e01b85526022600452602485fd5b91607f16916122b8565b919082519283825260005b848110612397575050826000602080949584010152601f8019910116010190565b602081830181015184830182015201612376565b6024359081151582036103db57565b9094939260609260808301968352602083015260408201520152565b156123dd57565b60405162461bcd60e51b815260206004820152601560248201527413d9191cc818dbdb9d1c9858dd081b9bdd081cd95d605a1b6044820152606490fd5b91908260809103126103db578151916020810151916060604083015192015190565b519081151582036103db57565b1561245057565b60405162461bcd60e51b815260206004820152602360248201527f4d61726b657420616c726561647920736574746c6564206f722063616e63656c6044820152621b195960ea1b6064820152608490fd5b908160609103126103db578051916040602083015192015190565b156124c357565b60405162461bcd60e51b815260206004820152602160248201527f4f6e6c792061646d696e2063616e2063616c6c20746869732066756e6374696f6044820152603760f91b6064820152608490fdfeb786c19cad4ec6fc2aeb481fb6b1473feb22fe8caf8abfcb7702a077e98845e4a2646970667358221220d1c1ba2dbac9951b3110a1a6bb96a509fa2b5388479c819f7882d7751852fc3e64736f6c63430008130033608034620001a357601f62001e6338819003918201601f191683019291906001600160401b03841183851017620001a8578160809284926040968752833981010312620001a3576200005181620001be565b906200006060208201620001be565b60606200006f858401620001be565b9201516001600055926001600160a01b039081169182156200015f5781169283156200011b5716918215620000d75760018060a01b0319918260015416176001558160125416176012556013541617601355600255600060035551611c8f9081620001d48239f35b845162461bcd60e51b815260206004820152601d60248201527f496e76616c6964204c6971756964697479506f6f6c20616464726573730000006044820152606490fd5b855162461bcd60e51b815260206004820152601460248201527f496e76616c6964205553445820616464726573730000000000000000000000006044820152606490fd5b855162461bcd60e51b815260206004820152601660248201527f496e76616c6964206d61726b65742061646472657373000000000000000000006044820152606490fd5b600080fd5b634e487b7160e01b600052604160045260246000fd5b51906001600160a01b0382168203620001a35756fe608080604052600436101561001357600080fd5b60003560e01c90816315ef6c7b146113f9575080631f43e0db14611290578063207deba01461126757806322af00fa146112405780632319e3dc146110b85780632349cd801461109a578063285088ac146110525780632d7cbf7014611034578063311176d71461100b5780633cc6666714610fb35780633df2967e14610f37578063479eaf2514610e835780634aafe85a14610e65578063550ee27c14610e4757806359736e7614610d5d57806364ee9bc714610d3f57806367674e0714610d215780637189c36f14610d035780637508864a14610ce557806388a0a98114610ca85780638ac6d21714610c7a5780639562364114610c515780639ab1f60014610c335780639e1ae2a014610c15578063a29b989314610be3578063afd8cd4714610bc5578063bddf3c8514610a1b578063c1e2e6de14610945578063ce21edd8146108b9578063d23fa5ea1461089b578063d9859dd41461087d578063da4cdb23146107e3578063dc117352146107c5578063de8414b6146101c35763e989817c146101a057600080fd5b346101be5760003660031901126101be576020600454604051908152f35b600080fd5b346101be5760c03660031901126101be576101dc6114aa565b600460443510156101be576064351515606435036101be5761020960018060a01b03600154163314611503565b60026000541461078057600260005560243515610742576103e8806084351061070557608435602435026024358104608435036106ef5761024e9160243591046115a2565b61025d81606435604435611977565b15610694576012546040516323b872dd60e01b81526001600160a01b03848116600483015230602480840191909152356044830152909160209183916064918391600091165af190811561068857600091610659575b50156105d7576102c5816003546115f1565b6003556000906044356105395760643515610525576102e681600b546115f1565b600b555b60145460405190926001600160401b036101208301908111908311176104e357610120820160409081526001600160a01b0386168352602435602084015282018390526104f95760443560608201526064351515608082015260a43560a082015260843560c0820152600060e08201819052610100820152600160401b8310156104e3576001830160145561037e83611414565b61050f57815181546001600160a01b0319166001600160a01b0391909116178155602082015160018201556040820151600282015560608201519060048210156104f957610421926006826103ef6003610100950160ff199660ff88835416911617815560808501511515906115af565b60a0830151600482015560c08301516005820155019260ff60e0830151151591855416911617835501511515906115af565b6001600160a01b038316600090815260156020526040902080549390600160401b8510156104e35760c08492610480877f95e3c80d81e8683384b5960f0d2c0c12bd9309b1549e7083c249a57457f7aaff94600160209a0181556114c0565b81549060031b9086821b91600019901b19161790556040519460243586526104ac888701604435611449565b6064351515604087015260a4356060870152608435608087015260a08601526001600160a01b031693a36001600055604051908152f35b634e487b7160e01b600052604160045260246000fd5b634e487b7160e01b600052602160045260246000fd5b634e487b7160e01b600052600060045260246000fd5b61053181600c546115f1565b600c556102ea565b6000915060443560030361055b5761055381600d546115f1565b600d556102ea565b6000915060443560010361059957606435156105855761057d81600e546115f1565b600e556102ea565b61059181600f546115f1565b600f556102ea565b600091506044356002036102ea57606435156105c3576105bb816010546115f1565b6010556102ea565b6105cf816011546115f1565b6011556102ea565b60405162461bcd60e51b815260206004820152604e60248201527f42657474696e67456e67696e653a20546f6b656e207472616e7366657220666160448201527f696c65642e20456e737572652073756666696369656e742062616c616e63652060648201526d30b7321030b63637bbb0b731b29760911b608482015260a490fd5b61067b915060203d602011610681575b6106738183611567565b81019061158a565b836102b3565b503d610669565b6040513d6000823e3d90fd5b60405162461bcd60e51b815260206004820152602d60248201527f42657474696e67456e67696e653a204d61726b6574206578706f73757265206c60448201526c1a5b5a5d08195e18d959591959609a1b6064820152608490fd5b634e487b7160e01b600052601160045260246000fd5b60405162461bcd60e51b815260206004820152601560248201527404f646473206d757374206265203e3d20312e30303605c1b6044820152606490fd5b60405162461bcd60e51b8152602060048201526016602482015275042657420616d6f756e74206d757374206265203e20360541b6044820152606490fd5b60405162461bcd60e51b815260206004820152601f60248201527f5265656e7472616e637947756172643a207265656e7472616e742063616c6c006044820152606490fd5b346101be5760003660031901126101be576020601154604051908152f35b346101be5760203660031901126101be5760043561080c60018060a01b03600154163314611503565b600354811061081a57600255005b60405162461bcd60e51b815260206004820152603560248201527f4e6577206d6178206578706f737572652063616e6e6f74206265206c657373206044820152747468616e2063757272656e74206578706f7375726560581b6064820152608490fd5b346101be5760003660031901126101be576020600954604051908152f35b346101be5760003660031901126101be576020600f54604051908152f35b346101be5760203660031901126101be576013546001600160a01b031633036108ef576108ea6004356002546115f1565b600255005b60405162461bcd60e51b815260206004820152602860248201527f4f6e6c79204c6971756964697479506f6f6c2063616e20696e637265617365206044820152676578706f7375726560c01b6064820152608490fd5b346101be5760603660031901126101be5760043560048110156101be576060600080516020611c3a8339815191529161097c6114d8565b6044359061099560018060a01b03600154163314611503565b826109ca5780156109c157816004555b6109b26040518094611449565b151560208301526040820152a1005b816005556109a5565b600383036109db57816006556109a5565b600183036109fb5780156109f257816007556109a5565b816008556109a5565b600283036109a5578015610a1257816009556109a5565b81600a556109a5565b346101be5760403660031901126101be5760018054602435919081906001600160a01b039060043590610a519083163314611503565b6000925b610a6c575b6020610a6461163b565b604051908152f35b6014548310928315610bbf57610a8285946115fe565b610a8b81611414565b50908460068301805460ff9182821615610ab4575b50505050610aae91506115c7565b92610a55565b90610ad391610ac48c8989611800565b998a9260ff19161781556115af565b6000908715610b845750508201546002830154610aef916115f1565b8460125416928186825416604051809663a9059cbb60e01b825281600081610b1e6020978897600484016115d6565b03925af1948515610688578998888694600080516020611c1a83398151915294604094610aae9a610b66575b50505b541694825191151582526020820152a384888080610aa0565b81610b7c92903d10610681576106738183611567565b508e80610b4a565b6040849293988887610bba600080516020611c1a833981519152956003610aae9b0154600284015491808260081c169116611ab0565b610b4d565b50610a5a565b346101be5760003660031901126101be576020600a54604051908152f35b346101be5760003660031901126101be57600754600e5490610c11600854600f5490604051948594856114e7565b0390f35b346101be5760003660031901126101be576020600254604051908152f35b346101be5760003660031901126101be576020600854604051908152f35b346101be5760003660031901126101be576001546040516001600160a01b039091168152602090f35b346101be5760003660031901126101be5760095460105490610c11600a5460115490604051948594856114e7565b346101be5760403660031901126101be5760043560048110156101be57610cd9604091610cd36114d8565b90611b72565b82519182526020820152f35b346101be5760003660031901126101be576020600c54604051908152f35b346101be5760003660031901126101be576020601054604051908152f35b346101be5760003660031901126101be576020600554604051908152f35b346101be5760003660031901126101be576020600e54604051908152f35b346101be5760203660031901126101be576013546001600160a01b03163303610df157610d8e6004356002546115a2565b6003548110610d9c57600255005b60405162461bcd60e51b815260206004820152602760248201527f446563726561736520776f756c64206c65617665206d61726b657420756e64656044820152661c999d5b99195960ca1b6064820152608490fd5b60405162461bcd60e51b815260206004820152602860248201527f4f6e6c79204c6971756964697479506f6f6c2063616e206465637265617365206044820152676578706f7375726560c01b6064820152608490fd5b346101be5760003660031901126101be576020600654604051908152f35b346101be5760003660031901126101be576020600d54604051908152f35b346101be576020806003193601126101be576001600160a01b03610ea56114aa565b1660005260158152604060002060405190818382549182815201908192600052846000209060005b86828210610f23578686610ee382880383611567565b604051928392818401908285525180915260408401929160005b828110610f0c57505050500390f35b835185528695509381019392810192600101610efd565b835485529093019260019283019201610ecd565b346101be5760203660031901126101be57610f60600435610f5b60145482106115fe565b611414565b5060018060a01b0381541690610c116001820154916002810154926003820154916004810154600660058301549201549360405197889760ff808860081c1697169560ff808560081c169416928a611456565b346101be5760403660031901126101be57610fcc6114aa565b6001600160a01b03166000908152601560205260409020805460243591908210156101be57602091610ffd916114c0565b90546040519160031b1c8152f35b346101be5760003660031901126101be576012546040516001600160a01b039091168152602090f35b346101be5760003660031901126101be576020600754604051908152f35b346101be5760003660031901126101be5760c0600454600b54600554600c5460065491600d5493604051958652602086015260408501526060840152608083015260a0820152f35b346101be5760003660031901126101be576020600b54604051908152f35b346101be5760003660031901126101be5760018060a01b0360016110e0828254163314611503565b60009182825b611120575b7f5acc3653d085a8a05d8682b132c9d1ffa7976497780b87ebfa5c4569eaa19c82602085604051908152a16020610a6461163b565b60145481101561123b5790816111368493611414565b50600681019081549160ff928381161561115f575b50505050611158906115c7565b90916110e6565b61ffff9691929394959619161790558481015480611182575b808695949361114b565b84601297959492939754168185855416604051809363a9059cbb60e01b8252816000816111b66020998a97600484016115d6565b03925af19081156106885786611158966112076111ee6040948d9c8a98600080516020611c1a8339815191529861121e575b506115f1565b9c6003830154600284015491808260081c169116611ab0565b5416936000825191818352820152a3919286611178565b611234908b3d8d11610681576106738183611567565b50386111e8565b6110eb565b346101be5760203660031901126101be576004356014548110156101be57610f6090611414565b346101be5760003660031901126101be576013546040516001600160a01b039091168152602090f35b346101be5760e03660031901126101be57600080516020611c3a83398151915260606004356112ca60018060a01b03600154163314611503565b8060045560243560055560443560065560643560075560843560085560a43560095560c435600a556040519060008252600160208301526040820152a1600080516020611c3a833981519152606060405160008152600060208201526024356040820152a1600080516020611c3a833981519152606060405160038152600060208201526044356040820152a1600080516020611c3a833981519152606060405160018152600160208201526064356040820152a1600080516020611c3a833981519152606060405160018152600060208201526084356040820152a1600080516020611c3a8339815191526060604051600281526001602082015260a4356040820152a1600080516020611c3a8339815191526060604051600281526000602082015260c4356040820152a1005b346101be5760003660031901126101be576020906003548152f35b6014548110156114335760146000526007602060002091020190600090565b634e487b7160e01b600052603260045260246000fd5b9060048210156104f95752565b9794919361148b919a99969361010098956101208b019c60018060a01b03168b5260208b015260408a01526060890190611449565b1515608087015260a086015260c0850152151560e08401521515910152565b600435906001600160a01b03821682036101be57565b80548210156114335760005260206000200190600090565b6024359081151582036101be57565b9094939260609260808301968352602083015260408201520152565b1561150a57565b60405162461bcd60e51b815260206004820152602f60248201527f4f6e6c7920746865206d61726b657420636f6e74726163742063616e2063616c60448201526e36103a3434b990333ab731ba34b7b760891b6064820152608490fd5b601f909101601f19168101906001600160401b038211908210176104e357604052565b908160209103126101be575180151581036101be5790565b919082039182116106ef57565b9061ff00825491151560081b169061ff001916179055565b60001981146106ef5760010190565b6001600160a01b039091168152602081019190915260400190565b919082018092116106ef57565b1561160557565b60405162461bcd60e51b815260206004820152600e60248201526d125b9d985b1a590818995d08125160921b6044820152606490fd5b601254604080516370a0823160e01b8152306004820152916020906001600160a01b039081168285602481845afa948515611780576000956117a7575b5084906000600b556000600c556000600d556000600e556000600f5560006010556000601155600060035581151560001461178b576116d591849184601354166000885180968195829463095ea7b360e01b8452600484016115d6565b03925af1801561178057611763575b506013541691823b156101be576000809360248351809681936322baaeeb60e11b83528960048401525af1801561175857611733575b600080516020611bfa833981519152925051838152a190565b6001600160401b0383116104e357600080516020611bfa83398151915292815261171a565b50513d6000823e3d90fd5b61177990833d8511610681576106738183611567565b50386116e4565b84513d6000823e3d90fd5b505050600080516020611bfa833981519152915160008152a190565b90948382813d83116117d2575b6117be8183611567565b810103126117cf5750519338611678565b80fd5b503d6117b4565b90600a820291808305600a14901517156106ef57565b600160ff1b81146106ef5760000390565b60038101549190600460ff8416818110156119625780611864575050508281119283611855575b8315611834575b50505090565b11915081611846575b5038808061182e565b60ff915060081c16153861183d565b925060ff8260081c1692611827565b60038195929394951460001461187c57505050501490565b600181969592939496146000146118ed5750600084820394128185128116918513901516176118d85760081c60ff16156118c8576118bc6118c4926117d9565b9201546117ef565b1290565b6118bc6118d4926117d9565b1390565b601182634e487b7160e01b6000525260246000fd5b9194939091600214611903575050505050600090565b611910839160ff936115f1565b9301549360081c161561194a57600a820291808304600a149015171561193557501190565b601190634e487b7160e01b6000525260246000fd5b600a820291808304600a149015171561193557501090565b602182634e487b7160e01b6000525260246000fd5b611983836003546115f1565b60025410611aa85760048110156104f957806119e25750156119c35760045480159182156119b057505090565b6119be919250600b546115f1565b111590565b60055480159182156119d457505090565b6119be919250600c546115f1565b60038103611a0b57505060065480159182156119fd57505090565b6119be919250600d546115f1565b60018103611a57575015611a38576007548015918215611a2a57505090565b6119be919250600e546115f1565b6008548015918215611a4957505090565b6119be919250600f546115f1565b600214611a65575050600090565b15611a89576009548015918215611a7b57505090565b6119be9192506010546115f1565b600a548015918215611a9a57505090565b6119be9192506011546115f1565b505050600090565b611abc836003546115a2565b60035560048110156104f95780611af5575015611ae457611adf90600b546115a2565b600b55565b611af090600c546115a2565b600c55565b60038103611b10575050611b0b90600d546115a2565b600d55565b60018103611b40575015611b2f57611b2a90600e546115a2565b600e55565b611b3b90600f546115a2565b600f55565b600214611b4b575050565b15611b6157611b5c906010546115a2565b601055565b611b6d906011546115a2565b601155565b60048110156104f95780611b9a575015611b905760045490600b5490565b60055490600c5490565b60038103611bae57505060065490600d5490565b60018103611bd0575015611bc65760075490600e5490565b60085490600f5490565b600214611be05750600090600090565b15611bef576009549060105490565b600a54906011549056fe3a17b09fdeffe50add2e5a585692d360db7e9e47a81627894b40203fca500906e730d6310bec1dfc964bdf1e3f75a78c8ef2dee9d092f9ff09253258852ed7d4df92ec8f4fc500c62cb2e5f13c1d523325f9e14e0b1f7d0022bc64ca093ef163a2646970667358221220950573861e0a7f86a15cc8a83840406583b5aab21d4273a2077bf04ddc0c9cb764736f6c63430008130033405787fa12a823e0f2b7631cc41b3ba8828b3321ca811111fa75cd3aa3bb5aceb10e2d527612073b26eecdfd717e6a320cf44b4afac2b0732d9fcbe2b7fa0cf6a2646970667358221220f083c150191bb3df1848c8f00e2b1c66ed86eddc19c88827f38ca643d641ba6764736f6c63430008130033",
  "linkReferences": {},
  "deployedLinkReferences": {}
}