{
  "_format": "hh-sol-artifact-1",
  "contractName": "MarketFactory",
  "sourceName": "contracts/MarketFactory.sol",
  "abi": [
    {
      "inputs": [
        {
          "internalType": "address",
          "name": "_defaultOddsProvider",
          "type": "address"
        },
        {
          "internalType": "address",
          "name": "_defaultResultsProvider",
          "type": "address"
        },
        {
          "internalType": "address",
          "name": "_usdx",
          "type": "address"
        },
        {
          "internalType": "address",
          "name": "_liquidityPool",
          "type": "address"
        }
      ],
      "stateMutability": "nonpayable",
      "type": "constructor"
    },
    {
      "anonymous": false,
      "inputs": [
        {
          "indexed": false,
          "internalType": "address",
          "name": "newAdmin",
          "type": "address"
        }
      ],
      "name": "AdminTransferred",
      "type": "event"
    },
    {
      "anonymous": false,
      "inputs": [
        {
          "indexed": false,
          "internalType": "uint256",
          "name": "newDefaultFunding",
          "type": "uint256"
        }
      ],
      "name": "DefaultMarketFundingChanged",
      "type": "event"
    },
    {
      "anonymous": false,
      "inputs": [
        {
          "indexed": false,
          "internalType": "address",
          "name": "newOddsProvider",
          "type": "address"
        }
      ],
      "name": "DefaultOddsProviderChanged",
      "type": "event"
    },
    {
      "anonymous": false,
      "inputs": [
        {
          "indexed": false,
          "internalType": "address",
          "name": "newResultsProvider",
          "type": "address"
        }
      ],
      "name": "DefaultResultsProviderChanged",
      "type": "event"
    },
    {
      "anonymous": false,
      "inputs": [
        {
          "indexed": false,
          "internalType": "address",
          "name": "marketAddress",
          "type": "address"
        },
        {
          "indexed": false,
          "internalType": "address",
          "name": "oddsContractAddress",
          "type": "address"
        },
        {
          "indexed": false,
          "internalType": "string",
          "name": "homeTeam",
          "type": "string"
        },
        {
          "indexed": false,
          "internalType": "string",
          "name": "awayTeam",
          "type": "string"
        },
        {
          "indexed": false,
          "internalType": "uint256",
          "name": "gameTimestamp",
          "type": "uint256"
        },
        {
          "indexed": false,
          "internalType": "string",
          "name": "oddsApiId",
          "type": "string"
        },
        {
          "indexed": false,
          "internalType": "uint256",
          "name": "funding",
          "type": "uint256"
        }
      ],
      "name": "MarketCreated",
      "type": "event"
    },
    {
      "inputs": [],
      "name": "admin",
      "outputs": [
        {
          "internalType": "address",
          "name": "",
          "type": "address"
        }
      ],
      "stateMutability": "view",
      "type": "function"
    },
    {
      "inputs": [
        {
          "internalType": "string",
          "name": "homeTeam",
          "type": "string"
        },
        {
          "internalType": "string",
          "name": "awayTeam",
          "type": "string"
        },
        {
          "internalType": "uint256",
          "name": "gameTimestamp",
          "type": "uint256"
        },
        {
          "internalType": "string",
          "name": "oddsApiId",
          "type": "string"
        },
        {
          "internalType": "uint256",
          "name": "homeOdds",
          "type": "uint256"
        },
        {
          "internalType": "uint256",
          "name": "awayOdds",
          "type": "uint256"
        },
        {
          "internalType": "uint256",
          "name": "drawOdds",
          "type": "uint256"
        },
        {
          "internalType": "int256",
          "name": "homeSpreadPoints",
          "type": "int256"
        },
        {
          "internalType": "uint256",
          "name": "homeSpreadOdds",
          "type": "uint256"
        },
        {
          "internalType": "uint256",
          "name": "awaySpreadOdds",
          "type": "uint256"
        },
        {
          "internalType": "uint256",
          "name": "totalPoints",
          "type": "uint256"
        },
        {
          "internalType": "uint256",
          "name": "overOdds",
          "type": "uint256"
        },
        {
          "internalType": "uint256",
          "name": "underOdds",
          "type": "uint256"
        },
        {
          "internalType": "uint256",
          "name": "marketFunding",
          "type": "uint256"
        }
      ],
      "name": "createMarket",
      "outputs": [
        {
          "internalType": "address",
          "name": "marketAddress",
          "type": "address"
        },
        {
          "internalType": "address",
          "name": "oddsContractAddress",
          "type": "address"
        }
      ],
      "stateMutability": "nonpayable",
      "type": "function"
    },
    {
      "inputs": [
        {
          "internalType": "string",
          "name": "homeTeam",
          "type": "string"
        },
        {
          "internalType": "string",
          "name": "awayTeam",
          "type": "string"
        },
        {
          "internalType": "uint256",
          "name": "gameTimestamp",
          "type": "uint256"
        },
        {
          "internalType": "string",
          "name": "oddsApiId",
          "type": "string"
        },
        {
          "internalType": "uint256",
          "name": "homeOdds",
          "type": "uint256"
        },
        {
          "internalType": "uint256",
          "name": "awayOdds",
          "type": "uint256"
        },
        {
          "internalType": "uint256",
          "name": "drawOdds",
          "type": "uint256"
        },
        {
          "internalType": "int256",
          "name": "homeSpreadPoints",
          "type": "int256"
        },
        {
          "internalType": "uint256",
          "name": "homeSpreadOdds",
          "type": "uint256"
        },
        {
          "internalType": "uint256",
          "name": "awaySpreadOdds",
          "type": "uint256"
        },
        {
          "internalType": "uint256",
          "name": "totalPoints",
          "type": "uint256"
        },
        {
          "internalType": "uint256",
          "name": "overOdds",
          "type": "uint256"
        },
        {
          "internalType": "uint256",
          "name": "underOdds",
          "type": "uint256"
        },
        {
          "internalType": "address",
          "name": "oddsProvider",
          "type": "address"
        },
        {
          "internalType": "address",
          "name": "resultsProvider",
          "type": "address"
        },
        {
          "internalType": "uint256",
          "name": "marketFunding",
          "type": "uint256"
        }
      ],
      "name": "createMarketWithCustomProviders",
      "outputs": [
        {
          "internalType": "address",
          "name": "marketAddress",
          "type": "address"
        },
        {
          "internalType": "address",
          "name": "oddsContractAddress",
          "type": "address"
        }
      ],
      "stateMutability": "nonpayable",
      "type": "function"
    },
    {
      "inputs": [
        {
          "internalType": "string",
          "name": "homeTeam",
          "type": "string"
        },
        {
          "internalType": "string",
          "name": "awayTeam",
          "type": "string"
        },
        {
          "internalType": "uint256",
          "name": "gameTimestamp",
          "type": "uint256"
        },
        {
          "internalType": "string",
          "name": "oddsApiId",
          "type": "string"
        },
        {
          "internalType": "uint256",
          "name": "marketFunding",
          "type": "uint256"
        }
      ],
      "name": "createMarketWithoutOdds",
      "outputs": [
        {
          "internalType": "address",
          "name": "marketAddress",
          "type": "address"
        },
        {
          "internalType": "address",
          "name": "oddsContractAddress",
          "type": "address"
        }
      ],
      "stateMutability": "nonpayable",
      "type": "function"
    },
    {
      "inputs": [],
      "name": "defaultMarketFunding",
      "outputs": [
        {
          "internalType": "uint256",
          "name": "",
          "type": "uint256"
        }
      ],
      "stateMutability": "view",
      "type": "function"
    },
    {
      "inputs": [],
      "name": "defaultOddsProvider",
      "outputs": [
        {
          "internalType": "address",
          "name": "",
          "type": "address"
        }
      ],
      "stateMutability": "view",
      "type": "function"
    },
    {
      "inputs": [],
      "name": "defaultResultsProvider",
      "outputs": [
        {
          "internalType": "address",
          "name": "",
          "type": "address"
        }
      ],
      "stateMutability": "view",
      "type": "function"
    },
    {
      "inputs": [
        {
          "internalType": "uint256",
          "name": "",
          "type": "uint256"
        }
      ],
      "name": "deployedMarkets",
      "outputs": [
        {
          "internalType": "contract NBAMarket",
          "name": "",
          "type": "address"
        }
      ],
      "stateMutability": "view",
      "type": "function"
    },
    {
      "inputs": [],
      "name": "getDeployedMarkets",
      "outputs": [
        {
          "internalType": "contract NBAMarket[]",
          "name": "",
          "type": "address[]"
        }
      ],
      "stateMutability": "view",
      "type": "function"
    },
    {
      "inputs": [],
      "name": "getDeployedMarketsCount",
      "outputs": [
        {
          "internalType": "uint256",
          "name": "",
          "type": "uint256"
        }
      ],
      "stateMutability": "view",
      "type": "function"
    },
    {
      "inputs": [],
      "name": "liquidityPool",
      "outputs": [
        {
          "internalType": "contract LiquidityPool",
          "name": "",
          "type": "address"
        }
      ],
      "stateMutability": "view",
      "type": "function"
    },
    {
      "inputs": [
        {
          "internalType": "uint256",
          "name": "_newDefaultFunding",
          "type": "uint256"
        }
      ],
      "name": "setDefaultMarketFunding",
      "outputs": [],
      "stateMutability": "nonpayable",
      "type": "function"
    },
    {
      "inputs": [
        {
          "internalType": "address",
          "name": "_newDefaultOddsProvider",
          "type": "address"
        }
      ],
      "name": "setDefaultOddsProvider",
      "outputs": [],
      "stateMutability": "nonpayable",
      "type": "function"
    },
    {
      "inputs": [
        {
          "internalType": "address",
          "name": "_newDefaultResultsProvider",
          "type": "address"
        }
      ],
      "name": "setDefaultResultsProvider",
      "outputs": [],
      "stateMutability": "nonpayable",
      "type": "function"
    },
    {
      "inputs": [
        {
          "internalType": "address",
          "name": "_newAdmin",
          "type": "address"
        }
      ],
      "name": "transferAdmin",
      "outputs": [],
      "stateMutability": "nonpayable",
      "type": "function"
    },
    {
      "inputs": [],
      "name": "usdx",
      "outputs": [
        {
          "internalType": "contract IERC20",
          "name": "",
          "type": "address"
        }
      ],
      "stateMutability": "view",
      "type": "function"
    }
  ],
  "bytecode": "0x6080346100cd57601f62005cd138819003918201601f19168301916001600160401b038311848410176100d2578084926080946040528339810103126100cd57610048816100e8565b610054602083016100e8565b9061006d6060610066604086016100e8565b94016100e8565b90633b9aca0060055560018060a01b0319933385600054161760005560018060a01b03809481809416876001541617600155168560025416176002551683600354161760035516906004541617600455604051615bd49081620000fd8239f35b600080fd5b634e487b7160e01b600052604160045260246000fd5b51906001600160a01b03821682036100cd5756fe60808060405260043610156200001457600080fd5b600090813560e01c9081630967803a1462000e17575080631b0bbbd21462000d6757806327be79341462000d3c578063311176d71462000d1157806341e43e531462000cf15780634b3cb7231462000b08578063559b831514620007b75780635b51eb881462000769578063665a11ca146200073e5780636b2ae18a14620006c657806375829def146200060357806388ea7193146200058b578063b62ca204146200052d578063c1fdcb191462000138578063cb179297146200010d5763f851a44014620000e257600080fd5b346200010a57806003193601126200010a57546040516001600160a01b039091168152602090f35b80fd5b50346200010a57806003193601126200010a576001546040516001600160a01b039091168152602090f35b50346200010a576102003660031901126200010a576001600160401b036004358181116200045e576200017090369060040162000e83565b60243582811162000529576200018b90369060040162000e83565b906064358381116200052557620001a790369060040162000e83565b6101a4356001600160a01b038116900362000520576101c4356001600160a01b038116900362000520576101e43590620001ec60018060a01b03875416331462000f0f565b811562000515575b604051610cb18082019082821088831117620005015782916200024d916200119384396101843590610164359061014435906101243590610104359060e4359060c4359060a43590608435906101a43590309062000f66565b039087f0948515620004f6578654600354600454604051936001600160a01b03938416939182169290911690613d1b850190811190851117620004e2578584938a9593620002c493613d1b62001e4487398b8b6044359960018060a01b0316948b8b6101c435946101a43594613d1b8d0162000ffe565b039088f0968715620004d6576001600160a01b03888116989088163b156200047a57604051637c2430b960e01b8152600481018a90528281602481836001600160a01b038e165af180156200047e57908391620004be575b5050620003299062001088565b60405163c6cb8ce160e01b81526020816004818c5afa9081156200045357829162000489575b506004546001600160a01b039182169116803b156200045e5782809160246040518094819363f2862e6760e01b83528760048401525af180156200047e5790839162000462575b50506004546001600160a01b031690813b156200045e5785620003d3928492836040518096819582946328a6ea5360e01b84526004840162001114565b03925af1801562000453576200043b575b505091620004169160008051602062005b7f83398151915295949360405195869560018060a01b038a168b886200112f565b0390a160405191829162000437916001600160a01b03909116908362000ede565b0390f35b62000447829162000e35565b6200010a5780620003e4565b6040513d84823e3d90fd5b8280fd5b6200046d9062000e35565b6200047a57813862000396565b5080fd5b6040513d85823e3d90fd5b620004af915060203d8111620004b6575b620004a6818362000e5f565b810190620010f3565b386200034f565b503d6200049a565b620004c99062000e35565b6200047a5781386200031c565b604051903d90823e3d90fd5b634e487b7160e01b8a52604160045260248afd5b6040513d88823e3d90fd5b634e487b7160e01b89526041600452602489fd5b6005549150620001f4565b600080fd5b8480fd5b8380fd5b50346200010a5760203660031901126200010a577f9e3bf27471033b48f7c616a97619c5c35a5a32b8d878938a612548f4072354f260206004356200057d60018060a01b03855416331462000f0f565b80600555604051908152a180f35b50346200010a5760203660031901126200010a577f96eb35cb55be4a228e9a3fb2505367378b44cb4b46e8364fec3dc444bcdc4ff76020620005cc62000ef8565b83546001600160a01b039190620005e7908316331462000f0f565b168060018060a01b03196002541617600255604051908152a180f35b50346200010a5760203660031901126200010a576200062162000ef8565b8154906001600160a01b03906200063c338385161462000f0f565b1690811562000682576001600160a01b031916811782556040519081527fe22b4f506b7da9a528a95d7063a6cde8d2b6268773b1f7f65c00057531704a3d90602090a180f35b606460405162461bcd60e51b815260206004820152602060248201527f4e65772061646d696e2063616e6e6f74206265207a65726f20616464726573736044820152fd5b50346200010a5760203660031901126200010a577fa24601f86d312f4bb88d283eacb1905b58b5240fcc8ba3a089883f81716021b560206200070762000ef8565b83546001600160a01b03919062000722908316331462000f0f565b168060018060a01b03196001541617600155604051908152a180f35b50346200010a57806003193601126200010a576004546040516001600160a01b039091168152602090f35b50346200010a5760203660031901126200010a576004356006548110156200047a57600660005260008051602062005b5f83398151915201546040516001600160a01b039091168152602090f35b50346200010a576101c03660031901126200010a576001600160401b03906004358281116200047a57620007f090369060040162000e83565b6024358381116200045e576200080b90369060040162000e83565b9060643584811162000529576200082790369060040162000e83565b83546001600160a01b03946101a435929162000847908716331462000f0f565b821562000afd575b856001541660405190610cb190818301918383108b84111762000ae95791620008ab9184936200119385396101843591610164359161014435916101243591610104359160e4359160c4359160a4359160843591309062000f66565b039082f0801562000ac85786169686825416876001541688600254168960035416918a600454169360405195613d1b90878281011090828901111762000ad5579486959462000915948f93948c958f8f9c9b998e918162001e448d396044359e8f928d0162000ffe565b039082f096871562000ac85780881697893b156200045e57604051637c2430b960e01b8152600481018a90528381602481838f5af1801562000a825790849162000ab0575b5050620009679062001088565b60405163c6cb8ce160e01b81526020816004818c5afa9081156200047e57908291849162000a8d575b5016908060045416803b15620005295783809160246040518094819363f2862e6760e01b83528860048401525af1801562000a825790849162000a6a575b50506004541690813b156200045e578562000a03928492836040518096819582946328a6ea5360e01b84526004840162001114565b03925af18015620004535762000a52575b50509162000a3e9160008051602062005b7f8339815191529594936040519586958a8a886200112f565b0390a1620004376040519283928362000ede565b62000a5e829162000e35565b6200010a578062000a14565b62000a759062000e35565b6200045e578238620009ce565b6040513d86823e3d90fd5b62000aa9915060203d8111620004b657620004a6818362000e5f565b3862000990565b62000abb9062000e35565b6200045e5782386200095a565b50604051903d90823e3d90fd5b634e487b7160e01b88526041600452602488fd5b634e487b7160e01b85526041600452602485fd5b60055492506200084f565b50346200010a5760a03660031901126200010a576001600160401b03906004358281116200047a5762000b4090369060040162000e83565b6024358381116200045e5762000b5b90369060040162000e83565b90606435848111620005295762000b7790369060040162000e83565b83546001600160a01b0394608435929162000ba1908716331462000b9b8162000f0f565b62000f0f565b821562000ce6575b856001541660405190610cb190818301918383108b84111762000ae9579183916101609362001193843930825260208201528460408201528460608201528460808201528460a08201528460c08201528460e082015284610100820152846101208201528461014082015203019082f0801562000ac85786169686825416876001541688600254168960035416918a600454169360405195613d1b90878281011090828901111762000ad5579486959462000c7f948f93948c958f8f9c9b998e918162001e448d396044359e8f928d0162000ffe565b039082f096871562000ac85780881697893b156200045e57604051637c2430b960e01b8152600481018a90528381602481838f5af1801562000a825762000ccd575b50620009679062001088565b9262000cde62000967929462000e35565b929062000cc1565b600554925062000ba9565b50346200010a57806003193601126200010a576020600554604051908152f35b50346200010a57806003193601126200010a576003546040516001600160a01b039091168152602090f35b50346200010a57806003193601126200010a576002546040516001600160a01b039091168152602090f35b50346200010a57806003193601126200010a57604051809160065490818352602080930180926006835284832090835b81811062000df9575050508462000db091038562000e5f565b60405193838594850191818652518092526040850193925b82811062000dd857505050500390f35b83516001600160a01b03168552869550938101939281019260010162000dc8565b82546001600160a01b03168452928601926001928301920162000d97565b9050346200047a57816003193601126200047a576020906006548152f35b6001600160401b03811162000e4957604052565b634e487b7160e01b600052604160045260246000fd5b601f909101601f19168101906001600160401b0382119082101762000e4957604052565b81601f8201121562000520578035906001600160401b03821162000e49576040519262000ebb601f8401601f19166020018562000e5f565b828452602083830101116200052057816000926020809301838601378301015290565b6001600160a01b0391821681529116602082015260400190565b600435906001600160a01b03821682036200052057565b1562000f1757565b60405162461bcd60e51b815260206004820152602160248201527f4f6e6c792061646d696e2063616e2063616c6c20746869732066756e6374696f6044820152603760f91b6064820152608490fd5b9794919b9a99969390926101409996936101608a019d60018060a01b038092168b521660208a015260408901526060880152608087015260a086015260c085015260e08401526101008301526101208201520152565b919082519283825260005b84811062000fe9575050826000602080949584010152601f8019910116010190565b60208183018101518483018201520162000fc7565b979b9a999594929093620010386200104c93620010296101409c978c6101608091528d019062000fbc565b908b820360208d015262000fbc565b9160408a015288820360608a015262000fbc565b6001600160a01b03918216608088015292811660a087015293841660c086015297831660e0850152968216610100840152166101208201520152565b600654600160401b81101562000e49576001810180600655811015620010dd57600660005260008051602062005b5f8339815191520180546001600160a01b0319166001600160a01b03909216919091179055565b634e487b7160e01b600052603260045260246000fd5b908160209103126200052057516001600160a01b0381168103620005205790565b6001600160a01b039091168152602081019190915260400190565b97969591936200116a60c0969462001179936200118d9760018060a01b038092168d521660208c015260e060408c015260e08b019062000fbc565b9089820360608b015262000fbc565b91608088015286820360a088015262000fbc565b93015256fe60803461024357601f610cb138819003918201601f191683019291906001600160401b03841183851017610248578161016092849260409687528339810103126102435761004c8161025e565b6100586020830161025e565b918381015160608201519260808301519260a08101519060c08101519160e0820151610100938484015192610120986101408a8701519601519760015460ff19600b54169182600b5560018060a01b038091169e8f156101ee571690811561019f578e60018060a01b0319600054161760005560018060a81b03191617600155896002558b60035581600455826005558360065584600755856008558660095588600a556103e8808b10159081610194575b50610188575b5060ff600b541661012a575b8c51610a3e90816102738239f35b7ff8f307e03bac9d16c97daf718b85c0ac1e705bc96da176f0d33459faa138d6fc9a8d51998a5260208a01528c8901526060880152608087015260a086015260c085015260e0840152820152a238808080808080808080808061011c565b600117600b5538610110565b90508c10153861010a565b508e5162461bcd60e51b815260206004820152602160248201527f4d61726b65744f6464733a20496e76616c6964206f6464732070726f766964656044820152603960f91b6064820152608490fd5b50508e5162461bcd60e51b815260206004820152602660248201527f4d61726b65744f6464733a20496e76616c696420636f6e74726f6c6c696e67206044820152651b585c9ad95d60d21b6064820152608490fd5b600080fd5b634e487b7160e01b600052604160045260246000fd5b51906001600160a01b03821682036102435756fe608060408181526004908136101561001657600080fd5b600092833560e01c90816319e26f4b14610926575080631b019673146109085780632eb4342e146108e457806336d1e69b146108b95780633cc4c0e11461089a578063567142be1461087b57806359353612146107cd57806367b952ab146107ae57806368ee86341461077e5780636c90a37e146107575780637ba029391461072e5780637c2430b9146106085780638ceec93f146105e9578063999552d014610281578063a9565ac714610259578063b3f959691461023a578063b762b14114610209578063c68e052c146101ea578063dce4a3b0146101cb578063f50a81bf146101a85763f7b002c41461010b57600080fd5b346101a457826003193601126101a45782546001600160a01b03163303610143576001805460ff60a01b1916600160a01b1790558280f35b906020608492519162461bcd60e51b8352820152603560248201527f4d61726b65744f6464733a204f6e6c792074686520636f6e74726f6c6c696e67604482015274206d61726b65742063616e2063616c6c207468697360581b6064820152fd5b8280fd5b8382346101c757816003193601126101c7576020906007549051908152f35b5080fd5b8382346101c757816003193601126101c7576020906006549051908152f35b8382346101c757816003193601126101c7576020906003549051908152f35b50823461023757806003193601126102375750610233600254916003549354905193849384610991565b0390f35b80fd5b8382346101c757816003193601126101c7576020906002549051908152f35b8382346101c757816003193601126101c757905490516001600160a01b039091168152602090f35b5090346101a4576101203660031901126101a4576001546001600160a01b039060ff906102b133848316146109a7565b60a01c1661058a578135906103e8808310158061057e575b1561052f5760443580158015610525575b156104cc576084358015806104c2575b80156104ab575b156104505760e4359283159081610444575b8115610423575b50156103c957918493916103c3937ff8f307e03bac9d16c97daf718b85c0ac1e705bc96da176f0d33459faa138d6fc97966002558160243597886003555560643590816005558060065560a435918260075560c435938460085585600955610104359687600a55600160ff19600b541617600b558d54169b51998a998a95926101009794919a9998959261012088019b8852602088015260408701526060860152608085015260a084015260c083015260e08201520152565b0390a280f35b865162461bcd60e51b8152602081880152602e60248201527f4d61726b65744f6464733a20546f74616c206f646473206d757374206265203e60448201526d0f480c4b8c0c0c081a59881cd95d60921b6064820152608490fd5b80851015915081610436575b503861030a565b90506101043510153861042f565b61010435159150610303565b865162461bcd60e51b8152602081880152602f60248201527f4d61726b65744f6464733a20537072656164206f646473206d7573742062652060448201526e0f8f480c4b8c0c0c081a59881cd95d608a1b6064820152608490fd5b508281101580156102f157508260a43510156102f1565b5060a435156102ea565b855162461bcd60e51b8152602081870152602d60248201527f4d61726b65744f6464733a2044726177206f646473206d757374206265203e3d60448201526c080c4b8c0c0c081a59881cd95d609a1b6064820152608490fd5b50818110156102da565b845162461bcd60e51b81526020818601526024808201527f4d61726b65744f6464733a204d4c206f646473206d757374206265203e3d203160448201526302e3030360e41b6064820152608490fd5b508060243510156102c9565b506020608492519162461bcd60e51b8352820152603360248201527f4d61726b65744f6464733a2043616e6e6f7420757064617465206f6464732061604482015272199d195c881b585c9ad95d081cdd185c9d1959606a1b6064820152fd5b8382346101c757816003193601126101c7576020906005549051908152f35b50346101a45760203660031901126101a4576001600160a01b0382358181169391929084900361072a5784549283168015908115610720575b50156106ad57831561065f5750506001600160a01b03191617815580f35b906020608492519162461bcd60e51b8352820152602260248201527f4d61726b65744f6464733a20496e76616c6964206d61726b6574206164647265604482015261737360f01b6064820152fd5b90602060a492519162461bcd60e51b8352820152604160248201527f4d61726b65744f6464733a20436f6e74726f6c6c696e67206d61726b6574206160448201527f6c726561647920736574206f7220756e617574686f72697a65642063616c6c656064820152603960f91b6084820152fd5b9050331438610641565b8480fd5b8382346101c757816003193601126101c75760015490516001600160a01b039091168152602090f35b8382346101c757816003193601126101c75760209060ff60015460a01c1690519015158152f35b8382346101c757816003193601126101c75760609060055490600654906007549181519384526020840152820152f35b8382346101c757816003193601126101c757602090600a549051908152f35b50346101a45760203660031901126101a4576001600160a01b0382358181169391929084900361072a5761080760015493841633146109a7565b83156108205750506001600160a01b0319161760015580f35b906020608492519162461bcd60e51b8352820152602f60248201527f4d61726b65744f6464733a204e65772070726f76696465722063616e6e6f742060448201526e6265207a65726f206164647265737360881b6064820152fd5b8382346101c757816003193601126101c7576020906008549051908152f35b8382346101c757816003193601126101c7576020906009549051908152f35b5082346102375780600319360112610237575060085461023360095492600a54905193849384610991565b8382346101c757816003193601126101c75760209060ff600b541690519015158152f35b5090346101a457826003193601126101a45760209250549051908152f35b838534610237578060031936011261023757506002546003549154600554600654600754600854600954600a54968952602089019790975260408801949094526060870192909252608086015260a085015260c084015260e083019190915261010082015261012090f35b6040919493926060820195825260208201520152565b156109ae57565b60405162461bcd60e51b815260206004820152602c60248201527f4d61726b65744f6464733a204f6e6c79206f6464732070726f7669646572206360448201526b616e2063616c6c207468697360a01b6064820152608490fdfea26469706673582212208ae8242c3205632926c8010bb50c5ef5e4421930b337d70e8c1762be172b463164736f6c6343000813003360808060405234620004655762003d1b80380380916200002082856200076b565b8339810161016082820312620004655781516001600160401b0381116200046557816200004f9184016200078f565b60208301516001600160401b038111620004655782620000719185016200078f565b6040840151606085015190939192916001600160401b03821162000465576200009c9186016200078f565b93620000ab6080820162000806565b620000b960a0830162000806565b91620000c860c0820162000806565b620000d660e0830162000806565b96620000e6610100840162000806565b96610140620000f9610120860162000806565b9401516001600055875190976001600160401b038211620004065760015490600182811c9216801562000760575b60208310146200055e5781601f849311620006ff575b50602090601f8311600114620006815760009262000675575b50508160011b916000199060031b1c1916176001555b8051906001600160401b038211620004065760025490600182811c921680156200066a575b60208310146200055e5781601f84931162000609575b50602090601f83116001146200058b576000926200057f575b50508160011b916000199060031b1c1916176002555b60035587516001600160401b0381116200040657600454600181811c9116801562000574575b60208210146200055e57601f8111620004f4575b506020601f82116001146200047f579080602094939260049b60009262000473575b50508160011b916000199060031b1c19161789555b600e8054610100600160a81b03198116600887901b610100600160a81b031617909155600f80546001600160a01b03199081166001600160a01b0398891617909155601080548216938816939093179092556011805483169387169384179055601280548316998716998a1790556013805490921697909516968717905560405163175a1a1760e11b815297959695889182905afa958615620003fa576000966200042a575b50600b805462ff0000191680825590966200041c575b50855461ffff191686556001600160a81b031990911660089190911b610100600160a81b031617600e55604051926113dd91828501916001600160401b0383118684101762000406576080948694620028fe86393084526020840152604083015260608201520301906000f0908115620003fa57601480546001600160a01b0319166001600160a01b0390931692909217909155546040519060101c60ff166005811015620003e457816020917fb786c19cad4ec6fc2aeb481fb6b1473feb22fe8caf8abfcb7702a077e98845e49352a16040516120e290816200081c8239f35b634e487b7160e01b600052602160045260246000fd5b6040513d6000823e3d90fd5b634e487b7160e01b600052604160045260246000fd5b620100001786553862000303565b9095506020813d6020116200046a575b8162000449602093836200076b565b81010312620004655751801515810362000465579438620002ed565b600080fd5b3d91506200043a565b01519050388062000232565b600460005260206000209960005b601f1984168110620004db57509160049a600192602096959483601f19811610620004c1575b505050811b01895562000247565b015160001960f88460031b161c19169055388080620004b3565b828201518c556001909b019a602092830192016200048d565b60046000527f8a35acfbc15ff81a39ae7d344fd709f28e8600b4aa8c65c6b64bfe7fe36bd19b601f830160051c8101916020841062000553575b601f0160051c01905b81811062000546575062000210565b6000815560010162000537565b90915081906200052e565b634e487b7160e01b600052602260045260246000fd5b90607f1690620001fc565b015190503880620001c0565b60026000908152935060008051602062003cdb83398151915291905b601f1984168510620005ed576001945083601f19811610620005d3575b505050811b01600255620001d6565b015160001960f88460031b161c19169055388080620005c4565b81810151835560209485019460019093019290910190620005a7565b600260005290915060008051602062003cdb833981519152601f840160051c81016020851062000662575b90849392915b601f830160051c8201811062000652575050620001a7565b600081558594506001016200063a565b508062000634565b91607f169162000191565b01519050388062000156565b60016000908152935060008051602062003cfb83398151915291905b601f1984168510620006e3576001945083601f19811610620006c9575b505050811b016001556200016c565b015160001960f88460031b161c19169055388080620006ba565b818101518355602094850194600190930192909101906200069d565b600160005290915060008051602062003cfb833981519152601f840160051c81016020851062000758575b90849392915b601f830160051c82018110620007485750506200013d565b6000815585945060010162000730565b50806200072a565b91607f169162000127565b601f909101601f19168101906001600160401b038211908210176200040657604052565b919080601f8401121562000465578251906001600160401b038211620004065760405191602091620007cb601f8301601f19168401856200076b565b818452828287010111620004655760005b818110620007f257508260009394955001015290565b8581018301518482018401528201620007dc565b51906001600160a01b0382168203620004655756fe608060408181526004918236101561001657600080fd5b60009260e08435811c92836306705b2d14611c415750826306fe876614611ae057826319e26f4b146119d85782632f6fe396146119b0578263310efb481461176d578263311176d71461174357826336d1e69b146117125782633cc4c0e1146116f25782633df2967e146115a3578263479eaf251461144f5782634e69d56014611424578263567142be1461140457826359353612146113b45782635e123ce41461138f578263665a11ca1461136557826367b952ab1461134557826368ee8634146113145782636bfefd6b146111915782636c81ea0a146111675782636db5fc9c146111475782637ba029391461111d5782637d79c192146110fe57826380327bbb146110ae5782638ceec93f1461108e57826390065d5f14610fe557508163a72f37cd14610fc7578163a780459d14610d06578163ae989d3614610cd1578163bd02de1b14610c8b578163beda201414610c67578163c1aa6b9f14610b7e578163c6cb8ce114610b55578163d38d963914610b36578163d65ab5f21461091f57838263da4cdb231461089c57508163dce4a3b01461087d578163e0e081d714610851578163e7ea03ba14610828578163f034836e146107ff578163f43a6eac1461024457508063f50a81bf146102265763f851a440146101f757600080fd5b34610222578160031936011261022257600e54905160089190911c6001600160a01b03168152602090f35b5080fd5b50346102225781600319360112610222576020906007549051908152f35b919050346107fb576060806003193601126107f757823592808410156107f357602491823594604491823591821515908184036107ef5760028a54146107ae5760028a5560ff600b5460101c16600581101561079c5760010361075d578815610723576011546001600160a01b039081169490938b916102c5871515611f11565b88839785156000146104835783908d519283809263b762b14160e01b82525afa928315610479578493610444575b50508215158061043b575b156103ec57156103e557505b925b6103e884106103aa579260c4959261034b6020999896938d9660145416958c519d8e9b8c9a636f420a5b60e11b8c5233908c01528a0152880190611c5d565b6064860152608485015260a48401525af19081156103a15750610371575b506001815580f35b602090813d811161039a575b6103878183611cb6565b810103126103955738610369565b600080fd5b503d61037d565b513d84823e3d90fd5b885162461bcd60e51b81526020818901526017818a01527614d95b1958dd1959081bd9191cc81b9bdd081d985b1a59604a1b81880152606490fd5b905061030a565b50895162461bcd60e51b81526020818a0152808a018a90527f4d6f6e65796c696e65206f646473206e6f742073657420696e204d61726b657481890152634f64647360e01b6064820152608490fd5b508115156102fe565b80919294506104689350903d10610472575b6104608183611cb6565b81019061201b565b50909138806102f3565b503d610456565b8c513d86823e3d90fd5b92939092916003860361052d57505082908b519283809263b762b14160e01b82525afa918215610523578c92610503575b505080156104c2579261030c565b885162461bcd60e51b8152602081890152601f818a01527f44726177206f646473206e6f742073657420696e204d61726b65744f6464730081880152606490fd5b6105199250803d10610472576104608183611cb6565b91505038806104b4565b8a513d8e823e3d90fd5b969750929590869060018603610627578c51631a3ba18d60e21b815293849182905afa91821561061d57839684936105db575b5050821515806105d2575b15610585571561057e57505b929361030c565b9050610577565b5050885162461bcd60e51b81526020818901526021818a01527f537072656164206f646473206e6f742073657420696e204d61726b65744f646481880152607360f81b6064820152608490fd5b5081151561056b565b92509550915084813d8311610616575b6105f58183611cb6565b810103126106125783516020850151948a01519094913880610560565b8a80fd5b503d6105eb565b8b513d85823e3d90fd5b9250509150600283146000146106ee578b918589928c51938480926336d1e69b60e01b82525afa91821561061d57839684936106c7575b5050821515806106be575b1561067b571561057e5750929361030c565b5050885162461bcd60e51b81526020818901819052818a01527f546f74616c206f646473206e6f742073657420696e204d61726b65744f64647381880152606490fd5b50811515610669565b91965091506106e29250803d10610472576104608183611cb6565b9194909190388061065e565b50885162461bcd60e51b81526020818901526010818a01526f496e76616c696420626574207479706560801b81880152606490fd5b875162461bcd60e51b815260208188015260168189015275042657420616d6f756e74206d757374206265203e20360541b81870152606490fd5b875162461bcd60e51b8152602081880152601b818901527a4d61726b6574206e6f74206f70656e20666f722062657474696e6760281b81870152606490fd5b634e487b7160e01b8b5260218752878bfd5b875162461bcd60e51b8152602081880152601f818901527f5265656e7472616e637947756172643a207265656e7472616e742063616c6c0081870152606490fd5b8980fd5b8480fd5b8380fd5b8280fd5b50503461022257816003193601126102225760115490516001600160a01b039091168152602090f35b50503461022257816003193601126102225760105490516001600160a01b039091168152602090f35b50503461022257816003193601126102225760209061087b60ff600b5460101c1691518092611c80565bf35b5050346102225781600319360112610222576020906006549051908152f35b8091843461091b57602036600319011261091b5760018060a01b036108c981600e5460081c163314612036565b6014541691823b15610916578392602484928451958693849263da4cdb2360e01b84528035908401525af19081156103a157506109035750f35b61090c90611c8d565b6109135780f35b80fd5b505050fd5b5050fd5b839150346102225781600319360112610222576010546001600160a01b03919061094c9083163314611f55565b600b549160ff8360101c166005811015610b23578015908115610b18575b5015610adc576011541690610980821515611f11565b845163175a1a1760e11b81526020939084818481875afa908115610ad2578691610a99575b5015610a485762ff00ff19166202000117600b55813b156107f7578451633dec00b160e21b81529184918391829084905af1610a29575b5060008051602061208d8339815191529192517f762f260439bb4be3ef6e4dc2786e2e7bd187d3d80b79057d7a424fe98563e3358480a1610a258160ff600b5460101c16611c80565ba180f35b91610a4260008051602061208d83398151915293611c8d565b916109dc565b855162461bcd60e51b8152808301859052602560248201527f43616e6e6f742073746172742067616d65206265666f7265206f64647320617260448201526419481cd95d60da1b6064820152608490fd5b90508481813d8311610acb575b610ab08183611cb6565b81010312610ac757610ac190611fb6565b876109a5565b8580fd5b503d610aa6565b87513d88823e3d90fd5b845162461bcd60e51b8152602081840152601660248201527513585c9ad95d08185b1c9958591e481cdd185c9d195960521b6044820152606490fd5b60019150148661096a565b634e487b7160e01b855260218352602485fd5b505034610222578160031936011261022257602090600d549051908152f35b50503461022257816003193601126102225760145490516001600160a01b039091168152602090f35b9050823461091357806003193601126109135760145483516304f0d71560e51b8152926020916001600160a01b031682858381845afa948515610c5d578495610c2e575b5082908651928380926315ef6c7b60e01b82525afa928315610c23578093610bf1575b50508351928352820152f35b909180935082813d8311610c1c575b610c0a8183611cb6565b81010312610913575051908480610be5565b503d610c00565b8551903d90823e3d90fd5b9094508281813d8311610c56575b610c468183611cb6565b810103126107f757519382610bc2565b503d610c3c565b86513d86823e3d90fd5b50503461022257816003193601126102225760209060ff600e541690519015158152f35b9050823461091357806003193601126109135760ff600b5460101c16916005831015610cbe576020836001865191148152f35b634e487b7160e01b825260219052602490fd5b505034610222578160031936011261022257610d0290610cef611da7565b9051918291602083526020830190611ed1565b0390f35b8391503461022257816003193601126102225760018060a01b03610d3281600e5460081c163314612036565b80600f54163303610f7257600b549060ff8260101c166005811015610f5f57610f0c5760115416918215610ec9578451809363175a1a1760e11b8252818360209687935afa908115610ebf578591610e8a575b5015610e2c57600354421015610dca5750610a2560008051602061208d83398151915293946201000060ff9362ff00001916179081600b555192839160101c16611c80565b845162461bcd60e51b8152908101839052603660248201527f4e42414d61726b65743a2047616d652068617320616c726561647920737461726044820152750746564206261736564206f6e2074696d657374616d760541b6064820152608490fd5b845162461bcd60e51b8152908101839052603260248201527f4e42414d61726b65743a204f646473206e6f74207965742073657420696e204d604482015271185c9ad95d13d9191cc818dbdb9d1c9858dd60721b6064820152608490fd5b90508381813d8311610eb8575b610ea18183611cb6565b810103126107f357610eb290611fb6565b86610d85565b503d610e97565b86513d87823e3d90fd5b606490602086519162461bcd60e51b8352820152602060248201527f4e42414d61726b65743a204f64647320636f6e7472616374206e6f74207365746044820152fd5b845162461bcd60e51b8152602081850152602760248201527f4e42414d61726b65743a204d61726b6574206e6f7420696e2050454e44494e476044820152662073746174757360c81b6064820152608490fd5b634e487b7160e01b855260218452602485fd5b835162461bcd60e51b8152602081840152602960248201527f4f6e6c79206f6464732070726f76696465722063616e2063616c6c207468697360448201526810333ab731ba34b7b760b91b6064820152608490fd5b505034610222578160031936011261022257610d0290610cef611e3a565b915050346107fb57826003193601126107fb5761105192506003549160ff600b5460101c169160ff600e5416600c549061107b611070600d5495611027611da7565b98611030611cd9565b9061105f61103c611e3a565b9284519d8e9d8e610100908181520190611ed1565b8d810360208f015290611ed1565b928b015289820360608b0152611ed1565b956080880190611c80565b151560a086015260c08501528301520390f35b505050346102225781600319360112610222576020906005549051908152f35b84823461022257602036600319011261022257356001600160a01b03818116918290036107fb576110e790600e5460081c163314612036565b601080546001600160a01b03191691909117905580f35b50505034610222578160031936011261022257610d0290610cef611cd9565b50505034610222578160031936011261022257600f5490516001600160a01b039091168152602090f35b50505034610222578160031936011261022257602090600c549051908152f35b5050503461022257816003193601126102225760115490516001600160a01b039091168152602090f35b509050346107fb57826003193601126107fb5760018060a01b036111bd81600e5460081c163314612036565b600b5460ff8160101c16600581101580611301576003821415806112f4575b6111e590611fc3565b6112e1576002146112845762ffff0019166204010017600b5560145483516308c678f760e21b815292602092849283918891165af180156112785761124d575b50602060008051602061208d83398151915291610a2560ff600b5460101c1691518092611c80565b602090813d8111611271575b6112638183611cb6565b810103126102225738611225565b503d611259565b505051903d90823e3d90fd5b835162461bcd60e51b8152602081850152603160248201527f43616e6e6f742063616e63656c2061667465722067616d65207374617274656460448201527020756e6c65737320656d657267656e637960781b6064820152608490fd5b634e487b7160e01b865260218452602486fd5b50869050818514156111dc565b634e487b7160e01b875260218552602487fd5b5050503461022257816003193601126102225760609060055490600654906007549181519384526020840152820152f35b50505034610222578160031936011261022257602090600a549051908152f35b5050503461022257816003193601126102225760135490516001600160a01b039091168152602090f35b5050503461022257816003193601126102225760209060ff600b541690519015158152f35b84823461022257602036600319011261022257356001600160a01b03818116918290036107fb576113ed90600e5460081c163314612036565b600f80546001600160a01b03191691909117905580f35b505050346102225781600319360112610222576020906008549051908152f35b5050503461022257816003193601126102225760209061087b60ff600b5460101c1691518092611c80565b848285346107fb576020806003193601126107f7576001600160a01b038335818116918691839003610222576014541691602485518094819363479eaf2560e01b8352898301525afa9384156115995785946114e8575b5050815181815283518183018190529094859493850193830192905b8281106114d157505050500390f35b8351855286955093810193928101926001016114c2565b909193503d8086843e6114fb8184611cb6565b8201908483830312610ac75782516001600160401b039384821161159557019082601f8301121561157e57815193841161158257508260051b9084519361154487840186611cb6565b8452858085019282010192831161157e5785809101915b83831061156e57505050509184806114a6565b825181529181019186910161155b565b8680fd5b634e487b7160e01b875260419052602486fd5b8780fd5b83513d87823e3d90fd5b84849134610222576020366003190112610222576014548351631ef94b3f60e11b8152853586820152610120956001600160a01b03949287908390602490829089165afa9485156116e85783968490859086928794889689988a809d611646575b505083519c9091168c525060208b0152890152611625906060890190611c5d565b1515608087015260a086015260c08501521515908301521515610100820152f35b985098509b5099505095505050508682813d83116116e1575b6116698183611cb6565b810103126109135781519285841684036102225760208301519681840151926060850151918210156109135750611625906116a660808601611fb6565b9060a08601519360c0870151956116cb6101006116c48c8b01611fb6565b9901611fb6565b989b909293959697989a90919293948e80611604565b503d61165f565b86513d85823e3d90fd5b505050346102225781600319360112610222576020906009549051908152f35b505050346102225781600319360112610222576060906008549060095490600a549181519384526020840152820152f35b5050503461022257816003193601126102225760125490516001600160a01b039091168152602090f35b508383346102225780600319360112610222576010546024906001600160a01b03908535908335906117a29084163314611f55565b600b5460ff8160101c1660058110158061199e57600382141580611991575b6117ca90611fc3565b61197f5760020361191b57600e5460ff81166118cf5796604492610100829a9360018a9b88600c5584600d5560ff191617600e5561ff00191617600b558751958587527fd49e6bd1813fbfe286dc118bb4079a0c5f53c4c9228645a6459e0d74d00dc50f60209988848c809b0152a160145416908951978896879563bddf3c8560e01b87528601528401525af180156118c257611898575b5060ff610a2560008051602061208d833981519152936203000062ff000019600b5416179081600b555192839160101c16611c80565b8190813d83116118bb575b6118ad8183611cb6565b810103126107fb5783611862565b503d6118a3565b50505051903d90823e3d90fd5b865162461bcd60e51b81526020818b01526021818801527f4e42414d61726b65743a20526573756c7420616c726561647920736574746c656044820152601960fa1b6064820152608490fd5b855162461bcd60e51b81526020818a01526039818701527f4e42414d61726b65743a204d61726b6574206d75737420626520696e2053544160448201527814951151081cdd185d1d5cc81d1bc81cd95d081c995cdd5b1d603a1b6064820152608490fd5b634e487b7160e01b8852602189528588fd5b50889050818a14156117c1565b634e487b7160e01b895260218a528689fd5b5050503461022257816003193601126102225760209060ff600b5460081c1690519015158152f35b838286346109135780600319360112610913576011546001600160a01b031693611a03851515611f11565b8351948580946319e26f4b60e01b82526101209788935afa928315611ad6578294839084859086928794889689809b611a65575b505081519a8b5260208b01528901526060880152608087015260a086015260c0850152830152610100820152f35b9899509a5050975050505050508484813d8311611acf575b611a878183611cb6565b81010312610913575082519060208401519383810151936060820151608083015160a08401519160c08501519361010087870151960151979998919293949597988c80611a37565b503d611a7d565b84513d84823e3d90fd5b509050346107fb57826003193601126107fb57600e546001600160a01b039060ff90611b1333600883901c851614612036565b1615611bea5760ff600b5460101c166005811015610b235790611b468284600360209514159182611bdf575b5050611fc3565b60145416916044600c549186600d54958751968795869463bddf3c8560e01b865285015260248401525af1801561127857611bb4575b50602060ff610a2560008051602061208d833981519152936203000062ff000019600b5416179081600b555192839160101c16611c80565b602090813d8111611bd8575b611bca8183611cb6565b810103126102225738611b7c565b503d611bc0565b141590508438611b3f565b506020608492519162461bcd60e51b8352820152602b60248201527f53636f726573206d7573742062652073657420666f7220656d657267656e637960448201526a081cd95d1d1b195b595b9d60aa1b6064820152fd5b8590346102225781600319360112610222576020906003548152f35b906004821015611c6a5752565b634e487b7160e01b600052602160045260246000fd5b906005821015611c6a5752565b6001600160401b038111611ca057604052565b634e487b7160e01b600052604160045260246000fd5b601f909101601f19168101906001600160401b03821190821017611ca057604052565b60405190600060025490600182811c90808416938415611d9d575b6020948584108114611d895783885287949392918115611d695750600114611d27575b5050611d2592500383611cb6565b565b90939150600260005281600020936000915b818310611d51575050611d2593508201013880611d17565b85548884018501529485019487945091830191611d39565b915050611d2594925060ff191682840152151560051b8201013880611d17565b634e487b7160e01b85526022600452602485fd5b91607f1691611cf4565b60405190600060019081549182811c90808416938415611e30575b6020948584108114611d895783885287949392918115611d695750600114611df2575050611d2592500383611cb6565b600081815285812095935091905b818310611e18575050611d2593508201013880611d17565b85548884018501529485019487945091830191611e00565b91607f1691611dc2565b60405190600060045490600182811c90808416938415611ec7575b6020948584108114611d895783885287949392918115611d695750600114611e85575050611d2592500383611cb6565b90939150600460005281600020936000915b818310611eaf575050611d2593508201013880611d17565b85548884018501529485019487945091830191611e97565b91607f1691611e55565b919082519283825260005b848110611efd575050826000602080949584010152601f8019910116010190565b602081830181015184830182015201611edc565b15611f1857565b60405162461bcd60e51b815260206004820152601560248201527413d9191cc818dbdb9d1c9858dd081b9bdd081cd95d605a1b6044820152606490fd5b15611f5c57565b60405162461bcd60e51b815260206004820152602c60248201527f4f6e6c7920726573756c74732070726f76696465722063616e2063616c6c207460448201526b3434b990333ab731ba34b7b760a11b6064820152608490fd5b5190811515820361039557565b15611fca57565b60405162461bcd60e51b815260206004820152602360248201527f4d61726b657420616c726561647920736574746c6564206f722063616e63656c6044820152621b195960ea1b6064820152608490fd5b90816060910312610395578051916040602083015192015190565b1561203d57565b60405162461bcd60e51b815260206004820152602160248201527f4f6e6c792061646d696e2063616e2063616c6c20746869732066756e6374696f6044820152603760f91b6064820152608490fdfeb786c19cad4ec6fc2aeb481fb6b1473feb22fe8caf8abfcb7702a077e98845e4a26469706673582212209ad994b9280d0ee6e7ea445fbc73943b1b168c4885c0dcd8e0fdae1709ee514e64736f6c6343000813003360803461019757601f620013dd38819003918201601f191683019291906001600160401b0384118385101761019c5781608092849260409687528339810103126101975761004c816101b2565b90610059602082016101b2565b60606100668584016101b2565b9201516001600055926001600160a01b0390811691821561015357811692831561010f57169182156100cb5760018060a01b03199182600354161760035581600154161760015560025416176002556006556000600755516112169081620001c78239f35b845162461bcd60e51b815260206004820152601d60248201527f496e76616c6964204c6971756964697479506f6f6c20616464726573730000006044820152606490fd5b855162461bcd60e51b815260206004820152601460248201527f496e76616c6964205553445820616464726573730000000000000000000000006044820152606490fd5b855162461bcd60e51b815260206004820152601660248201527f496e76616c6964206d61726b65742061646472657373000000000000000000006044820152606490fd5b600080fd5b634e487b7160e01b600052604160045260246000fd5b51906001600160a01b03821682036101975756fe608080604052600436101561001357600080fd5b60003560e01c90816315ef6c7b14610c745750806322af00fa14610c4d5780632319e3dc14610aed578063311176d714610ac45780633cc6666714610a6c5780633df2967e146109ec578063479eaf2514610938578063665a11ca1461090f57806395623641146108e65780639e1ae2a0146108c8578063bddf3c8514610743578063ce21edd8146106a8578063da4cdb23146105fa5763de8414b6146100b957600080fd5b346105f55760c03660031901126105f5576100d2610d25565b600460443510156105f55760643580151581036105f5576100fe60018060a01b03600354163314610d53565b6002600054146105b057600260005560243515610572576103e88060843510610535576084356024350260243581046084350361051f57610143916024359104610db7565b9061015082600754610dc4565b600654106104a4576001546040516323b872dd60e01b81526001600160a01b03858116600483015230602480840191909152356044830152909160209183916064918391600091165af190811561049857600091610469575b50156103e7576101bb82600754610dc4565b60075560045460405190929061012081016001600160401b038111828210176103a55760409081526001600160a01b03861682526024356020830190815290820183815260443560608401908152851515608085015260a43560a085015260843560c0850152600060e0850181905261010085015290600160401b8710156103a5576001870160045561024d87610c8f565b9390936103d157845184546001600160a01b0319166001600160a01b0391909116178455516001840155516002830155519060048210156103bb576102e7926006826102b56003610100950160ff199660ff8883541691161781556080850151151590610e0c565b60a0830151600482015560c08301516005820155019260ff60e083015115159185541691161783550151151590610e0c565b6001600160a01b03841660009081526005602052604090208054600160401b8110156103a5576020958593610345837f95e3c80d81e8683384b5960f0d2c0c12bd9309b1549e7083c249a57457f7aaff95600160c096018155610d3b565b81549060031b9087821b91600019901b1916179055604051956024358752610371898801604435610cc4565b1515604087015260a4356060870152608435608087015260a08601526001600160a01b031693a36001600055604051908152f35b634e487b7160e01b600052604160045260246000fd5b634e487b7160e01b600052602160045260246000fd5b634e487b7160e01b600052600060045260246000fd5b60405162461bcd60e51b815260206004820152604e60248201527f42657474696e67456e67696e653a20546f6b656e207472616e7366657220666160448201527f696c65642e20456e737572652073756666696369656e742062616c616e63652060648201526d30b7321030b63637bbb0b731b29760911b608482015260a490fd5b61048b915060203d602011610491575b6104838183610dd1565b810190610df4565b386101a9565b503d610479565b6040513d6000823e3d90fd5b60405162461bcd60e51b815260206004820152604760248201527f42657474696e67456e67696e653a204d61726b65742063616e6e6f742061636360448201527f6570742074686973206265742073697a6520776974682063757272656e74206560648201526678706f7375726560c81b608482015260a490fd5b634e487b7160e01b600052601160045260246000fd5b60405162461bcd60e51b815260206004820152601560248201527404f646473206d757374206265203e3d20312e30303605c1b6044820152606490fd5b60405162461bcd60e51b8152602060048201526016602482015275042657420616d6f756e74206d757374206265203e20360541b6044820152606490fd5b60405162461bcd60e51b815260206004820152601f60248201527f5265656e7472616e637947756172643a207265656e7472616e742063616c6c006044820152606490fd5b600080fd5b346105f55760203660031901126105f55760043561062360018060a01b03600354163314610d53565b600754811061063157600655005b60a460405162461bcd60e51b815260206004820152604460248201527f42657474696e67456e67696e653a204e6577206d6178206578706f737572652060448201527f63616e6e6f74206265206c657373207468616e2063757272656e74206578706f6064820152637375726560e01b6084820152fd5b346105f55760203660031901126105f5576002546001600160a01b031633036106de576106d9600435600654610dc4565b600655005b60405162461bcd60e51b815260206004820152603760248201527f42657474696e67456e67696e653a204f6e6c79204c6971756964697479506f6f6044820152766c2063616e20696e637265617365206578706f7375726560481b6064820152608490fd5b346105f55760403660031901126105f5576004356024359060018060a01b0361077181600354163314610d53565b60005b600454811080156108b65761078890610e4e565b61079181610c8f565b5090826006830192835460ff8116156107b7575b5050506107b29150610e24565b610774565b6107d76107c5898985611029565b80966001809460ff1916178155610e0c565b6000851561088257506107f281830154600284015490610dc4565b928391541686835416604051809263a9059cbb60e01b82528160008161081f602098899760048401610e33565b03925af1958615610498578786946000805160206111c1833981519152946040946107b29a610864575b50505b541694825191151582526020820152a38286806107a5565b8161087a92903d10610491576104838183610dd1565b508c80610849565b926000805160206111c183398151915291506107b295604091846002889601546108af6007918254610db7565b905561084c565b60206108c0610e8b565b604051908152f35b346105f55760003660031901126105f5576020600654604051908152f35b346105f55760003660031901126105f5576003546040516001600160a01b039091168152602090f35b346105f55760003660031901126105f5576002546040516001600160a01b039091168152602090f35b346105f5576020806003193601126105f5576001600160a01b0361095a610d25565b1660005260058152604060002060405190818382549182815201908192600052846000209060005b868282106109d857868661099882880383610dd1565b604051928392818401908285525180915260408401929160005b8281106109c157505050500390f35b8351855286955093810193928101926001016109b2565b835485529093019260019283019201610982565b346105f55760203660031901126105f557610a15600435610a106004548210610e4e565b610c8f565b5060018060a01b0381541690610a686001820154916002810154926003820154916004810154600660058301549201549360405197889760ff808860081c1697169560ff808560081c169416928a610cd1565b0390f35b346105f55760403660031901126105f557610a85610d25565b6001600160a01b03166000908152600560205260409020805460243591908210156105f557602091610ab691610d3b565b90546040519160031b1c8152f35b346105f55760003660031901126105f5576001546040516001600160a01b039091168152602090f35b346105f55760003660031901126105f5576003546001600160a01b0390610b179082163314610d53565b60009060005b600454811015610c1857610b3081610c8f565b506006810180549060ff821615610b53575b505050610b4e90610e24565b610b1d565b6001809261ffff191617905580820154908115610b42578490959392955416928185875416604051809663a9059cbb60e01b825281600081610b9c6020998a9760048401610e33565b03925af19182156104985786610bcf6000805160206111c183398151915293604093610b4e998997610bfb575b50610dc4565b986002810154610be26007918254610db7565b90555416936000825191818352820152a3908480610b42565b610c1190893d8b11610491576104838183610dd1565b508c610bc9565b7f5acc3653d085a8a05d8682b132c9d1ffa7976497780b87ebfa5c4569eaa19c82602084604051908152a160206108c0610e8b565b346105f55760203660031901126105f5576004356004548110156105f557610a1590610c8f565b346105f55760003660031901126105f5576020906007548152f35b600454811015610cae5760046000526007602060002091020190600090565b634e487b7160e01b600052603260045260246000fd5b9060048210156103bb5752565b97949193610d06919a99969361010098956101208b019c60018060a01b03168b5260208b015260408a01526060890190610cc4565b1515608087015260a086015260c0850152151560e08401521515910152565b600435906001600160a01b03821682036105f557565b8054821015610cae5760005260206000200190600090565b15610d5a57565b60405162461bcd60e51b815260206004820152602f60248201527f4f6e6c7920746865206d61726b657420636f6e74726163742063616e2063616c60448201526e36103a3434b990333ab731ba34b7b760891b6064820152608490fd5b9190820391821161051f57565b9190820180921161051f57565b601f909101601f19168101906001600160401b038211908210176103a557604052565b908160209103126105f5575180151581036105f55790565b9061ff00825491151560081b169061ff001916179055565b600019811461051f5760010190565b6001600160a01b039091168152602081019190915260400190565b15610e5557565b60405162461bcd60e51b815260206004820152600e60248201526d125b9d985b1a590818995d08125160921b6044820152606490fd5b600154604080516370a0823160e01b8152306004820152916020906001600160a01b039081168285602481845afa948515610fa957600095610fd0575b50600060075584908115610fb457610efe91849184600254166000885180968195829463095ea7b360e01b845260048401610e33565b03925af18015610fa957610f8c575b506002541691823b156105f5576000809360248351809681936322baaeeb60e11b83528960048401525af18015610f8157610f5c575b6000805160206111a1833981519152925051838152a190565b6001600160401b0383116103a5576000805160206111a1833981519152928152610f43565b50513d6000823e3d90fd5b610fa290833d8511610491576104838183610dd1565b5038610f0d565b84513d6000823e3d90fd5b5050506000805160206111a1833981519152915160008152a190565b90948382813d8311610ffb575b610fe78183610dd1565b81010312610ff85750519338610ec8565b80fd5b503d610fdd565b90600a820291808305600a149015171561051f57565b600160ff1b811461051f5760000390565b60038101549190600460ff84168181101561118b578061108d57505050828111928361107e575b831561105d575b50505090565b1191508161106f575b50388080611057565b60ff915060081c161538611066565b925060ff8260081c1692611050565b6003819592939495146000146110a557505050501490565b600181969592939496146000146111165750600084820394128185128116918513901516176111015760081c60ff16156110f1576110e56110ed92611002565b920154611018565b1290565b6110e56110fd92611002565b1390565b601182634e487b7160e01b6000525260246000fd5b919493909160021461112c575050505050600090565b611139839160ff93610dc4565b9301549360081c161561117357600a820291808304600a149015171561115e57501190565b601190634e487b7160e01b6000525260246000fd5b600a820291808304600a149015171561115e57501090565b602182634e487b7160e01b6000525260246000fdfe3a17b09fdeffe50add2e5a585692d360db7e9e47a81627894b40203fca500906e730d6310bec1dfc964bdf1e3f75a78c8ef2dee9d092f9ff09253258852ed7d4a2646970667358221220ad15ab8028f1b4fb82920b7a60e1dc1bafa199b9c4bb6986b108178e7ee958dc64736f6c63430008130033405787fa12a823e0f2b7631cc41b3ba8828b3321ca811111fa75cd3aa3bb5aceb10e2d527612073b26eecdfd717e6a320cf44b4afac2b0732d9fcbe2b7fa0cf6f652222313e28459528d920b65115c16c04f3efc82aaedc97be59f3f377c0d3f3e6c9b957b95e21785f2a3842fc8fcd347031e87236363d6f4ce806285311196a2646970667358221220af3f725bc1a19dcae3cceb86313aff285ee385c4aaf104388b17047a2ab3c94d64736f6c63430008130033",
  "linkReferences": {},
  "deployedLinkReferences": {}
}