{
  "_format": "hh-sol-artifact-1",
  "contractName": "MarketFactory",
  "sourceName": "contracts/MarketFactory.sol",
  "abi": [
    {
      "inputs": [
        {
          "internalType": "address",
          "name": "_defaultOddsProvider",
          "type": "address"
        },
        {
          "internalType": "address",
          "name": "_defaultResultsProvider",
          "type": "address"
        },
        {
          "internalType": "address",
          "name": "_usdx",
          "type": "address"
        },
        {
          "internalType": "address",
          "name": "_liquidityPool",
          "type": "address"
        }
      ],
      "stateMutability": "nonpayable",
      "type": "constructor"
    },
    {
      "anonymous": false,
      "inputs": [
        {
          "indexed": false,
          "internalType": "address",
          "name": "newAdmin",
          "type": "address"
        }
      ],
      "name": "AdminTransferred",
      "type": "event"
    },
    {
      "anonymous": false,
      "inputs": [
        {
          "indexed": false,
          "internalType": "uint256",
          "name": "newDefaultFunding",
          "type": "uint256"
        }
      ],
      "name": "DefaultMarketFundingChanged",
      "type": "event"
    },
    {
      "anonymous": false,
      "inputs": [
        {
          "indexed": false,
          "internalType": "address",
          "name": "newOddsProvider",
          "type": "address"
        }
      ],
      "name": "DefaultOddsProviderChanged",
      "type": "event"
    },
    {
      "anonymous": false,
      "inputs": [
        {
          "indexed": false,
          "internalType": "address",
          "name": "newResultsProvider",
          "type": "address"
        }
      ],
      "name": "DefaultResultsProviderChanged",
      "type": "event"
    },
    {
      "anonymous": false,
      "inputs": [
        {
          "indexed": false,
          "internalType": "address",
          "name": "marketAddress",
          "type": "address"
        },
        {
          "indexed": false,
          "internalType": "address",
          "name": "oddsContractAddress",
          "type": "address"
        },
        {
          "indexed": false,
          "internalType": "string",
          "name": "homeTeam",
          "type": "string"
        },
        {
          "indexed": false,
          "internalType": "string",
          "name": "awayTeam",
          "type": "string"
        },
        {
          "indexed": false,
          "internalType": "uint256",
          "name": "gameTimestamp",
          "type": "uint256"
        },
        {
          "indexed": false,
          "internalType": "string",
          "name": "oddsApiId",
          "type": "string"
        },
        {
          "indexed": false,
          "internalType": "uint256",
          "name": "funding",
          "type": "uint256"
        }
      ],
      "name": "MarketCreated",
      "type": "event"
    },
    {
      "inputs": [],
      "name": "admin",
      "outputs": [
        {
          "internalType": "address",
          "name": "",
          "type": "address"
        }
      ],
      "stateMutability": "view",
      "type": "function"
    },
    {
      "inputs": [
        {
          "internalType": "string",
          "name": "homeTeam",
          "type": "string"
        },
        {
          "internalType": "string",
          "name": "awayTeam",
          "type": "string"
        },
        {
          "internalType": "uint256",
          "name": "gameTimestamp",
          "type": "uint256"
        },
        {
          "internalType": "string",
          "name": "oddsApiId",
          "type": "string"
        },
        {
          "internalType": "uint256",
          "name": "homeOdds",
          "type": "uint256"
        },
        {
          "internalType": "uint256",
          "name": "awayOdds",
          "type": "uint256"
        },
        {
          "internalType": "int256",
          "name": "homeSpreadPoints",
          "type": "int256"
        },
        {
          "internalType": "uint256",
          "name": "homeSpreadOdds",
          "type": "uint256"
        },
        {
          "internalType": "uint256",
          "name": "awaySpreadOdds",
          "type": "uint256"
        },
        {
          "internalType": "uint256",
          "name": "totalPoints",
          "type": "uint256"
        },
        {
          "internalType": "uint256",
          "name": "overOdds",
          "type": "uint256"
        },
        {
          "internalType": "uint256",
          "name": "underOdds",
          "type": "uint256"
        },
        {
          "internalType": "uint256",
          "name": "marketFunding",
          "type": "uint256"
        }
      ],
      "name": "createMarket",
      "outputs": [
        {
          "internalType": "address",
          "name": "marketAddress",
          "type": "address"
        },
        {
          "internalType": "address",
          "name": "oddsContractAddress",
          "type": "address"
        }
      ],
      "stateMutability": "nonpayable",
      "type": "function"
    },
    {
      "inputs": [
        {
          "internalType": "string",
          "name": "homeTeam",
          "type": "string"
        },
        {
          "internalType": "string",
          "name": "awayTeam",
          "type": "string"
        },
        {
          "internalType": "uint256",
          "name": "gameTimestamp",
          "type": "uint256"
        },
        {
          "internalType": "string",
          "name": "oddsApiId",
          "type": "string"
        },
        {
          "internalType": "uint256",
          "name": "homeOdds",
          "type": "uint256"
        },
        {
          "internalType": "uint256",
          "name": "awayOdds",
          "type": "uint256"
        },
        {
          "internalType": "int256",
          "name": "homeSpreadPoints",
          "type": "int256"
        },
        {
          "internalType": "uint256",
          "name": "homeSpreadOdds",
          "type": "uint256"
        },
        {
          "internalType": "uint256",
          "name": "awaySpreadOdds",
          "type": "uint256"
        },
        {
          "internalType": "uint256",
          "name": "totalPoints",
          "type": "uint256"
        },
        {
          "internalType": "uint256",
          "name": "overOdds",
          "type": "uint256"
        },
        {
          "internalType": "uint256",
          "name": "underOdds",
          "type": "uint256"
        },
        {
          "internalType": "address",
          "name": "oddsProvider",
          "type": "address"
        },
        {
          "internalType": "address",
          "name": "resultsProvider",
          "type": "address"
        },
        {
          "internalType": "uint256",
          "name": "marketFunding",
          "type": "uint256"
        }
      ],
      "name": "createMarketWithCustomProviders",
      "outputs": [
        {
          "internalType": "address",
          "name": "marketAddress",
          "type": "address"
        },
        {
          "internalType": "address",
          "name": "oddsContractAddress",
          "type": "address"
        }
      ],
      "stateMutability": "nonpayable",
      "type": "function"
    },
    {
      "inputs": [
        {
          "internalType": "string",
          "name": "homeTeam",
          "type": "string"
        },
        {
          "internalType": "string",
          "name": "awayTeam",
          "type": "string"
        },
        {
          "internalType": "uint256",
          "name": "gameTimestamp",
          "type": "uint256"
        },
        {
          "internalType": "string",
          "name": "oddsApiId",
          "type": "string"
        },
        {
          "internalType": "uint256",
          "name": "marketFunding",
          "type": "uint256"
        }
      ],
      "name": "createMarketWithoutOdds",
      "outputs": [
        {
          "internalType": "address",
          "name": "marketAddress",
          "type": "address"
        },
        {
          "internalType": "address",
          "name": "oddsContractAddress",
          "type": "address"
        }
      ],
      "stateMutability": "nonpayable",
      "type": "function"
    },
    {
      "inputs": [],
      "name": "defaultMarketFunding",
      "outputs": [
        {
          "internalType": "uint256",
          "name": "",
          "type": "uint256"
        }
      ],
      "stateMutability": "view",
      "type": "function"
    },
    {
      "inputs": [],
      "name": "defaultOddsProvider",
      "outputs": [
        {
          "internalType": "address",
          "name": "",
          "type": "address"
        }
      ],
      "stateMutability": "view",
      "type": "function"
    },
    {
      "inputs": [],
      "name": "defaultResultsProvider",
      "outputs": [
        {
          "internalType": "address",
          "name": "",
          "type": "address"
        }
      ],
      "stateMutability": "view",
      "type": "function"
    },
    {
      "inputs": [
        {
          "internalType": "uint256",
          "name": "",
          "type": "uint256"
        }
      ],
      "name": "deployedMarkets",
      "outputs": [
        {
          "internalType": "contract NBAMarket",
          "name": "",
          "type": "address"
        }
      ],
      "stateMutability": "view",
      "type": "function"
    },
    {
      "inputs": [],
      "name": "getDeployedMarkets",
      "outputs": [
        {
          "internalType": "contract NBAMarket[]",
          "name": "",
          "type": "address[]"
        }
      ],
      "stateMutability": "view",
      "type": "function"
    },
    {
      "inputs": [],
      "name": "getDeployedMarketsCount",
      "outputs": [
        {
          "internalType": "uint256",
          "name": "",
          "type": "uint256"
        }
      ],
      "stateMutability": "view",
      "type": "function"
    },
    {
      "inputs": [],
      "name": "liquidityPool",
      "outputs": [
        {
          "internalType": "contract LiquidityPool",
          "name": "",
          "type": "address"
        }
      ],
      "stateMutability": "view",
      "type": "function"
    },
    {
      "inputs": [
        {
          "internalType": "uint256",
          "name": "_newDefaultFunding",
          "type": "uint256"
        }
      ],
      "name": "setDefaultMarketFunding",
      "outputs": [],
      "stateMutability": "nonpayable",
      "type": "function"
    },
    {
      "inputs": [
        {
          "internalType": "address",
          "name": "_newDefaultOddsProvider",
          "type": "address"
        }
      ],
      "name": "setDefaultOddsProvider",
      "outputs": [],
      "stateMutability": "nonpayable",
      "type": "function"
    },
    {
      "inputs": [
        {
          "internalType": "address",
          "name": "_newDefaultResultsProvider",
          "type": "address"
        }
      ],
      "name": "setDefaultResultsProvider",
      "outputs": [],
      "stateMutability": "nonpayable",
      "type": "function"
    },
    {
      "inputs": [
        {
          "internalType": "address",
          "name": "_newAdmin",
          "type": "address"
        }
      ],
      "name": "transferAdmin",
      "outputs": [],
      "stateMutability": "nonpayable",
      "type": "function"
    },
    {
      "inputs": [],
      "name": "usdx",
      "outputs": [
        {
          "internalType": "contract IERC20",
          "name": "",
          "type": "address"
        }
      ],
      "stateMutability": "view",
      "type": "function"
    }
  ],
  "bytecode": "0x6080346100ce57601f620057e438819003918201601f19168301916001600160401b038311848410176100d3578084926080946040528339810103126100ce57610048816100e9565b610054602083016100e9565b9061006d6060610066604086016100e9565b94016100e9565b9064174876e80060055560018060a01b0319933385600054161760005560018060a01b038094818094168760015416176001551685600254161760025516836003541617600355169060045416176004556040516156e69081620000fe8239f35b600080fd5b634e487b7160e01b600052604160045260246000fd5b51906001600160a01b03821682036100ce5756fe60808060405260043610156200001457600080fd5b600090813560e01c9081630967803a1462000e0d575080631b0bbbd21462000d5d5780631b3a6c861462000b9357806327be79341462000b68578063311176d71462000b3d57806341e43e531462000b1d5780634b3cb72314620007b25780635b51eb881462000764578063665a11ca14620007395780636b2ae18a14620006c157806375829def14620005fe57806388ea71931462000586578063b62ca2041462000528578063c3171eb71462000138578063cb179297146200010d5763f851a44014620000e257600080fd5b346200010a57806003193601126200010a57546040516001600160a01b039091168152602090f35b80fd5b50346200010a57806003193601126200010a576001546040516001600160a01b039091168152602090f35b50346200010a576101e03660031901126200010a576001600160401b0360043581811162000459576200017090369060040162000e79565b60243582811162000524576200018b90369060040162000e79565b906064358381116200052057620001a790369060040162000e79565b610184356001600160a01b03811690036200051b576101a4356001600160a01b03811690036200051b576101c43590620001ec60018060a01b03875416331462000f05565b811562000510575b604051610bb18082019082821088831117620004fc5782916200024891620011828439610164359061014435906101243590610104359060e4359060c4359060a43590608435906101843590309062000f5c565b039087f0948515620004f1578654600354600454604051936001600160a01b0393841693918216929091169061393e850190811190851117620004dd578584938a9593620002bf9361393e62001d3387398b8b6044359960018060a01b0316948b8b6101a43594610184359461393e8d0162000fed565b039088f0968715620004d1576001600160a01b03888116989088163b156200047557604051637c2430b960e01b8152600481018a90528281602481836001600160a01b038e165af180156200047957908391620004b9575b5050620003249062001077565b60405163c6cb8ce160e01b81526020816004818c5afa9081156200044e57829162000484575b506004546001600160a01b039182169116803b15620004595782809160246040518094819363f2862e6760e01b83528760048401525af1801562000479579083916200045d575b50506004546001600160a01b031690813b15620004595785620003ce928492836040518096819582946328a6ea5360e01b84526004840162001103565b03925af180156200044e5762000436575b50509162000411916000805160206200569183398151915295949360405195869560018060a01b038a168b886200111e565b0390a160405191829162000432916001600160a01b03909116908362000ed4565b0390f35b62000442829162000e2b565b6200010a5780620003df565b6040513d84823e3d90fd5b8280fd5b620004689062000e2b565b6200047557813862000391565b5080fd5b6040513d85823e3d90fd5b620004aa915060203d8111620004b1575b620004a1818362000e55565b810190620010e2565b386200034a565b503d62000495565b620004c49062000e2b565b6200047557813862000317565b604051903d90823e3d90fd5b634e487b7160e01b8a52604160045260248afd5b6040513d88823e3d90fd5b634e487b7160e01b89526041600452602489fd5b6005549150620001f4565b600080fd5b8480fd5b8380fd5b50346200010a5760203660031901126200010a577f9e3bf27471033b48f7c616a97619c5c35a5a32b8d878938a612548f4072354f260206004356200057860018060a01b03855416331462000f05565b80600555604051908152a180f35b50346200010a5760203660031901126200010a577f96eb35cb55be4a228e9a3fb2505367378b44cb4b46e8364fec3dc444bcdc4ff76020620005c762000eee565b83546001600160a01b039190620005e2908316331462000f05565b168060018060a01b03196002541617600255604051908152a180f35b50346200010a5760203660031901126200010a576200061c62000eee565b8154906001600160a01b039062000637338385161462000f05565b169081156200067d576001600160a01b031916811782556040519081527fe22b4f506b7da9a528a95d7063a6cde8d2b6268773b1f7f65c00057531704a3d90602090a180f35b606460405162461bcd60e51b815260206004820152602060248201527f4e65772061646d696e2063616e6e6f74206265207a65726f20616464726573736044820152fd5b50346200010a5760203660031901126200010a577fa24601f86d312f4bb88d283eacb1905b58b5240fcc8ba3a089883f81716021b560206200070262000eee565b83546001600160a01b0391906200071d908316331462000f05565b168060018060a01b03196001541617600155604051908152a180f35b50346200010a57806003193601126200010a576004546040516001600160a01b039091168152602090f35b50346200010a5760203660031901126200010a57600435600654811015620004755760066000526000805160206200567183398151915201546040516001600160a01b039091168152602090f35b50346200010a5760a03660031901126200010a576001600160401b03906004358281116200047557620007ea90369060040162000e79565b60243583811162000459576200080590369060040162000e79565b9060643584811162000524576200082190369060040162000e79565b83546001600160a01b039460843592916200084b9087163314620008458162000f05565b62000f05565b821562000b12575b856001541660405190610bb190818301918383108b84111762000afe57918391610140936200118284393082526020820152600060408201526000606082015260006080820152600060a0820152600060c0820152600060e08201526000610100820152600061012082015203019082f0801562000add5786169686825416876001541688600254168960035416918a60045416936040519561393e90878281011090828901111762000aea57948695946200092a948f93948c958f8f9c9b998e918162001d338d396044359e8f928d0162000fed565b039082f096871562000add5780881697893b156200045957604051637c2430b960e01b8152600481018a90528381602481838f5af1801562000a975790849162000ac5575b50506200097c9062001077565b60405163c6cb8ce160e01b81526020816004818c5afa9081156200047957908291849162000aa2575b5016908060045416803b15620005245783809160246040518094819363f2862e6760e01b83528860048401525af1801562000a975790849162000a7f575b50506004541690813b1562000459578562000a18928492836040518096819582946328a6ea5360e01b84526004840162001103565b03925af180156200044e5762000a67575b50509162000a5391600080516020620056918339815191529594936040519586958a8a886200111e565b0390a1620004326040519283928362000ed4565b62000a73829162000e2b565b6200010a578062000a29565b62000a8a9062000e2b565b62000459578238620009e3565b6040513d86823e3d90fd5b62000abe915060203d8111620004b157620004a1818362000e55565b38620009a5565b62000ad09062000e2b565b620004595782386200096f565b50604051903d90823e3d90fd5b634e487b7160e01b88526041600452602488fd5b634e487b7160e01b85526041600452602485fd5b600554925062000853565b50346200010a57806003193601126200010a576020600554604051908152f35b50346200010a57806003193601126200010a576003546040516001600160a01b039091168152602090f35b50346200010a57806003193601126200010a576002546040516001600160a01b039091168152602090f35b50346200010a576101a03660031901126200010a576001600160401b0390600435828111620004755762000bcc90369060040162000e79565b602435838111620004595762000be790369060040162000e79565b90606435848111620005245762000c0390369060040162000e79565b83546001600160a01b039461018435929162000c23908716331462000f05565b821562000d52575b856001541660405190610bb1808301908382108b83111762000afe579162000c81918493620011828539610164359161014435916101243591610104359160e4359160c4359160a4359160843591309062000f5c565b039082f0801562000add5786169686825416876001541688600254168960035416918a60045416936040519561393e90878281011090828901111762000aea579486959462000ceb948f93948c958f8f9c9b998e918162001d338d396044359e8f928d0162000fed565b039082f096871562000add5780881697893b156200045957604051637c2430b960e01b8152600481018a90528381602481838f5af1801562000a975762000d39575b506200097c9062001077565b9262000d4a6200097c929462000e2b565b929062000d2d565b600554925062000c2b565b50346200010a57806003193601126200010a57604051809160065490818352602080930180926006835284832090835b81811062000def575050508462000da691038562000e55565b60405193838594850191818652518092526040850193925b82811062000dce57505050500390f35b83516001600160a01b03168552869550938101939281019260010162000dbe565b82546001600160a01b03168452928601926001928301920162000d8d565b90503462000475578160031936011262000475576020906006548152f35b6001600160401b03811162000e3f57604052565b634e487b7160e01b600052604160045260246000fd5b601f909101601f19168101906001600160401b0382119082101762000e3f57604052565b81601f820112156200051b578035906001600160401b03821162000e3f576040519262000eb1601f8401601f19166020018562000e55565b828452602083830101116200051b57816000926020809301838601378301015290565b6001600160a01b0391821681529116602082015260400190565b600435906001600160a01b03821682036200051b57565b1562000f0d57565b60405162461bcd60e51b815260206004820152602160248201527f4f6e6c792061646d696e2063616e2063616c6c20746869732066756e6374696f6044820152603760f91b6064820152608490fd5b969390926101209895929b9a99969361014089019c60018060a01b038092168a5216602089015260408801526060870152608086015260a085015260c084015260e08301526101008201520152565b919082519283825260005b84811062000fd8575050826000602080949584010152601f8019910116010190565b60208183018101518483018201520162000fb6565b979b9a999594929093620010276200103b93620010186101409c978c6101608091528d019062000fab565b908b820360208d015262000fab565b9160408a015288820360608a015262000fab565b6001600160a01b03918216608088015292811660a087015293841660c086015297831660e0850152968216610100840152166101208201520152565b600654600160401b81101562000e3f576001810180600655811015620010cc576006600052600080516020620056718339815191520180546001600160a01b0319166001600160a01b03909216919091179055565b634e487b7160e01b600052603260045260246000fd5b908160209103126200051b57516001600160a01b03811681036200051b5790565b6001600160a01b039091168152602081019190915260400190565b97969591936200115960c0969462001168936200117c9760018060a01b038092168d521660208c015260e060408c015260e08b019062000fab565b9089820360608b015262000fab565b91608088015286820360a088015262000fab565b93015256fe60803461023757601f610bb138819003918201601f191683019291906001600160401b0384118385101761023c578161014092849260409687528339810103126102375761004c81610252565b61005860208301610252565b918381015160608201519260808301519260a081015160c082015160e08301519161010096610120888601519501519560015460ff19600a54169182600a5560018060a01b038091169c8d156101e4571690811561019657600080546001600160a01b0319168e1790556001600160a81b03191617600155600288905560038a90556004829055600583905560068490556007859055600886905560098790556103e880891015908161018b575b5061017f575b5060ff600a5416610126575b8a5161094a90816102678239f35b7f3f4ba67b0696ad90365f5ac73375b1ee9f56ed7ae2a5517fb6f5b4707db01770988b5197885260208801528a8701526060860152608085015260a084015260c083015260e0820152a238808080808080808080610118565b600117600a553861010c565b90508a101538610106565b8d5162461bcd60e51b815260206004820152602160248201527f4d61726b65744f6464733a20496e76616c6964206f6464732070726f766964656044820152603960f91b6064820152608490fd5b8e5162461bcd60e51b815260206004820152602660248201527f4d61726b65744f6464733a20496e76616c696420636f6e74726f6c6c696e67206044820152651b585c9ad95d60d21b6064820152608490fd5b600080fd5b634e487b7160e01b600052604160045260246000fd5b51906001600160a01b03821682036102375756fe608060408181526004908136101561001657600080fd5b600092833560e01c90816319e26f4b1461083e575080631cf599811461058f5780632eb4342e1461056b57806336d1e69b1461053b5780633cc4c0e11461051c578063567142be146104fd578063593536121461044f57806367b952ab1461043057806368ee8634146104015780636c90a37e146103da5780637ba02939146103b15780637c2430b91461028b5780638ceec93f1461026d578063a9565ac714610245578063b3f9596914610226578063b762b141146101fe578063c68e052c146101df578063dce4a3b0146101c0578063f50a81bf1461019d5763f7b002c41461010057600080fd5b3461019957826003193601126101995782546001600160a01b03163303610138576001805460ff60a01b1916600160a01b1790558280f35b906020608492519162461bcd60e51b8352820152603560248201527f4d61726b65744f6464733a204f6e6c792074686520636f6e74726f6c6c696e67604482015274206d61726b65742063616e2063616c6c207468697360581b6064820152fd5b8280fd5b8382346101bc57816003193601126101bc576020906006549051908152f35b5080fd5b8382346101bc57816003193601126101bc576020906005549051908152f35b8382346101bc57816003193601126101bc576020906003549051908152f35b5082346102235780600319360112610223575060025460035482519182526020820152f35b80fd5b8382346101bc57816003193601126101bc576020906002549051908152f35b8382346101bc57816003193601126101bc57905490516001600160a01b039091168152602090f35b50903461019957826003193601126101995760209250549051908152f35b5034610199576020366003190112610199576001600160a01b038235818116939192908490036103ad57845492831680159081156103a3575b50156103305783156102e25750506001600160a01b03191617815580f35b906020608492519162461bcd60e51b8352820152602260248201527f4d61726b65744f6464733a20496e76616c6964206d61726b6574206164647265604482015261737360f01b6064820152fd5b90602060a492519162461bcd60e51b8352820152604160248201527f4d61726b65744f6464733a20436f6e74726f6c6c696e67206d61726b6574206160448201527f6c726561647920736574206f7220756e617574686f72697a65642063616c6c656064820152603960f91b6084820152fd5b90503314386102c4565b8480fd5b8382346101bc57816003193601126101bc5760015490516001600160a01b039091168152602090f35b8382346101bc57816003193601126101bc5760209060ff60015460a01c1690519015158152f35b509034610199578260031936011261019957606092505490600554906006549181519384526020840152820152f35b8382346101bc57816003193601126101bc576020906009549051908152f35b5034610199576020366003190112610199576001600160a01b038235818116939192908490036103ad5761048960015493841633146108b3565b83156104a25750506001600160a01b0319161760015580f35b906020608492519162461bcd60e51b8352820152602f60248201527f4d61726b65744f6464733a204e65772070726f76696465722063616e6e6f742060448201526e6265207a65726f206164647265737360881b6064820152fd5b8382346101bc57816003193601126101bc576020906007549051908152f35b8382346101bc57816003193601126101bc576020906008549051908152f35b8382346101bc57816003193601126101bc5760609060075490600854906009549181519384526020840152820152f35b8382346101bc57816003193601126101bc5760209060ff600a541690519015158152f35b508290346101bc576101003660031901126101bc5782356024908135916044356064356084359060a4359260c4359460e4359a6001549160ff60018060a01b03936105dd85821633146108b3565b60a01c166107e0576103e8808a1015806107d6575b156107875785158061077f575b801561076a575b1561070f5788159081610706575b81156106e8575b501561068f5750917f3f4ba67b0696ad90365f5ac73375b1ee9f56ed7ae2a5517fb6f5b4707db01770999a9b959391816106899896948a6002558b600355558260055583600655846007558560085586600955600160ff19600a541617600a558c54169a519889988961087c565b0390a280f35b90602e60849260208d519362461bcd60e51b85528401528201527f4d61726b65744f6464733a20546f74616c206f646473206d757374206265203e60448201526d0f480c4b8c0c0c081a59881cd95d60921b6064820152fd5b808a10159150816106fb575b508e61061b565b90508d10158e6106f4565b8e159150610614565b5090602f60849260208d519362461bcd60e51b85528401528201527f4d61726b65744f6464733a20537072656164206f646473206d7573742062652060448201526e0f8f480c4b8c0c0c081a59881cd95d608a1b6064820152fd5b50808610158015610606575080871015610606565b5086156105ff565b8b5162461bcd60e51b81526020818501528083018390527f4d61726b65744f6464733a204d4c206f646473206d757374206265203e3d203160448201526302e3030360e41b6064820152608490fd5b50808b10156105f2565b90603360849260208d519362461bcd60e51b85528401528201527f4d61726b65744f6464733a2043616e6e6f7420757064617465206f6464732061604482015272199d195c881b585c9ad95d081cdd185c9d1959606a1b6064820152fd5b838534610223578060031936011261022357506108788291600254906003549054600554600654906007549260085494600954968961087c565b0390f35b94919260e0969399989794919961010087019a8752602087015260408601526060850152608084015260a083015260c08201520152565b156108ba57565b60405162461bcd60e51b815260206004820152602c60248201527f4d61726b65744f6464733a204f6e6c79206f6464732070726f7669646572206360448201526b616e2063616c6c207468697360a01b6064820152608490fdfea26469706673582212203ca1f954b2a2d06b7407142b05f59d54ae84ee3685de6920b78f0d2e0fca3e7f64736f6c634300081300336080806040523462000465576200393e80380380916200002082856200076b565b8339810161016082820312620004655781516001600160401b0381116200046557816200004f9184016200078f565b60208301516001600160401b038111620004655782620000719185016200078f565b6040840151606085015190939192916001600160401b03821162000465576200009c9186016200078f565b93620000ab6080820162000806565b620000b960a0830162000806565b91620000c860c0820162000806565b620000d660e0830162000806565b96620000e6610100840162000806565b96610140620000f9610120860162000806565b9401516001600055875190976001600160401b038211620004065760015490600182811c9216801562000760575b60208310146200055e5781601f849311620006ff575b50602090601f8311600114620006815760009262000675575b50508160011b916000199060031b1c1916176001555b8051906001600160401b038211620004065760025490600182811c921680156200066a575b60208310146200055e5781601f84931162000609575b50602090601f83116001146200058b576000926200057f575b50508160011b916000199060031b1c1916176002555b60035587516001600160401b0381116200040657600454600181811c9116801562000574575b60208210146200055e57601f8111620004f4575b506020601f82116001146200047f579080602094939260049b60009262000473575b50508160011b916000199060031b1c19161789555b600e8054610100600160a81b03198116600887901b610100600160a81b031617909155600f80546001600160a01b03199081166001600160a01b0398891617909155601080548216938816939093179092556011805483169387169384179055601280548316998716998a1790556013805490921697909516968717905560405163175a1a1760e11b815297959695889182905afa958615620003fa576000966200042a575b50600b805462ff0000191680825590966200041c575b50855461ffff191686556001600160a81b031990911660089190911b610100600160a81b031617600e556040519261138091828501916001600160401b03831186841017620004065760809486946200257e86393084526020840152604083015260608201520301906000f0908115620003fa57601480546001600160a01b0319166001600160a01b0390931692909217909155546040519060101c60ff166005811015620003e457816020917fb786c19cad4ec6fc2aeb481fb6b1473feb22fe8caf8abfcb7702a077e98845e49352a1604051611d6290816200081c8239f35b634e487b7160e01b600052602160045260246000fd5b6040513d6000823e3d90fd5b634e487b7160e01b600052604160045260246000fd5b620100001786553862000303565b9095506020813d6020116200046a575b8162000449602093836200076b565b81010312620004655751801515810362000465579438620002ed565b600080fd5b3d91506200043a565b01519050388062000232565b600460005260206000209960005b601f1984168110620004db57509160049a600192602096959483601f19811610620004c1575b505050811b01895562000247565b015160001960f88460031b161c19169055388080620004b3565b828201518c556001909b019a602092830192016200048d565b60046000527f8a35acfbc15ff81a39ae7d344fd709f28e8600b4aa8c65c6b64bfe7fe36bd19b601f830160051c8101916020841062000553575b601f0160051c01905b81811062000546575062000210565b6000815560010162000537565b90915081906200052e565b634e487b7160e01b600052602260045260246000fd5b90607f1690620001fc565b015190503880620001c0565b600260009081529350600080516020620038fe83398151915291905b601f1984168510620005ed576001945083601f19811610620005d3575b505050811b01600255620001d6565b015160001960f88460031b161c19169055388080620005c4565b81810151835560209485019460019093019290910190620005a7565b6002600052909150600080516020620038fe833981519152601f840160051c81016020851062000662575b90849392915b601f830160051c8201811062000652575050620001a7565b600081558594506001016200063a565b508062000634565b91607f169162000191565b01519050388062000156565b6001600090815293506000805160206200391e83398151915291905b601f1984168510620006e3576001945083601f19811610620006c9575b505050811b016001556200016c565b015160001960f88460031b161c19169055388080620006ba565b818101518355602094850194600190930192909101906200069d565b60016000529091506000805160206200391e833981519152601f840160051c81016020851062000758575b90849392915b601f830160051c82018110620007485750506200013d565b6000815585945060010162000730565b50806200072a565b91607f169162000127565b601f909101601f19168101906001600160401b038211908210176200040657604052565b919080601f8401121562000465578251906001600160401b038211620004065760405191602091620007cb601f8301601f19168401856200076b565b818452828287010111620004655760005b818110620007f257508260009394955001015290565b8581018301518482018401528201620007dc565b51906001600160a01b0382168203620004655756fe608060408181526004918236101561001657600080fd5b60009260e08435811c92836306705b2d146118dc5750826306fe87661461177b57826319e26f4b146116875782632f6fe3961461165f578263310efb481461141c578263311176d7146113f257826336d1e69b146113c15782633cc4c0e1146113a15782633df2967e14611251578263479eaf25146110fd5782634e69d560146110d2578263567142be146110b257826359353612146110625782635e123ce41461103d578263665a11ca1461101357826367b952ab14610ff357826368ee863414610fc25782636bfefd6b14610e3f5782636c81ea0a14610e155782636db5fc9c14610df55782637ba0293914610dcb5782637d79c19214610dac57826380327bbb14610d5c5782638ceec93f14610d3c57826390065d5f14610c9357508163a72f37cd14610c75578163ae989d3614610c40578163bd02de1b14610bfa578163beda201414610bd6578163c1aa6b9f14610aed578163c6cb8ce114610ac4578163d38d963914610aa5578163d65ab5f21461088e57838263da4cdb231461080b57508163dce4a3b0146107ec578163e0e081d7146107c0578163e7ea03ba14610797578163f034836e1461076e578163f43a6eac1461023957508063f50a81bf1461021b5763f851a440146101ec57600080fd5b34610217578160031936011261021757600e54905160089190911c6001600160a01b03168152602090f35b5080fd5b50346102175781600319360112610217576020906007549051908152f35b9190503461076a5760609182600319360112610766578035906003821015610762576024918235946044918235908115159182810361075e5760028a541461071d5760028a5560ff600b5460101c16600581101561070b576001036106cc578815610692576011548a946001600160a01b03949392889290918b918716906102c2821515611bac565b8886610481575050815163b762b14160e01b815293849182905afa908115610477578c928d9261043d575b5082151580610434575b156103e557156103de57505b925b6103e884106103a3579260c495926103446020999896938d9660145416958c519d8e9b8c9a636f420a5b60e11b8c5233908c01528a01528801906118f8565b6064860152608485015260a48401525af190811561039a575061036a575b506001815580f35b602090813d8111610393575b6103808183611951565b8101031261038e5738610362565b600080fd5b503d610376565b513d84823e3d90fd5b885162461bcd60e51b81526020818901526017818a01527614d95b1958dd1959081bd9191cc81b9bdd081d985b1a59604a1b81880152606490fd5b9050610303565b50895162461bcd60e51b81526020818a0152808a018a90527f4d6f6e65796c696e65206f646473206e6f742073657420696e204d61726b657481890152634f64647360e01b6064820152608490fd5b508115156102f7565b925090508982813d8111610470575b6104568183611951565b8101031261046c576020825192015190386102ed565b8b80fd5b503d61044c565b8a513d8e823e3d90fd5b9493925096975086906001861460001461057f578c51631a3ba18d60e21b815293849182905afa9182156105755783968493610533575b50508215158061052a575b156104dd57156104d657505b9293610305565b90506104cf565b5050885162461bcd60e51b81526020818901526021818a01527f537072656164206f646473206e6f742073657420696e204d61726b65744f646481880152607360f81b6064820152608490fd5b508115156104c3565b92509550915084813d831161056e575b61054d8183611951565b8101031261056a5783516020850151948a015190949138806104b8565b8a80fd5b503d610543565b8b513d85823e3d90fd5b92505091506002831460001461065d578b918589928c51938480926336d1e69b60e01b82525afa918215610575578396849361061f575b505082151580610616575b156105d357156104d657509293610305565b5050885162461bcd60e51b81526020818901819052818a01527f546f74616c206f646473206e6f742073657420696e204d61726b65744f64647381880152606490fd5b508115156105c1565b92509550915084813d8311610656575b6106398183611951565b8101031261056a5783516020850151948a015190949138806105b6565b503d61062f565b50885162461bcd60e51b81526020818901526010818a01526f496e76616c696420626574207479706560801b81880152606490fd5b875162461bcd60e51b815260208188015260168189015275042657420616d6f756e74206d757374206265203e20360541b81870152606490fd5b875162461bcd60e51b8152602081880152601b818901527a4d61726b6574206e6f74206f70656e20666f722062657474696e6760281b81870152606490fd5b634e487b7160e01b8b5260218752878bfd5b875162461bcd60e51b8152602081880152601f818901527f5265656e7472616e637947756172643a207265656e7472616e742063616c6c0081870152606490fd5b8980fd5b8480fd5b8380fd5b8280fd5b50503461021757816003193601126102175760115490516001600160a01b039091168152602090f35b50503461021757816003193601126102175760105490516001600160a01b039091168152602090f35b5050346102175781600319360112610217576020906107ea60ff600b5460101c169151809261191b565bf35b5050346102175781600319360112610217576020906006549051908152f35b8091843461088a57602036600319011261088a5760018060a01b0361083881600e5460081c163314611cb6565b6014541691823b15610885578392602484928451958693849263da4cdb2360e01b84528035908401525af190811561039a57506108725750f35b61087b90611928565b6108825780f35b80fd5b505050fd5b5050fd5b839150346102175781600319360112610217576010546001600160a01b0391906108bb9083163314611bf0565b600b549160ff8360101c166005811015610a92578015908115610a87575b5015610a4b5760115416906108ef821515611bac565b845163175a1a1760e11b81526020939084818481875afa908115610a41578691610a08575b50156109b75762ff00ff19166202000117600b55813b15610766578451633dec00b160e21b81529184918391829084905af1610998575b50600080516020611d0d8339815191529192517f762f260439bb4be3ef6e4dc2786e2e7bd187d3d80b79057d7a424fe98563e3358480a16109948160ff600b5460101c1661191b565ba180f35b916109b1600080516020611d0d83398151915293611928565b9161094b565b855162461bcd60e51b8152808301859052602560248201527f43616e6e6f742073746172742067616d65206265666f7265206f64647320617260448201526419481cd95d60da1b6064820152608490fd5b90508481813d8311610a3a575b610a1f8183611951565b81010312610a3657610a3090611c51565b87610914565b8580fd5b503d610a15565b87513d88823e3d90fd5b845162461bcd60e51b8152602081840152601660248201527513585c9ad95d08185b1c9958591e481cdd185c9d195960521b6044820152606490fd5b6001915014866108d9565b634e487b7160e01b855260218352602485fd5b505034610217578160031936011261021757602090600d549051908152f35b50503461021757816003193601126102175760145490516001600160a01b039091168152602090f35b9050823461088257806003193601126108825760145483516304f0d71560e51b8152926020916001600160a01b031682858381845afa948515610bcc578495610b9d575b5082908651928380926315ef6c7b60e01b82525afa928315610b92578093610b60575b50508351928352820152f35b909180935082813d8311610b8b575b610b798183611951565b81010312610882575051908480610b54565b503d610b6f565b8551903d90823e3d90fd5b9094508281813d8311610bc5575b610bb58183611951565b8101031261076657519382610b31565b503d610bab565b86513d86823e3d90fd5b50503461021757816003193601126102175760209060ff600e541690519015158152f35b9050823461088257806003193601126108825760ff600b5460101c16916005831015610c2d576020836001865191148152f35b634e487b7160e01b825260219052602490fd5b505034610217578160031936011261021757610c7190610c5e611a42565b9051918291602083526020830190611b6c565b0390f35b505034610217578160031936011261021757610c7190610c5e611ad5565b9150503461076a578260031936011261076a57610cff92506003549160ff600b5460101c169160ff600e5416600c5490610d29610d1e600d5495610cd5611a42565b98610cde611974565b90610d0d610cea611ad5565b9284519d8e9d8e610100908181520190611b6c565b8d810360208f015290611b6c565b928b015289820360608b0152611b6c565b95608088019061191b565b151560a086015260c08501528301520390f35b505050346102175781600319360112610217576020906005549051908152f35b84823461021757602036600319011261021757356001600160a01b038181169182900361076a57610d9590600e5460081c163314611cb6565b601080546001600160a01b03191691909117905580f35b50505034610217578160031936011261021757610c7190610c5e611974565b50505034610217578160031936011261021757600f5490516001600160a01b039091168152602090f35b50505034610217578160031936011261021757602090600c549051908152f35b5050503461021757816003193601126102175760115490516001600160a01b039091168152602090f35b5090503461076a578260031936011261076a5760018060a01b03610e6b81600e5460081c163314611cb6565b600b5460ff8160101c16600581101580610faf57600382141580610fa2575b610e9390611c5e565b610f8f57600214610f325762ffff0019166204010017600b5560145483516308c678f760e21b815292602092849283918891165af18015610f2657610efb575b506020600080516020611d0d8339815191529161099460ff600b5460101c169151809261191b565b602090813d8111610f1f575b610f118183611951565b810103126102175738610ed3565b503d610f07565b505051903d90823e3d90fd5b835162461bcd60e51b8152602081850152603160248201527f43616e6e6f742063616e63656c2061667465722067616d65207374617274656460448201527020756e6c65737320656d657267656e637960781b6064820152608490fd5b634e487b7160e01b865260218452602486fd5b5086905081851415610e8a565b634e487b7160e01b875260218552602487fd5b5050503461021757816003193601126102175760609060055490600654906007549181519384526020840152820152f35b50505034610217578160031936011261021757602090600a549051908152f35b5050503461021757816003193601126102175760135490516001600160a01b039091168152602090f35b5050503461021757816003193601126102175760209060ff600b541690519015158152f35b84823461021757602036600319011261021757356001600160a01b038181169182900361076a5761109b90600e5460081c163314611cb6565b600f80546001600160a01b03191691909117905580f35b505050346102175781600319360112610217576020906008549051908152f35b505050346102175781600319360112610217576020906107ea60ff600b5460101c169151809261191b565b8482853461076a57602080600319360112610766576001600160a01b038335818116918691839003610217576014541691602485518094819363479eaf2560e01b8352898301525afa938415611247578594611196575b5050815181815283518183018190529094859493850193830192905b82811061117f57505050500390f35b835185528695509381019392810192600101611170565b909193503d8086843e6111a98184611951565b8201908483830312610a365782516001600160401b039384821161124357019082601f8301121561122c57815193841161123057508260051b908451936111f287840186611951565b8452858085019282010192831161122c5785809101915b83831061121c5750505050918480611154565b8251815291810191869101611209565b8680fd5b634e487b7160e01b875260419052602486fd5b8780fd5b83513d87823e3d90fd5b90915034610766576020366003190112610766576014548351631ef94b3f60e11b8152833593810193909352610120946001600160a01b03939186908390602490829088165afa938415611395578195829083849185938695878099819c6112f3575b505082519b168b5260208b01528901526112d29060608901906118f8565b1515608087015260a086015260c08501521515908301521515610100820152f35b985098509950509850505050508581813d831161138e575b6113158183611951565b81010312610217578051918483168303610882576020820151958083015191606084015190600382101561088257506112d29061135460808601611c51565b9060a08601519360c0870151956113796101006113728c8b01611c51565b9901611c51565b989b909293959697989a9091929394386112b4565b503d61130b565b508451903d90823e3d90fd5b505050346102175781600319360112610217576020906009549051908152f35b505050346102175781600319360112610217576060906008549060095490600a549181519384526020840152820152f35b5050503461021757816003193601126102175760125490516001600160a01b039091168152602090f35b508383346102175780600319360112610217576010546024906001600160a01b03908535908335906114519084163314611bf0565b600b5460ff8160101c1660058110158061164d57600382141580611640575b61147990611c5e565b61162e576002036115ca57600e5460ff811661157e5796604492610100829a9360018a9b88600c5584600d5560ff191617600e5561ff00191617600b558751958587527fd49e6bd1813fbfe286dc118bb4079a0c5f53c4c9228645a6459e0d74d00dc50f60209988848c809b0152a160145416908951978896879563bddf3c8560e01b87528601528401525af1801561157157611547575b5060ff610994600080516020611d0d833981519152936203000062ff000019600b5416179081600b555192839160101c1661191b565b8190813d831161156a575b61155c8183611951565b8101031261076a5783611511565b503d611552565b50505051903d90823e3d90fd5b865162461bcd60e51b81526020818b01526021818801527f4e42414d61726b65743a20526573756c7420616c726561647920736574746c656044820152601960fa1b6064820152608490fd5b855162461bcd60e51b81526020818a01526039818701527f4e42414d61726b65743a204d61726b6574206d75737420626520696e2053544160448201527814951151081cdd185d1d5cc81d1bc81cd95d081c995cdd5b1d603a1b6064820152608490fd5b634e487b7160e01b8852602189528588fd5b50889050818a1415611470565b634e487b7160e01b895260218a528689fd5b5050503461021757816003193601126102175760209060ff600b5460081c1690519015158152f35b909150346107665783600319360112610766576011546001600160a01b0316936116b2851515611bac565b8351948580946319e26f4b60e01b82526101009788935afa92831561176f57819482908384918593869587809a61170c575b50508151998a5260208a01528801526060870152608086015260a085015260c0840152820152f35b97509950509650505050508484813d8311611768575b61172c8183611951565b81010312610882575082516020840151838501516060860151608087015160a088015160c08901519887015195989597909491939138806116e4565b503d611722565b508351903d90823e3d90fd5b5090503461076a578260031936011261076a57600e546001600160a01b039060ff906117ae33600883901c851614611cb6565b16156118855760ff600b5460101c166005811015610a9257906117e1828460036020951415918261187a575b5050611c5e565b60145416916044600c549186600d54958751968795869463bddf3c8560e01b865285015260248401525af18015610f265761184f575b50602060ff610994600080516020611d0d833981519152936203000062ff000019600b5416179081600b555192839160101c1661191b565b602090813d8111611873575b6118658183611951565b810103126102175738611817565b503d61185b565b1415905084386117da565b506020608492519162461bcd60e51b8352820152602b60248201527f53636f726573206d7573742062652073657420666f7220656d657267656e637960448201526a081cd95d1d1b195b595b9d60aa1b6064820152fd5b8590346102175781600319360112610217576020906003548152f35b9060038210156119055752565b634e487b7160e01b600052602160045260246000fd5b9060058210156119055752565b6001600160401b03811161193b57604052565b634e487b7160e01b600052604160045260246000fd5b601f909101601f19168101906001600160401b0382119082101761193b57604052565b60405190600060025490600182811c90808416938415611a38575b6020948584108114611a245783885287949392918115611a0457506001146119c2575b50506119c092500383611951565b565b90939150600260005281600020936000915b8183106119ec5750506119c0935082010138806119b2565b855488840185015294850194879450918301916119d4565b9150506119c094925060ff191682840152151560051b82010138806119b2565b634e487b7160e01b85526022600452602485fd5b91607f169161198f565b60405190600060019081549182811c90808416938415611acb575b6020948584108114611a245783885287949392918115611a045750600114611a8d5750506119c092500383611951565b600081815285812095935091905b818310611ab35750506119c0935082010138806119b2565b85548884018501529485019487945091830191611a9b565b91607f1691611a5d565b60405190600060045490600182811c90808416938415611b62575b6020948584108114611a245783885287949392918115611a045750600114611b205750506119c092500383611951565b90939150600460005281600020936000915b818310611b4a5750506119c0935082010138806119b2565b85548884018501529485019487945091830191611b32565b91607f1691611af0565b919082519283825260005b848110611b98575050826000602080949584010152601f8019910116010190565b602081830181015184830182015201611b77565b15611bb357565b60405162461bcd60e51b815260206004820152601560248201527413d9191cc818dbdb9d1c9858dd081b9bdd081cd95d605a1b6044820152606490fd5b15611bf757565b60405162461bcd60e51b815260206004820152602c60248201527f4f6e6c7920726573756c74732070726f76696465722063616e2063616c6c207460448201526b3434b990333ab731ba34b7b760a11b6064820152608490fd5b5190811515820361038e57565b15611c6557565b60405162461bcd60e51b815260206004820152602360248201527f4d61726b657420616c726561647920736574746c6564206f722063616e63656c6044820152621b195960ea1b6064820152608490fd5b15611cbd57565b60405162461bcd60e51b815260206004820152602160248201527f4f6e6c792061646d696e2063616e2063616c6c20746869732066756e6374696f6044820152603760f91b6064820152608490fdfeb786c19cad4ec6fc2aeb481fb6b1473feb22fe8caf8abfcb7702a077e98845e4a2646970667358221220e28a0fed21e1ec362ae7aa9664e949dcbb1cd6eb6c0fa914b08b1c80dfe6c68c64736f6c6343000813003360803461019757601f6200138038819003918201601f191683019291906001600160401b0384118385101761019c5781608092849260409687528339810103126101975761004c816101b2565b90610059602082016101b2565b60606100668584016101b2565b9201516001600055926001600160a01b0390811691821561015357811692831561010f57169182156100cb5760018060a01b03199182600354161760035581600154161760015560025416176002556006556000600755516111b99081620001c78239f35b845162461bcd60e51b815260206004820152601d60248201527f496e76616c6964204c6971756964697479506f6f6c20616464726573730000006044820152606490fd5b855162461bcd60e51b815260206004820152601460248201527f496e76616c6964205553445820616464726573730000000000000000000000006044820152606490fd5b855162461bcd60e51b815260206004820152601660248201527f496e76616c6964206d61726b65742061646472657373000000000000000000006044820152606490fd5b600080fd5b634e487b7160e01b600052604160045260246000fd5b51906001600160a01b03821682036101975756fe608080604052600436101561001357600080fd5b60003560e01c90816315ef6c7b14610c745750806322af00fa14610c4d5780632319e3dc14610aed578063311176d714610ac45780633cc6666714610a6c5780633df2967e146109ec578063479eaf2514610938578063665a11ca1461090f57806395623641146108e65780639e1ae2a0146108c8578063bddf3c8514610743578063ce21edd8146106a8578063da4cdb23146105fa5763de8414b6146100b957600080fd5b346105f55760c03660031901126105f5576100d2610d25565b600360443510156105f55760643580151581036105f5576100fe60018060a01b03600354163314610d53565b6002600054146105b057600260005560243515610572576103e88060843510610535576084356024350260243581046084350361051f57610143916024359104610db7565b9061015082600754610dc4565b600654106104a4576001546040516323b872dd60e01b81526001600160a01b03858116600483015230602480840191909152356044830152909160209183916064918391600091165af190811561049857600091610469575b50156103e7576101bb82600754610dc4565b60075560045460405190929061012081016001600160401b038111828210176103a55760409081526001600160a01b03861682526024356020830190815290820183815260443560608401908152851515608085015260a43560a085015260843560c0850152600060e0850181905261010085015290600160401b8710156103a5576001870160045561024d87610c8f565b9390936103d157845184546001600160a01b0319166001600160a01b0391909116178455516001840155516002830155519060038210156103bb576102e7926006826102b56003610100950160ff199660ff8883541691161781556080850151151590610e0c565b60a0830151600482015560c08301516005820155019260ff60e083015115159185541691161783550151151590610e0c565b6001600160a01b03841660009081526005602052604090208054600160401b8110156103a5576020958593610345837f95e3c80d81e8683384b5960f0d2c0c12bd9309b1549e7083c249a57457f7aaff95600160c096018155610d3b565b81549060031b9087821b91600019901b1916179055604051956024358752610371898801604435610cc4565b1515604087015260a4356060870152608435608087015260a08601526001600160a01b031693a36001600055604051908152f35b634e487b7160e01b600052604160045260246000fd5b634e487b7160e01b600052602160045260246000fd5b634e487b7160e01b600052600060045260246000fd5b60405162461bcd60e51b815260206004820152604e60248201527f42657474696e67456e67696e653a20546f6b656e207472616e7366657220666160448201527f696c65642e20456e737572652073756666696369656e742062616c616e63652060648201526d30b7321030b63637bbb0b731b29760911b608482015260a490fd5b61048b915060203d602011610491575b6104838183610dd1565b810190610df4565b386101a9565b503d610479565b6040513d6000823e3d90fd5b60405162461bcd60e51b815260206004820152604760248201527f42657474696e67456e67696e653a204d61726b65742063616e6e6f742061636360448201527f6570742074686973206265742073697a6520776974682063757272656e74206560648201526678706f7375726560c81b608482015260a490fd5b634e487b7160e01b600052601160045260246000fd5b60405162461bcd60e51b815260206004820152601560248201527404f646473206d757374206265203e3d20312e30303605c1b6044820152606490fd5b60405162461bcd60e51b8152602060048201526016602482015275042657420616d6f756e74206d757374206265203e20360541b6044820152606490fd5b60405162461bcd60e51b815260206004820152601f60248201527f5265656e7472616e637947756172643a207265656e7472616e742063616c6c006044820152606490fd5b600080fd5b346105f55760203660031901126105f55760043561062360018060a01b03600354163314610d53565b600754811061063157600655005b60a460405162461bcd60e51b815260206004820152604460248201527f42657474696e67456e67696e653a204e6577206d6178206578706f737572652060448201527f63616e6e6f74206265206c657373207468616e2063757272656e74206578706f6064820152637375726560e01b6084820152fd5b346105f55760203660031901126105f5576002546001600160a01b031633036106de576106d9600435600654610dc4565b600655005b60405162461bcd60e51b815260206004820152603760248201527f42657474696e67456e67696e653a204f6e6c79204c6971756964697479506f6f6044820152766c2063616e20696e637265617365206578706f7375726560481b6064820152608490fd5b346105f55760403660031901126105f5576004356024359060018060a01b0361077181600354163314610d53565b60005b600454811080156108b65761078890610e4e565b61079181610c8f565b5090826006830192835460ff8116156107b7575b5050506107b29150610e24565b610774565b6107d76107c5898985611029565b80966001809460ff1916178155610e0c565b6000851561088257506107f281830154600284015490610dc4565b928391541686835416604051809263a9059cbb60e01b82528160008161081f602098899760048401610e33565b03925af195861561049857878694600080516020611164833981519152946040946107b29a610864575b50505b541694825191151582526020820152a38286806107a5565b8161087a92903d10610491576104838183610dd1565b508c80610849565b9260008051602061116483398151915291506107b295604091846002889601546108af6007918254610db7565b905561084c565b60206108c0610e8b565b604051908152f35b346105f55760003660031901126105f5576020600654604051908152f35b346105f55760003660031901126105f5576003546040516001600160a01b039091168152602090f35b346105f55760003660031901126105f5576002546040516001600160a01b039091168152602090f35b346105f5576020806003193601126105f5576001600160a01b0361095a610d25565b1660005260058152604060002060405190818382549182815201908192600052846000209060005b868282106109d857868661099882880383610dd1565b604051928392818401908285525180915260408401929160005b8281106109c157505050500390f35b8351855286955093810193928101926001016109b2565b835485529093019260019283019201610982565b346105f55760203660031901126105f557610a15600435610a106004548210610e4e565b610c8f565b5060018060a01b0381541690610a686001820154916002810154926003820154916004810154600660058301549201549360405197889760ff808860081c1697169560ff808560081c169416928a610cd1565b0390f35b346105f55760403660031901126105f557610a85610d25565b6001600160a01b03166000908152600560205260409020805460243591908210156105f557602091610ab691610d3b565b90546040519160031b1c8152f35b346105f55760003660031901126105f5576001546040516001600160a01b039091168152602090f35b346105f55760003660031901126105f5576003546001600160a01b0390610b179082163314610d53565b60009060005b600454811015610c1857610b3081610c8f565b506006810180549060ff821615610b53575b505050610b4e90610e24565b610b1d565b6001809261ffff191617905580820154908115610b42578490959392955416928185875416604051809663a9059cbb60e01b825281600081610b9c6020998a9760048401610e33565b03925af19182156104985786610bcf60008051602061116483398151915293604093610b4e998997610bfb575b50610dc4565b986002810154610be26007918254610db7565b90555416936000825191818352820152a3908480610b42565b610c1190893d8b11610491576104838183610dd1565b508c610bc9565b7f5acc3653d085a8a05d8682b132c9d1ffa7976497780b87ebfa5c4569eaa19c82602084604051908152a160206108c0610e8b565b346105f55760203660031901126105f5576004356004548110156105f557610a1590610c8f565b346105f55760003660031901126105f5576020906007548152f35b600454811015610cae5760046000526007602060002091020190600090565b634e487b7160e01b600052603260045260246000fd5b9060038210156103bb5752565b97949193610d06919a99969361010098956101208b019c60018060a01b03168b5260208b015260408a01526060890190610cc4565b1515608087015260a086015260c0850152151560e08401521515910152565b600435906001600160a01b03821682036105f557565b8054821015610cae5760005260206000200190600090565b15610d5a57565b60405162461bcd60e51b815260206004820152602f60248201527f4f6e6c7920746865206d61726b657420636f6e74726163742063616e2063616c60448201526e36103a3434b990333ab731ba34b7b760891b6064820152608490fd5b9190820391821161051f57565b9190820180921161051f57565b601f909101601f19168101906001600160401b038211908210176103a557604052565b908160209103126105f5575180151581036105f55790565b9061ff00825491151560081b169061ff001916179055565b600019811461051f5760010190565b6001600160a01b039091168152602081019190915260400190565b15610e5557565b60405162461bcd60e51b815260206004820152600e60248201526d125b9d985b1a590818995d08125160921b6044820152606490fd5b600154604080516370a0823160e01b8152306004820152916020906001600160a01b039081168285602481845afa948515610fa957600095610fd0575b50600060075584908115610fb457610efe91849184600254166000885180968195829463095ea7b360e01b845260048401610e33565b03925af18015610fa957610f8c575b506002541691823b156105f5576000809360248351809681936322baaeeb60e11b83528960048401525af18015610f8157610f5c575b600080516020611144833981519152925051838152a190565b6001600160401b0383116103a557600080516020611144833981519152928152610f43565b50513d6000823e3d90fd5b610fa290833d8511610491576104838183610dd1565b5038610f0d565b84513d6000823e3d90fd5b505050600080516020611144833981519152915160008152a190565b90948382813d8311610ffb575b610fe78183610dd1565b81010312610ff85750519338610ec8565b80fd5b503d610fdd565b90600a820291808305600a149015171561051f57565b600160ff1b811461051f5760000390565b919060038301549060ff821660038110156103bb578061108e5750828111935090918361107f575b831561105e575b50505090565b11915081611070575b50388080611058565b60ff915060081c161538611067565b925060ff8260081c1692611051565b600181036110e557506000838203931281841281169184139015161761051f5760081c60ff16156110d35760046110c76110cf92611002565b920154611018565b1290565b60046110c76110e192611002565b1390565b91939290916002146110fa5750505050600090565b61110860049160ff93610dc4565b9201549260081c161561112c57600a810290808204600a149015171561051f571190565b600a810290808204600a149015171561051f57109056fe3a17b09fdeffe50add2e5a585692d360db7e9e47a81627894b40203fca500906e730d6310bec1dfc964bdf1e3f75a78c8ef2dee9d092f9ff09253258852ed7d4a26469706673582212205f9306c709875f16df83046a9631c276d37fe1d8b33e89a1c82ead2de9d45c4264736f6c63430008130033405787fa12a823e0f2b7631cc41b3ba8828b3321ca811111fa75cd3aa3bb5aceb10e2d527612073b26eecdfd717e6a320cf44b4afac2b0732d9fcbe2b7fa0cf6f652222313e28459528d920b65115c16c04f3efc82aaedc97be59f3f377c0d3f3e6c9b957b95e21785f2a3842fc8fcd347031e87236363d6f4ce806285311196a2646970667358221220e325ebf90f76c46f4138446b318d51c6e7429b233133cb9f8f13ee216b8cd54964736f6c63430008130033",
  "linkReferences": {},
  "deployedLinkReferences": {}
}