{
  "_format": "hh-sol-artifact-1",
  "contractName": "NBAMarket",
  "sourceName": "contracts/NBAMarket.sol",
  "abi": [
    {
      "inputs": [
        {
          "internalType": "string",
          "name": "_homeTeam",
          "type": "string"
        },
        {
          "internalType": "string",
          "name": "_awayTeam",
          "type": "string"
        },
        {
          "internalType": "uint256",
          "name": "_gameTimestamp",
          "type": "uint256"
        },
        {
          "internalType": "string",
          "name": "_oddsApiId",
          "type": "string"
        },
        {
          "internalType": "address",
          "name": "_admin",
          "type": "address"
        },
        {
          "internalType": "address",
          "name": "_oddsProvider",
          "type": "address"
        },
        {
          "internalType": "address",
          "name": "_resultsProvider",
          "type": "address"
        },
        {
          "internalType": "address",
          "name": "_usdx",
          "type": "address"
        },
        {
          "internalType": "address",
          "name": "_liquidityPool",
          "type": "address"
        },
        {
          "internalType": "address",
          "name": "_marketOddsContract",
          "type": "address"
        },
        {
          "internalType": "uint256",
          "name": "_maxExposure",
          "type": "uint256"
        }
      ],
      "stateMutability": "nonpayable",
      "type": "constructor"
    },
    {
      "anonymous": false,
      "inputs": [],
      "name": "GameStarted",
      "type": "event"
    },
    {
      "anonymous": false,
      "inputs": [
        {
          "indexed": false,
          "internalType": "uint256",
          "name": "homeScore",
          "type": "uint256"
        },
        {
          "indexed": false,
          "internalType": "uint256",
          "name": "awayScore",
          "type": "uint256"
        }
      ],
      "name": "MarketResultSet",
      "type": "event"
    },
    {
      "anonymous": false,
      "inputs": [
        {
          "indexed": false,
          "internalType": "enum NBAMarket.MarketStatus",
          "name": "newStatus",
          "type": "uint8"
        }
      ],
      "name": "MarketStatusChanged",
      "type": "event"
    },
    {
      "inputs": [],
      "name": "admin",
      "outputs": [
        {
          "internalType": "address",
          "name": "",
          "type": "address"
        }
      ],
      "stateMutability": "view",
      "type": "function"
    },
    {
      "inputs": [],
      "name": "awayScore",
      "outputs": [
        {
          "internalType": "uint256",
          "name": "",
          "type": "uint256"
        }
      ],
      "stateMutability": "view",
      "type": "function"
    },
    {
      "inputs": [],
      "name": "awaySpreadOdds",
      "outputs": [
        {
          "internalType": "uint256",
          "name": "",
          "type": "uint256"
        }
      ],
      "stateMutability": "view",
      "type": "function"
    },
    {
      "inputs": [],
      "name": "awayTeam",
      "outputs": [
        {
          "internalType": "string",
          "name": "",
          "type": "string"
        }
      ],
      "stateMutability": "view",
      "type": "function"
    },
    {
      "inputs": [],
      "name": "bettingEngine",
      "outputs": [
        {
          "internalType": "contract BettingEngine",
          "name": "",
          "type": "address"
        }
      ],
      "stateMutability": "view",
      "type": "function"
    },
    {
      "inputs": [],
      "name": "cancelMarket",
      "outputs": [],
      "stateMutability": "nonpayable",
      "type": "function"
    },
    {
      "inputs": [
        {
          "internalType": "address",
          "name": "_newOddsProvider",
          "type": "address"
        }
      ],
      "name": "changeOddsProvider",
      "outputs": [],
      "stateMutability": "nonpayable",
      "type": "function"
    },
    {
      "inputs": [
        {
          "internalType": "address",
          "name": "_newResultsProvider",
          "type": "address"
        }
      ],
      "name": "changeResultsProvider",
      "outputs": [],
      "stateMutability": "nonpayable",
      "type": "function"
    },
    {
      "inputs": [],
      "name": "emergencySettle",
      "outputs": [],
      "stateMutability": "nonpayable",
      "type": "function"
    },
    {
      "inputs": [],
      "name": "gameEnded",
      "outputs": [
        {
          "internalType": "bool",
          "name": "",
          "type": "bool"
        }
      ],
      "stateMutability": "view",
      "type": "function"
    },
    {
      "inputs": [],
      "name": "gameStarted",
      "outputs": [
        {
          "internalType": "bool",
          "name": "",
          "type": "bool"
        }
      ],
      "stateMutability": "view",
      "type": "function"
    },
    {
      "inputs": [],
      "name": "gameTimestamp",
      "outputs": [
        {
          "internalType": "uint256",
          "name": "",
          "type": "uint256"
        }
      ],
      "stateMutability": "view",
      "type": "function"
    },
    {
      "inputs": [
        {
          "internalType": "uint256",
          "name": "_betId",
          "type": "uint256"
        }
      ],
      "name": "getBetDetails",
      "outputs": [
        {
          "internalType": "address",
          "name": "_bettor",
          "type": "address"
        },
        {
          "internalType": "uint256",
          "name": "_amount",
          "type": "uint256"
        },
        {
          "internalType": "uint256",
          "name": "_potentialWinnings",
          "type": "uint256"
        },
        {
          "internalType": "enum BettingEngine.BetType",
          "name": "_betType",
          "type": "uint8"
        },
        {
          "internalType": "bool",
          "name": "_isBettingOnHomeOrOver",
          "type": "bool"
        },
        {
          "internalType": "int256",
          "name": "_line",
          "type": "int256"
        },
        {
          "internalType": "uint256",
          "name": "_odds",
          "type": "uint256"
        },
        {
          "internalType": "bool",
          "name": "_settled",
          "type": "bool"
        },
        {
          "internalType": "bool",
          "name": "_won",
          "type": "bool"
        }
      ],
      "stateMutability": "view",
      "type": "function"
    },
    {
      "inputs": [
        {
          "internalType": "address",
          "name": "_bettor",
          "type": "address"
        }
      ],
      "name": "getBettorBets",
      "outputs": [
        {
          "internalType": "uint256[]",
          "name": "",
          "type": "uint256[]"
        }
      ],
      "stateMutability": "view",
      "type": "function"
    },
    {
      "inputs": [],
      "name": "getExposureInfo",
      "outputs": [
        {
          "internalType": "uint256",
          "name": "",
          "type": "uint256"
        },
        {
          "internalType": "uint256",
          "name": "",
          "type": "uint256"
        }
      ],
      "stateMutability": "view",
      "type": "function"
    },
    {
      "inputs": [],
      "name": "getFullOdds",
      "outputs": [
        {
          "internalType": "uint256",
          "name": "_homeOdds",
          "type": "uint256"
        },
        {
          "internalType": "uint256",
          "name": "_awayOdds",
          "type": "uint256"
        },
        {
          "internalType": "uint256",
          "name": "_drawOdds",
          "type": "uint256"
        },
        {
          "internalType": "int256",
          "name": "_homeSpreadPoints",
          "type": "int256"
        },
        {
          "internalType": "uint256",
          "name": "_homeSpreadOdds",
          "type": "uint256"
        },
        {
          "internalType": "uint256",
          "name": "_awaySpreadOdds",
          "type": "uint256"
        },
        {
          "internalType": "uint256",
          "name": "_totalPoints",
          "type": "uint256"
        },
        {
          "internalType": "uint256",
          "name": "_overOdds",
          "type": "uint256"
        },
        {
          "internalType": "uint256",
          "name": "_underOdds",
          "type": "uint256"
        }
      ],
      "stateMutability": "view",
      "type": "function"
    },
    {
      "inputs": [],
      "name": "getMarketDetails",
      "outputs": [
        {
          "internalType": "string",
          "name": "_homeTeam",
          "type": "string"
        },
        {
          "internalType": "string",
          "name": "_awayTeam",
          "type": "string"
        },
        {
          "internalType": "uint256",
          "name": "_gameTimestamp",
          "type": "uint256"
        },
        {
          "internalType": "string",
          "name": "_oddsApiId",
          "type": "string"
        },
        {
          "internalType": "enum NBAMarket.MarketStatus",
          "name": "_marketStatus",
          "type": "uint8"
        },
        {
          "internalType": "bool",
          "name": "_resultSettled",
          "type": "bool"
        },
        {
          "internalType": "uint256",
          "name": "_homeScore",
          "type": "uint256"
        },
        {
          "internalType": "uint256",
          "name": "_awayScore",
          "type": "uint256"
        }
      ],
      "stateMutability": "view",
      "type": "function"
    },
    {
      "inputs": [],
      "name": "getMarketOddsContract",
      "outputs": [
        {
          "internalType": "address",
          "name": "",
          "type": "address"
        }
      ],
      "stateMutability": "view",
      "type": "function"
    },
    {
      "inputs": [],
      "name": "getSpreadDetails",
      "outputs": [
        {
          "internalType": "int256",
          "name": "_homeSpreadPoints",
          "type": "int256"
        },
        {
          "internalType": "uint256",
          "name": "_homeSpreadOdds",
          "type": "uint256"
        },
        {
          "internalType": "uint256",
          "name": "_awaySpreadOdds",
          "type": "uint256"
        }
      ],
      "stateMutability": "view",
      "type": "function"
    },
    {
      "inputs": [],
      "name": "getStatus",
      "outputs": [
        {
          "internalType": "enum NBAMarket.MarketStatus",
          "name": "",
          "type": "uint8"
        }
      ],
      "stateMutability": "view",
      "type": "function"
    },
    {
      "inputs": [],
      "name": "getTotalPointsDetails",
      "outputs": [
        {
          "internalType": "uint256",
          "name": "_totalPoints",
          "type": "uint256"
        },
        {
          "internalType": "uint256",
          "name": "_overOdds",
          "type": "uint256"
        },
        {
          "internalType": "uint256",
          "name": "_underOdds",
          "type": "uint256"
        }
      ],
      "stateMutability": "view",
      "type": "function"
    },
    {
      "inputs": [],
      "name": "homeScore",
      "outputs": [
        {
          "internalType": "uint256",
          "name": "",
          "type": "uint256"
        }
      ],
      "stateMutability": "view",
      "type": "function"
    },
    {
      "inputs": [],
      "name": "homeSpreadOdds",
      "outputs": [
        {
          "internalType": "uint256",
          "name": "",
          "type": "uint256"
        }
      ],
      "stateMutability": "view",
      "type": "function"
    },
    {
      "inputs": [],
      "name": "homeSpreadPoints",
      "outputs": [
        {
          "internalType": "int256",
          "name": "",
          "type": "int256"
        }
      ],
      "stateMutability": "view",
      "type": "function"
    },
    {
      "inputs": [],
      "name": "homeTeam",
      "outputs": [
        {
          "internalType": "string",
          "name": "",
          "type": "string"
        }
      ],
      "stateMutability": "view",
      "type": "function"
    },
    {
      "inputs": [],
      "name": "isMarketOpenForBetting",
      "outputs": [
        {
          "internalType": "bool",
          "name": "",
          "type": "bool"
        }
      ],
      "stateMutability": "view",
      "type": "function"
    },
    {
      "inputs": [],
      "name": "liquidityPool",
      "outputs": [
        {
          "internalType": "contract LiquidityPool",
          "name": "",
          "type": "address"
        }
      ],
      "stateMutability": "view",
      "type": "function"
    },
    {
      "inputs": [],
      "name": "marketOddsContract",
      "outputs": [
        {
          "internalType": "address",
          "name": "",
          "type": "address"
        }
      ],
      "stateMutability": "view",
      "type": "function"
    },
    {
      "inputs": [],
      "name": "marketStatus",
      "outputs": [
        {
          "internalType": "enum NBAMarket.MarketStatus",
          "name": "",
          "type": "uint8"
        }
      ],
      "stateMutability": "view",
      "type": "function"
    },
    {
      "inputs": [],
      "name": "oddsApiId",
      "outputs": [
        {
          "internalType": "string",
          "name": "",
          "type": "string"
        }
      ],
      "stateMutability": "view",
      "type": "function"
    },
    {
      "inputs": [],
      "name": "oddsProvider",
      "outputs": [
        {
          "internalType": "address",
          "name": "",
          "type": "address"
        }
      ],
      "stateMutability": "view",
      "type": "function"
    },
    {
      "inputs": [],
      "name": "overOdds",
      "outputs": [
        {
          "internalType": "uint256",
          "name": "",
          "type": "uint256"
        }
      ],
      "stateMutability": "view",
      "type": "function"
    },
    {
      "inputs": [
        {
          "internalType": "enum BettingEngine.BetType",
          "name": "_betType",
          "type": "uint8"
        },
        {
          "internalType": "uint256",
          "name": "_amount",
          "type": "uint256"
        },
        {
          "internalType": "bool",
          "name": "_isBettingOnHomeOrOver",
          "type": "bool"
        }
      ],
      "name": "placeBet",
      "outputs": [],
      "stateMutability": "nonpayable",
      "type": "function"
    },
    {
      "inputs": [],
      "name": "resultSettled",
      "outputs": [
        {
          "internalType": "bool",
          "name": "",
          "type": "bool"
        }
      ],
      "stateMutability": "view",
      "type": "function"
    },
    {
      "inputs": [],
      "name": "resultsProvider",
      "outputs": [
        {
          "internalType": "address",
          "name": "",
          "type": "address"
        }
      ],
      "stateMutability": "view",
      "type": "function"
    },
    {
      "inputs": [
        {
          "internalType": "uint256",
          "name": "_homeScore",
          "type": "uint256"
        },
        {
          "internalType": "uint256",
          "name": "_awayScore",
          "type": "uint256"
        }
      ],
      "name": "setResult",
      "outputs": [],
      "stateMutability": "nonpayable",
      "type": "function"
    },
    {
      "inputs": [],
      "name": "startGame",
      "outputs": [],
      "stateMutability": "nonpayable",
      "type": "function"
    },
    {
      "inputs": [],
      "name": "totalPoints",
      "outputs": [
        {
          "internalType": "uint256",
          "name": "",
          "type": "uint256"
        }
      ],
      "stateMutability": "view",
      "type": "function"
    },
    {
      "inputs": [],
      "name": "tryOpenMarket",
      "outputs": [],
      "stateMutability": "nonpayable",
      "type": "function"
    },
    {
      "inputs": [],
      "name": "underOdds",
      "outputs": [
        {
          "internalType": "uint256",
          "name": "",
          "type": "uint256"
        }
      ],
      "stateMutability": "view",
      "type": "function"
    },
    {
      "inputs": [
        {
          "internalType": "uint256",
          "name": "_newMaxExposure",
          "type": "uint256"
        }
      ],
      "name": "updateMaxExposure",
      "outputs": [],
      "stateMutability": "nonpayable",
      "type": "function"
    },
    {
      "inputs": [],
      "name": "usdx",
      "outputs": [
        {
          "internalType": "contract IERC20",
          "name": "",
          "type": "address"
        }
      ],
      "stateMutability": "view",
      "type": "function"
    }
  ],
  "bytecode": "0x60808060405234620004655762003d1b80380380916200002082856200076b565b8339810161016082820312620004655781516001600160401b0381116200046557816200004f9184016200078f565b60208301516001600160401b038111620004655782620000719185016200078f565b6040840151606085015190939192916001600160401b03821162000465576200009c9186016200078f565b93620000ab6080820162000806565b620000b960a0830162000806565b91620000c860c0820162000806565b620000d660e0830162000806565b96620000e6610100840162000806565b96610140620000f9610120860162000806565b9401516001600055875190976001600160401b038211620004065760015490600182811c9216801562000760575b60208310146200055e5781601f849311620006ff575b50602090601f8311600114620006815760009262000675575b50508160011b916000199060031b1c1916176001555b8051906001600160401b038211620004065760025490600182811c921680156200066a575b60208310146200055e5781601f84931162000609575b50602090601f83116001146200058b576000926200057f575b50508160011b916000199060031b1c1916176002555b60035587516001600160401b0381116200040657600454600181811c9116801562000574575b60208210146200055e57601f8111620004f4575b506020601f82116001146200047f579080602094939260049b60009262000473575b50508160011b916000199060031b1c19161789555b600e8054610100600160a81b03198116600887901b610100600160a81b031617909155600f80546001600160a01b03199081166001600160a01b0398891617909155601080548216938816939093179092556011805483169387169384179055601280548316998716998a1790556013805490921697909516968717905560405163175a1a1760e11b815297959695889182905afa958615620003fa576000966200042a575b50600b805462ff0000191680825590966200041c575b50855461ffff191686556001600160a81b031990911660089190911b610100600160a81b031617600e55604051926113dd91828501916001600160401b0383118684101762000406576080948694620028fe86393084526020840152604083015260608201520301906000f0908115620003fa57601480546001600160a01b0319166001600160a01b0390931692909217909155546040519060101c60ff166005811015620003e457816020917fb786c19cad4ec6fc2aeb481fb6b1473feb22fe8caf8abfcb7702a077e98845e49352a16040516120e290816200081c8239f35b634e487b7160e01b600052602160045260246000fd5b6040513d6000823e3d90fd5b634e487b7160e01b600052604160045260246000fd5b620100001786553862000303565b9095506020813d6020116200046a575b8162000449602093836200076b565b81010312620004655751801515810362000465579438620002ed565b600080fd5b3d91506200043a565b01519050388062000232565b600460005260206000209960005b601f1984168110620004db57509160049a600192602096959483601f19811610620004c1575b505050811b01895562000247565b015160001960f88460031b161c19169055388080620004b3565b828201518c556001909b019a602092830192016200048d565b60046000527f8a35acfbc15ff81a39ae7d344fd709f28e8600b4aa8c65c6b64bfe7fe36bd19b601f830160051c8101916020841062000553575b601f0160051c01905b81811062000546575062000210565b6000815560010162000537565b90915081906200052e565b634e487b7160e01b600052602260045260246000fd5b90607f1690620001fc565b015190503880620001c0565b60026000908152935060008051602062003cdb83398151915291905b601f1984168510620005ed576001945083601f19811610620005d3575b505050811b01600255620001d6565b015160001960f88460031b161c19169055388080620005c4565b81810151835560209485019460019093019290910190620005a7565b600260005290915060008051602062003cdb833981519152601f840160051c81016020851062000662575b90849392915b601f830160051c8201811062000652575050620001a7565b600081558594506001016200063a565b508062000634565b91607f169162000191565b01519050388062000156565b60016000908152935060008051602062003cfb83398151915291905b601f1984168510620006e3576001945083601f19811610620006c9575b505050811b016001556200016c565b015160001960f88460031b161c19169055388080620006ba565b818101518355602094850194600190930192909101906200069d565b600160005290915060008051602062003cfb833981519152601f840160051c81016020851062000758575b90849392915b601f830160051c82018110620007485750506200013d565b6000815585945060010162000730565b50806200072a565b91607f169162000127565b601f909101601f19168101906001600160401b038211908210176200040657604052565b919080601f8401121562000465578251906001600160401b038211620004065760405191602091620007cb601f8301601f19168401856200076b565b818452828287010111620004655760005b818110620007f257508260009394955001015290565b8581018301518482018401528201620007dc565b51906001600160a01b0382168203620004655756fe608060408181526004918236101561001657600080fd5b60009260e08435811c92836306705b2d14611c415750826306fe876614611ae057826319e26f4b146119d85782632f6fe396146119b0578263310efb481461176d578263311176d71461174357826336d1e69b146117125782633cc4c0e1146116f25782633df2967e146115a3578263479eaf251461144f5782634e69d56014611424578263567142be1461140457826359353612146113b45782635e123ce41461138f578263665a11ca1461136557826367b952ab1461134557826368ee8634146113145782636bfefd6b146111915782636c81ea0a146111675782636db5fc9c146111475782637ba029391461111d5782637d79c192146110fe57826380327bbb146110ae5782638ceec93f1461108e57826390065d5f14610fe557508163a72f37cd14610fc7578163a780459d14610d06578163ae989d3614610cd1578163bd02de1b14610c8b578163beda201414610c67578163c1aa6b9f14610b7e578163c6cb8ce114610b55578163d38d963914610b36578163d65ab5f21461091f57838263da4cdb231461089c57508163dce4a3b01461087d578163e0e081d714610851578163e7ea03ba14610828578163f034836e146107ff578163f43a6eac1461024457508063f50a81bf146102265763f851a440146101f757600080fd5b34610222578160031936011261022257600e54905160089190911c6001600160a01b03168152602090f35b5080fd5b50346102225781600319360112610222576020906007549051908152f35b919050346107fb576060806003193601126107f757823592808410156107f357602491823594604491823591821515908184036107ef5760028a54146107ae5760028a5560ff600b5460101c16600581101561079c5760010361075d578815610723576011546001600160a01b039081169490938b916102c5871515611f11565b88839785156000146104835783908d519283809263b762b14160e01b82525afa928315610479578493610444575b50508215158061043b575b156103ec57156103e557505b925b6103e884106103aa579260c4959261034b6020999896938d9660145416958c519d8e9b8c9a636f420a5b60e11b8c5233908c01528a0152880190611c5d565b6064860152608485015260a48401525af19081156103a15750610371575b506001815580f35b602090813d811161039a575b6103878183611cb6565b810103126103955738610369565b600080fd5b503d61037d565b513d84823e3d90fd5b885162461bcd60e51b81526020818901526017818a01527614d95b1958dd1959081bd9191cc81b9bdd081d985b1a59604a1b81880152606490fd5b905061030a565b50895162461bcd60e51b81526020818a0152808a018a90527f4d6f6e65796c696e65206f646473206e6f742073657420696e204d61726b657481890152634f64647360e01b6064820152608490fd5b508115156102fe565b80919294506104689350903d10610472575b6104608183611cb6565b81019061201b565b50909138806102f3565b503d610456565b8c513d86823e3d90fd5b92939092916003860361052d57505082908b519283809263b762b14160e01b82525afa918215610523578c92610503575b505080156104c2579261030c565b885162461bcd60e51b8152602081890152601f818a01527f44726177206f646473206e6f742073657420696e204d61726b65744f6464730081880152606490fd5b6105199250803d10610472576104608183611cb6565b91505038806104b4565b8a513d8e823e3d90fd5b969750929590869060018603610627578c51631a3ba18d60e21b815293849182905afa91821561061d57839684936105db575b5050821515806105d2575b15610585571561057e57505b929361030c565b9050610577565b5050885162461bcd60e51b81526020818901526021818a01527f537072656164206f646473206e6f742073657420696e204d61726b65744f646481880152607360f81b6064820152608490fd5b5081151561056b565b92509550915084813d8311610616575b6105f58183611cb6565b810103126106125783516020850151948a01519094913880610560565b8a80fd5b503d6105eb565b8b513d85823e3d90fd5b9250509150600283146000146106ee578b918589928c51938480926336d1e69b60e01b82525afa91821561061d57839684936106c7575b5050821515806106be575b1561067b571561057e5750929361030c565b5050885162461bcd60e51b81526020818901819052818a01527f546f74616c206f646473206e6f742073657420696e204d61726b65744f64647381880152606490fd5b50811515610669565b91965091506106e29250803d10610472576104608183611cb6565b9194909190388061065e565b50885162461bcd60e51b81526020818901526010818a01526f496e76616c696420626574207479706560801b81880152606490fd5b875162461bcd60e51b815260208188015260168189015275042657420616d6f756e74206d757374206265203e20360541b81870152606490fd5b875162461bcd60e51b8152602081880152601b818901527a4d61726b6574206e6f74206f70656e20666f722062657474696e6760281b81870152606490fd5b634e487b7160e01b8b5260218752878bfd5b875162461bcd60e51b8152602081880152601f818901527f5265656e7472616e637947756172643a207265656e7472616e742063616c6c0081870152606490fd5b8980fd5b8480fd5b8380fd5b8280fd5b50503461022257816003193601126102225760115490516001600160a01b039091168152602090f35b50503461022257816003193601126102225760105490516001600160a01b039091168152602090f35b50503461022257816003193601126102225760209061087b60ff600b5460101c1691518092611c80565bf35b5050346102225781600319360112610222576020906006549051908152f35b8091843461091b57602036600319011261091b5760018060a01b036108c981600e5460081c163314612036565b6014541691823b15610916578392602484928451958693849263da4cdb2360e01b84528035908401525af19081156103a157506109035750f35b61090c90611c8d565b6109135780f35b80fd5b505050fd5b5050fd5b839150346102225781600319360112610222576010546001600160a01b03919061094c9083163314611f55565b600b549160ff8360101c166005811015610b23578015908115610b18575b5015610adc576011541690610980821515611f11565b845163175a1a1760e11b81526020939084818481875afa908115610ad2578691610a99575b5015610a485762ff00ff19166202000117600b55813b156107f7578451633dec00b160e21b81529184918391829084905af1610a29575b5060008051602061208d8339815191529192517f762f260439bb4be3ef6e4dc2786e2e7bd187d3d80b79057d7a424fe98563e3358480a1610a258160ff600b5460101c16611c80565ba180f35b91610a4260008051602061208d83398151915293611c8d565b916109dc565b855162461bcd60e51b8152808301859052602560248201527f43616e6e6f742073746172742067616d65206265666f7265206f64647320617260448201526419481cd95d60da1b6064820152608490fd5b90508481813d8311610acb575b610ab08183611cb6565b81010312610ac757610ac190611fb6565b876109a5565b8580fd5b503d610aa6565b87513d88823e3d90fd5b845162461bcd60e51b8152602081840152601660248201527513585c9ad95d08185b1c9958591e481cdd185c9d195960521b6044820152606490fd5b60019150148661096a565b634e487b7160e01b855260218352602485fd5b505034610222578160031936011261022257602090600d549051908152f35b50503461022257816003193601126102225760145490516001600160a01b039091168152602090f35b9050823461091357806003193601126109135760145483516304f0d71560e51b8152926020916001600160a01b031682858381845afa948515610c5d578495610c2e575b5082908651928380926315ef6c7b60e01b82525afa928315610c23578093610bf1575b50508351928352820152f35b909180935082813d8311610c1c575b610c0a8183611cb6565b81010312610913575051908480610be5565b503d610c00565b8551903d90823e3d90fd5b9094508281813d8311610c56575b610c468183611cb6565b810103126107f757519382610bc2565b503d610c3c565b86513d86823e3d90fd5b50503461022257816003193601126102225760209060ff600e541690519015158152f35b9050823461091357806003193601126109135760ff600b5460101c16916005831015610cbe576020836001865191148152f35b634e487b7160e01b825260219052602490fd5b505034610222578160031936011261022257610d0290610cef611da7565b9051918291602083526020830190611ed1565b0390f35b8391503461022257816003193601126102225760018060a01b03610d3281600e5460081c163314612036565b80600f54163303610f7257600b549060ff8260101c166005811015610f5f57610f0c5760115416918215610ec9578451809363175a1a1760e11b8252818360209687935afa908115610ebf578591610e8a575b5015610e2c57600354421015610dca5750610a2560008051602061208d83398151915293946201000060ff9362ff00001916179081600b555192839160101c16611c80565b845162461bcd60e51b8152908101839052603660248201527f4e42414d61726b65743a2047616d652068617320616c726561647920737461726044820152750746564206261736564206f6e2074696d657374616d760541b6064820152608490fd5b845162461bcd60e51b8152908101839052603260248201527f4e42414d61726b65743a204f646473206e6f74207965742073657420696e204d604482015271185c9ad95d13d9191cc818dbdb9d1c9858dd60721b6064820152608490fd5b90508381813d8311610eb8575b610ea18183611cb6565b810103126107f357610eb290611fb6565b86610d85565b503d610e97565b86513d87823e3d90fd5b606490602086519162461bcd60e51b8352820152602060248201527f4e42414d61726b65743a204f64647320636f6e7472616374206e6f74207365746044820152fd5b845162461bcd60e51b8152602081850152602760248201527f4e42414d61726b65743a204d61726b6574206e6f7420696e2050454e44494e476044820152662073746174757360c81b6064820152608490fd5b634e487b7160e01b855260218452602485fd5b835162461bcd60e51b8152602081840152602960248201527f4f6e6c79206f6464732070726f76696465722063616e2063616c6c207468697360448201526810333ab731ba34b7b760b91b6064820152608490fd5b505034610222578160031936011261022257610d0290610cef611e3a565b915050346107fb57826003193601126107fb5761105192506003549160ff600b5460101c169160ff600e5416600c549061107b611070600d5495611027611da7565b98611030611cd9565b9061105f61103c611e3a565b9284519d8e9d8e610100908181520190611ed1565b8d810360208f015290611ed1565b928b015289820360608b0152611ed1565b956080880190611c80565b151560a086015260c08501528301520390f35b505050346102225781600319360112610222576020906005549051908152f35b84823461022257602036600319011261022257356001600160a01b03818116918290036107fb576110e790600e5460081c163314612036565b601080546001600160a01b03191691909117905580f35b50505034610222578160031936011261022257610d0290610cef611cd9565b50505034610222578160031936011261022257600f5490516001600160a01b039091168152602090f35b50505034610222578160031936011261022257602090600c549051908152f35b5050503461022257816003193601126102225760115490516001600160a01b039091168152602090f35b509050346107fb57826003193601126107fb5760018060a01b036111bd81600e5460081c163314612036565b600b5460ff8160101c16600581101580611301576003821415806112f4575b6111e590611fc3565b6112e1576002146112845762ffff0019166204010017600b5560145483516308c678f760e21b815292602092849283918891165af180156112785761124d575b50602060008051602061208d83398151915291610a2560ff600b5460101c1691518092611c80565b602090813d8111611271575b6112638183611cb6565b810103126102225738611225565b503d611259565b505051903d90823e3d90fd5b835162461bcd60e51b8152602081850152603160248201527f43616e6e6f742063616e63656c2061667465722067616d65207374617274656460448201527020756e6c65737320656d657267656e637960781b6064820152608490fd5b634e487b7160e01b865260218452602486fd5b50869050818514156111dc565b634e487b7160e01b875260218552602487fd5b5050503461022257816003193601126102225760609060055490600654906007549181519384526020840152820152f35b50505034610222578160031936011261022257602090600a549051908152f35b5050503461022257816003193601126102225760135490516001600160a01b039091168152602090f35b5050503461022257816003193601126102225760209060ff600b541690519015158152f35b84823461022257602036600319011261022257356001600160a01b03818116918290036107fb576113ed90600e5460081c163314612036565b600f80546001600160a01b03191691909117905580f35b505050346102225781600319360112610222576020906008549051908152f35b5050503461022257816003193601126102225760209061087b60ff600b5460101c1691518092611c80565b848285346107fb576020806003193601126107f7576001600160a01b038335818116918691839003610222576014541691602485518094819363479eaf2560e01b8352898301525afa9384156115995785946114e8575b5050815181815283518183018190529094859493850193830192905b8281106114d157505050500390f35b8351855286955093810193928101926001016114c2565b909193503d8086843e6114fb8184611cb6565b8201908483830312610ac75782516001600160401b039384821161159557019082601f8301121561157e57815193841161158257508260051b9084519361154487840186611cb6565b8452858085019282010192831161157e5785809101915b83831061156e57505050509184806114a6565b825181529181019186910161155b565b8680fd5b634e487b7160e01b875260419052602486fd5b8780fd5b83513d87823e3d90fd5b84849134610222576020366003190112610222576014548351631ef94b3f60e11b8152853586820152610120956001600160a01b03949287908390602490829089165afa9485156116e85783968490859086928794889689988a809d611646575b505083519c9091168c525060208b0152890152611625906060890190611c5d565b1515608087015260a086015260c08501521515908301521515610100820152f35b985098509b5099505095505050508682813d83116116e1575b6116698183611cb6565b810103126109135781519285841684036102225760208301519681840151926060850151918210156109135750611625906116a660808601611fb6565b9060a08601519360c0870151956116cb6101006116c48c8b01611fb6565b9901611fb6565b989b909293959697989a90919293948e80611604565b503d61165f565b86513d85823e3d90fd5b505050346102225781600319360112610222576020906009549051908152f35b505050346102225781600319360112610222576060906008549060095490600a549181519384526020840152820152f35b5050503461022257816003193601126102225760125490516001600160a01b039091168152602090f35b508383346102225780600319360112610222576010546024906001600160a01b03908535908335906117a29084163314611f55565b600b5460ff8160101c1660058110158061199e57600382141580611991575b6117ca90611fc3565b61197f5760020361191b57600e5460ff81166118cf5796604492610100829a9360018a9b88600c5584600d5560ff191617600e5561ff00191617600b558751958587527fd49e6bd1813fbfe286dc118bb4079a0c5f53c4c9228645a6459e0d74d00dc50f60209988848c809b0152a160145416908951978896879563bddf3c8560e01b87528601528401525af180156118c257611898575b5060ff610a2560008051602061208d833981519152936203000062ff000019600b5416179081600b555192839160101c16611c80565b8190813d83116118bb575b6118ad8183611cb6565b810103126107fb5783611862565b503d6118a3565b50505051903d90823e3d90fd5b865162461bcd60e51b81526020818b01526021818801527f4e42414d61726b65743a20526573756c7420616c726561647920736574746c656044820152601960fa1b6064820152608490fd5b855162461bcd60e51b81526020818a01526039818701527f4e42414d61726b65743a204d61726b6574206d75737420626520696e2053544160448201527814951151081cdd185d1d5cc81d1bc81cd95d081c995cdd5b1d603a1b6064820152608490fd5b634e487b7160e01b8852602189528588fd5b50889050818a14156117c1565b634e487b7160e01b895260218a528689fd5b5050503461022257816003193601126102225760209060ff600b5460081c1690519015158152f35b838286346109135780600319360112610913576011546001600160a01b031693611a03851515611f11565b8351948580946319e26f4b60e01b82526101209788935afa928315611ad6578294839084859086928794889689809b611a65575b505081519a8b5260208b01528901526060880152608087015260a086015260c0850152830152610100820152f35b9899509a5050975050505050508484813d8311611acf575b611a878183611cb6565b81010312610913575082519060208401519383810151936060820151608083015160a08401519160c08501519361010087870151960151979998919293949597988c80611a37565b503d611a7d565b84513d84823e3d90fd5b509050346107fb57826003193601126107fb57600e546001600160a01b039060ff90611b1333600883901c851614612036565b1615611bea5760ff600b5460101c166005811015610b235790611b468284600360209514159182611bdf575b5050611fc3565b60145416916044600c549186600d54958751968795869463bddf3c8560e01b865285015260248401525af1801561127857611bb4575b50602060ff610a2560008051602061208d833981519152936203000062ff000019600b5416179081600b555192839160101c16611c80565b602090813d8111611bd8575b611bca8183611cb6565b810103126102225738611b7c565b503d611bc0565b141590508438611b3f565b506020608492519162461bcd60e51b8352820152602b60248201527f53636f726573206d7573742062652073657420666f7220656d657267656e637960448201526a081cd95d1d1b195b595b9d60aa1b6064820152fd5b8590346102225781600319360112610222576020906003548152f35b906004821015611c6a5752565b634e487b7160e01b600052602160045260246000fd5b906005821015611c6a5752565b6001600160401b038111611ca057604052565b634e487b7160e01b600052604160045260246000fd5b601f909101601f19168101906001600160401b03821190821017611ca057604052565b60405190600060025490600182811c90808416938415611d9d575b6020948584108114611d895783885287949392918115611d695750600114611d27575b5050611d2592500383611cb6565b565b90939150600260005281600020936000915b818310611d51575050611d2593508201013880611d17565b85548884018501529485019487945091830191611d39565b915050611d2594925060ff191682840152151560051b8201013880611d17565b634e487b7160e01b85526022600452602485fd5b91607f1691611cf4565b60405190600060019081549182811c90808416938415611e30575b6020948584108114611d895783885287949392918115611d695750600114611df2575050611d2592500383611cb6565b600081815285812095935091905b818310611e18575050611d2593508201013880611d17565b85548884018501529485019487945091830191611e00565b91607f1691611dc2565b60405190600060045490600182811c90808416938415611ec7575b6020948584108114611d895783885287949392918115611d695750600114611e85575050611d2592500383611cb6565b90939150600460005281600020936000915b818310611eaf575050611d2593508201013880611d17565b85548884018501529485019487945091830191611e97565b91607f1691611e55565b919082519283825260005b848110611efd575050826000602080949584010152601f8019910116010190565b602081830181015184830182015201611edc565b15611f1857565b60405162461bcd60e51b815260206004820152601560248201527413d9191cc818dbdb9d1c9858dd081b9bdd081cd95d605a1b6044820152606490fd5b15611f5c57565b60405162461bcd60e51b815260206004820152602c60248201527f4f6e6c7920726573756c74732070726f76696465722063616e2063616c6c207460448201526b3434b990333ab731ba34b7b760a11b6064820152608490fd5b5190811515820361039557565b15611fca57565b60405162461bcd60e51b815260206004820152602360248201527f4d61726b657420616c726561647920736574746c6564206f722063616e63656c6044820152621b195960ea1b6064820152608490fd5b90816060910312610395578051916040602083015192015190565b1561203d57565b60405162461bcd60e51b815260206004820152602160248201527f4f6e6c792061646d696e2063616e2063616c6c20746869732066756e6374696f6044820152603760f91b6064820152608490fdfeb786c19cad4ec6fc2aeb481fb6b1473feb22fe8caf8abfcb7702a077e98845e4a26469706673582212209ad994b9280d0ee6e7ea445fbc73943b1b168c4885c0dcd8e0fdae1709ee514e64736f6c6343000813003360803461019757601f620013dd38819003918201601f191683019291906001600160401b0384118385101761019c5781608092849260409687528339810103126101975761004c816101b2565b90610059602082016101b2565b60606100668584016101b2565b9201516001600055926001600160a01b0390811691821561015357811692831561010f57169182156100cb5760018060a01b03199182600354161760035581600154161760015560025416176002556006556000600755516112169081620001c78239f35b845162461bcd60e51b815260206004820152601d60248201527f496e76616c6964204c6971756964697479506f6f6c20616464726573730000006044820152606490fd5b855162461bcd60e51b815260206004820152601460248201527f496e76616c6964205553445820616464726573730000000000000000000000006044820152606490fd5b855162461bcd60e51b815260206004820152601660248201527f496e76616c6964206d61726b65742061646472657373000000000000000000006044820152606490fd5b600080fd5b634e487b7160e01b600052604160045260246000fd5b51906001600160a01b03821682036101975756fe608080604052600436101561001357600080fd5b60003560e01c90816315ef6c7b14610c745750806322af00fa14610c4d5780632319e3dc14610aed578063311176d714610ac45780633cc6666714610a6c5780633df2967e146109ec578063479eaf2514610938578063665a11ca1461090f57806395623641146108e65780639e1ae2a0146108c8578063bddf3c8514610743578063ce21edd8146106a8578063da4cdb23146105fa5763de8414b6146100b957600080fd5b346105f55760c03660031901126105f5576100d2610d25565b600460443510156105f55760643580151581036105f5576100fe60018060a01b03600354163314610d53565b6002600054146105b057600260005560243515610572576103e88060843510610535576084356024350260243581046084350361051f57610143916024359104610db7565b9061015082600754610dc4565b600654106104a4576001546040516323b872dd60e01b81526001600160a01b03858116600483015230602480840191909152356044830152909160209183916064918391600091165af190811561049857600091610469575b50156103e7576101bb82600754610dc4565b60075560045460405190929061012081016001600160401b038111828210176103a55760409081526001600160a01b03861682526024356020830190815290820183815260443560608401908152851515608085015260a43560a085015260843560c0850152600060e0850181905261010085015290600160401b8710156103a5576001870160045561024d87610c8f565b9390936103d157845184546001600160a01b0319166001600160a01b0391909116178455516001840155516002830155519060048210156103bb576102e7926006826102b56003610100950160ff199660ff8883541691161781556080850151151590610e0c565b60a0830151600482015560c08301516005820155019260ff60e083015115159185541691161783550151151590610e0c565b6001600160a01b03841660009081526005602052604090208054600160401b8110156103a5576020958593610345837f95e3c80d81e8683384b5960f0d2c0c12bd9309b1549e7083c249a57457f7aaff95600160c096018155610d3b565b81549060031b9087821b91600019901b1916179055604051956024358752610371898801604435610cc4565b1515604087015260a4356060870152608435608087015260a08601526001600160a01b031693a36001600055604051908152f35b634e487b7160e01b600052604160045260246000fd5b634e487b7160e01b600052602160045260246000fd5b634e487b7160e01b600052600060045260246000fd5b60405162461bcd60e51b815260206004820152604e60248201527f42657474696e67456e67696e653a20546f6b656e207472616e7366657220666160448201527f696c65642e20456e737572652073756666696369656e742062616c616e63652060648201526d30b7321030b63637bbb0b731b29760911b608482015260a490fd5b61048b915060203d602011610491575b6104838183610dd1565b810190610df4565b386101a9565b503d610479565b6040513d6000823e3d90fd5b60405162461bcd60e51b815260206004820152604760248201527f42657474696e67456e67696e653a204d61726b65742063616e6e6f742061636360448201527f6570742074686973206265742073697a6520776974682063757272656e74206560648201526678706f7375726560c81b608482015260a490fd5b634e487b7160e01b600052601160045260246000fd5b60405162461bcd60e51b815260206004820152601560248201527404f646473206d757374206265203e3d20312e30303605c1b6044820152606490fd5b60405162461bcd60e51b8152602060048201526016602482015275042657420616d6f756e74206d757374206265203e20360541b6044820152606490fd5b60405162461bcd60e51b815260206004820152601f60248201527f5265656e7472616e637947756172643a207265656e7472616e742063616c6c006044820152606490fd5b600080fd5b346105f55760203660031901126105f55760043561062360018060a01b03600354163314610d53565b600754811061063157600655005b60a460405162461bcd60e51b815260206004820152604460248201527f42657474696e67456e67696e653a204e6577206d6178206578706f737572652060448201527f63616e6e6f74206265206c657373207468616e2063757272656e74206578706f6064820152637375726560e01b6084820152fd5b346105f55760203660031901126105f5576002546001600160a01b031633036106de576106d9600435600654610dc4565b600655005b60405162461bcd60e51b815260206004820152603760248201527f42657474696e67456e67696e653a204f6e6c79204c6971756964697479506f6f6044820152766c2063616e20696e637265617365206578706f7375726560481b6064820152608490fd5b346105f55760403660031901126105f5576004356024359060018060a01b0361077181600354163314610d53565b60005b600454811080156108b65761078890610e4e565b61079181610c8f565b5090826006830192835460ff8116156107b7575b5050506107b29150610e24565b610774565b6107d76107c5898985611029565b80966001809460ff1916178155610e0c565b6000851561088257506107f281830154600284015490610dc4565b928391541686835416604051809263a9059cbb60e01b82528160008161081f602098899760048401610e33565b03925af1958615610498578786946000805160206111c1833981519152946040946107b29a610864575b50505b541694825191151582526020820152a38286806107a5565b8161087a92903d10610491576104838183610dd1565b508c80610849565b926000805160206111c183398151915291506107b295604091846002889601546108af6007918254610db7565b905561084c565b60206108c0610e8b565b604051908152f35b346105f55760003660031901126105f5576020600654604051908152f35b346105f55760003660031901126105f5576003546040516001600160a01b039091168152602090f35b346105f55760003660031901126105f5576002546040516001600160a01b039091168152602090f35b346105f5576020806003193601126105f5576001600160a01b0361095a610d25565b1660005260058152604060002060405190818382549182815201908192600052846000209060005b868282106109d857868661099882880383610dd1565b604051928392818401908285525180915260408401929160005b8281106109c157505050500390f35b8351855286955093810193928101926001016109b2565b835485529093019260019283019201610982565b346105f55760203660031901126105f557610a15600435610a106004548210610e4e565b610c8f565b5060018060a01b0381541690610a686001820154916002810154926003820154916004810154600660058301549201549360405197889760ff808860081c1697169560ff808560081c169416928a610cd1565b0390f35b346105f55760403660031901126105f557610a85610d25565b6001600160a01b03166000908152600560205260409020805460243591908210156105f557602091610ab691610d3b565b90546040519160031b1c8152f35b346105f55760003660031901126105f5576001546040516001600160a01b039091168152602090f35b346105f55760003660031901126105f5576003546001600160a01b0390610b179082163314610d53565b60009060005b600454811015610c1857610b3081610c8f565b506006810180549060ff821615610b53575b505050610b4e90610e24565b610b1d565b6001809261ffff191617905580820154908115610b42578490959392955416928185875416604051809663a9059cbb60e01b825281600081610b9c6020998a9760048401610e33565b03925af19182156104985786610bcf6000805160206111c183398151915293604093610b4e998997610bfb575b50610dc4565b986002810154610be26007918254610db7565b90555416936000825191818352820152a3908480610b42565b610c1190893d8b11610491576104838183610dd1565b508c610bc9565b7f5acc3653d085a8a05d8682b132c9d1ffa7976497780b87ebfa5c4569eaa19c82602084604051908152a160206108c0610e8b565b346105f55760203660031901126105f5576004356004548110156105f557610a1590610c8f565b346105f55760003660031901126105f5576020906007548152f35b600454811015610cae5760046000526007602060002091020190600090565b634e487b7160e01b600052603260045260246000fd5b9060048210156103bb5752565b97949193610d06919a99969361010098956101208b019c60018060a01b03168b5260208b015260408a01526060890190610cc4565b1515608087015260a086015260c0850152151560e08401521515910152565b600435906001600160a01b03821682036105f557565b8054821015610cae5760005260206000200190600090565b15610d5a57565b60405162461bcd60e51b815260206004820152602f60248201527f4f6e6c7920746865206d61726b657420636f6e74726163742063616e2063616c60448201526e36103a3434b990333ab731ba34b7b760891b6064820152608490fd5b9190820391821161051f57565b9190820180921161051f57565b601f909101601f19168101906001600160401b038211908210176103a557604052565b908160209103126105f5575180151581036105f55790565b9061ff00825491151560081b169061ff001916179055565b600019811461051f5760010190565b6001600160a01b039091168152602081019190915260400190565b15610e5557565b60405162461bcd60e51b815260206004820152600e60248201526d125b9d985b1a590818995d08125160921b6044820152606490fd5b600154604080516370a0823160e01b8152306004820152916020906001600160a01b039081168285602481845afa948515610fa957600095610fd0575b50600060075584908115610fb457610efe91849184600254166000885180968195829463095ea7b360e01b845260048401610e33565b03925af18015610fa957610f8c575b506002541691823b156105f5576000809360248351809681936322baaeeb60e11b83528960048401525af18015610f8157610f5c575b6000805160206111a1833981519152925051838152a190565b6001600160401b0383116103a5576000805160206111a1833981519152928152610f43565b50513d6000823e3d90fd5b610fa290833d8511610491576104838183610dd1565b5038610f0d565b84513d6000823e3d90fd5b5050506000805160206111a1833981519152915160008152a190565b90948382813d8311610ffb575b610fe78183610dd1565b81010312610ff85750519338610ec8565b80fd5b503d610fdd565b90600a820291808305600a149015171561051f57565b600160ff1b811461051f5760000390565b60038101549190600460ff84168181101561118b578061108d57505050828111928361107e575b831561105d575b50505090565b1191508161106f575b50388080611057565b60ff915060081c161538611066565b925060ff8260081c1692611050565b6003819592939495146000146110a557505050501490565b600181969592939496146000146111165750600084820394128185128116918513901516176111015760081c60ff16156110f1576110e56110ed92611002565b920154611018565b1290565b6110e56110fd92611002565b1390565b601182634e487b7160e01b6000525260246000fd5b919493909160021461112c575050505050600090565b611139839160ff93610dc4565b9301549360081c161561117357600a820291808304600a149015171561115e57501190565b601190634e487b7160e01b6000525260246000fd5b600a820291808304600a149015171561115e57501090565b602182634e487b7160e01b6000525260246000fdfe3a17b09fdeffe50add2e5a585692d360db7e9e47a81627894b40203fca500906e730d6310bec1dfc964bdf1e3f75a78c8ef2dee9d092f9ff09253258852ed7d4a2646970667358221220ad15ab8028f1b4fb82920b7a60e1dc1bafa199b9c4bb6986b108178e7ee958dc64736f6c63430008130033405787fa12a823e0f2b7631cc41b3ba8828b3321ca811111fa75cd3aa3bb5aceb10e2d527612073b26eecdfd717e6a320cf44b4afac2b0732d9fcbe2b7fa0cf6",
  "linkReferences": {},
  "deployedLinkReferences": {}
}