{
  "_format": "hh-sol-artifact-1",
  "contractName": "NBAMarket",
  "sourceName": "contracts/NBAMarket.sol",
  "abi": [
    {
      "inputs": [
        {
          "internalType": "string",
          "name": "_homeTeam",
          "type": "string"
        },
        {
          "internalType": "string",
          "name": "_awayTeam",
          "type": "string"
        },
        {
          "internalType": "uint256",
          "name": "_gameTimestamp",
          "type": "uint256"
        },
        {
          "internalType": "string",
          "name": "_oddsApiId",
          "type": "string"
        },
        {
          "internalType": "uint256",
          "name": "_homeOdds",
          "type": "uint256"
        },
        {
          "internalType": "uint256",
          "name": "_awayOdds",
          "type": "uint256"
        },
        {
          "internalType": "address",
          "name": "_admin",
          "type": "address"
        },
        {
          "internalType": "address",
          "name": "_oddsProvider",
          "type": "address"
        },
        {
          "internalType": "address",
          "name": "_resultsProvider",
          "type": "address"
        },
        {
          "internalType": "address",
          "name": "_usdx",
          "type": "address"
        },
        {
          "internalType": "address",
          "name": "_liquidityPool",
          "type": "address"
        },
        {
          "internalType": "uint256",
          "name": "_maxExposure",
          "type": "uint256"
        }
      ],
      "stateMutability": "nonpayable",
      "type": "constructor"
    },
    {
      "anonymous": false,
      "inputs": [
        {
          "indexed": false,
          "internalType": "uint256",
          "name": "homeOdds",
          "type": "uint256"
        },
        {
          "indexed": false,
          "internalType": "uint256",
          "name": "awayOdds",
          "type": "uint256"
        }
      ],
      "name": "OddsUpdated",
      "type": "event"
    },
    {
      "anonymous": false,
      "inputs": [
        {
          "indexed": false,
          "internalType": "enum NBAMarket.Outcome",
          "name": "outcome",
          "type": "uint8"
        }
      ],
      "name": "ResultSet",
      "type": "event"
    },
    {
      "inputs": [],
      "name": "admin",
      "outputs": [
        {
          "internalType": "address",
          "name": "",
          "type": "address"
        }
      ],
      "stateMutability": "view",
      "type": "function"
    },
    {
      "inputs": [],
      "name": "awayOdds",
      "outputs": [
        {
          "internalType": "uint256",
          "name": "",
          "type": "uint256"
        }
      ],
      "stateMutability": "view",
      "type": "function"
    },
    {
      "inputs": [],
      "name": "awayTeam",
      "outputs": [
        {
          "internalType": "string",
          "name": "",
          "type": "string"
        }
      ],
      "stateMutability": "view",
      "type": "function"
    },
    {
      "inputs": [],
      "name": "bettingEngine",
      "outputs": [
        {
          "internalType": "contract BettingEngine",
          "name": "",
          "type": "address"
        }
      ],
      "stateMutability": "view",
      "type": "function"
    },
    {
      "inputs": [
        {
          "internalType": "address",
          "name": "_newOddsProvider",
          "type": "address"
        }
      ],
      "name": "changeOddsProvider",
      "outputs": [],
      "stateMutability": "nonpayable",
      "type": "function"
    },
    {
      "inputs": [
        {
          "internalType": "address",
          "name": "_newResultsProvider",
          "type": "address"
        }
      ],
      "name": "changeResultsProvider",
      "outputs": [],
      "stateMutability": "nonpayable",
      "type": "function"
    },
    {
      "inputs": [],
      "name": "emergencySettle",
      "outputs": [],
      "stateMutability": "nonpayable",
      "type": "function"
    },
    {
      "inputs": [],
      "name": "gameEnded",
      "outputs": [
        {
          "internalType": "bool",
          "name": "",
          "type": "bool"
        }
      ],
      "stateMutability": "view",
      "type": "function"
    },
    {
      "inputs": [],
      "name": "gameStarted",
      "outputs": [
        {
          "internalType": "bool",
          "name": "",
          "type": "bool"
        }
      ],
      "stateMutability": "view",
      "type": "function"
    },
    {
      "inputs": [],
      "name": "gameTimestamp",
      "outputs": [
        {
          "internalType": "uint256",
          "name": "",
          "type": "uint256"
        }
      ],
      "stateMutability": "view",
      "type": "function"
    },
    {
      "inputs": [],
      "name": "getAwayTeam",
      "outputs": [
        {
          "internalType": "string",
          "name": "",
          "type": "string"
        }
      ],
      "stateMutability": "view",
      "type": "function"
    },
    {
      "inputs": [
        {
          "internalType": "uint256",
          "name": "_betId",
          "type": "uint256"
        }
      ],
      "name": "getBetDetails",
      "outputs": [
        {
          "internalType": "address",
          "name": "",
          "type": "address"
        },
        {
          "internalType": "uint256",
          "name": "",
          "type": "uint256"
        },
        {
          "internalType": "uint256",
          "name": "",
          "type": "uint256"
        },
        {
          "internalType": "bool",
          "name": "",
          "type": "bool"
        },
        {
          "internalType": "bool",
          "name": "",
          "type": "bool"
        },
        {
          "internalType": "bool",
          "name": "",
          "type": "bool"
        }
      ],
      "stateMutability": "view",
      "type": "function"
    },
    {
      "inputs": [
        {
          "internalType": "address",
          "name": "_bettor",
          "type": "address"
        }
      ],
      "name": "getBettorBets",
      "outputs": [
        {
          "internalType": "uint256[]",
          "name": "",
          "type": "uint256[]"
        }
      ],
      "stateMutability": "view",
      "type": "function"
    },
    {
      "inputs": [],
      "name": "getExposureInfo",
      "outputs": [
        {
          "internalType": "uint256",
          "name": "",
          "type": "uint256"
        },
        {
          "internalType": "uint256",
          "name": "",
          "type": "uint256"
        }
      ],
      "stateMutability": "view",
      "type": "function"
    },
    {
      "inputs": [],
      "name": "getGameStatus",
      "outputs": [
        {
          "internalType": "bool",
          "name": "",
          "type": "bool"
        },
        {
          "internalType": "bool",
          "name": "",
          "type": "bool"
        },
        {
          "internalType": "bool",
          "name": "",
          "type": "bool"
        },
        {
          "internalType": "enum NBAMarket.Outcome",
          "name": "",
          "type": "uint8"
        }
      ],
      "stateMutability": "view",
      "type": "function"
    },
    {
      "inputs": [],
      "name": "getGameTimestamp",
      "outputs": [
        {
          "internalType": "uint256",
          "name": "",
          "type": "uint256"
        }
      ],
      "stateMutability": "view",
      "type": "function"
    },
    {
      "inputs": [],
      "name": "getHomeTeam",
      "outputs": [
        {
          "internalType": "string",
          "name": "",
          "type": "string"
        }
      ],
      "stateMutability": "view",
      "type": "function"
    },
    {
      "inputs": [],
      "name": "getOdds",
      "outputs": [
        {
          "internalType": "uint256",
          "name": "",
          "type": "uint256"
        },
        {
          "internalType": "uint256",
          "name": "",
          "type": "uint256"
        }
      ],
      "stateMutability": "view",
      "type": "function"
    },
    {
      "inputs": [],
      "name": "getOddsApiId",
      "outputs": [
        {
          "internalType": "string",
          "name": "",
          "type": "string"
        }
      ],
      "stateMutability": "view",
      "type": "function"
    },
    {
      "inputs": [],
      "name": "homeOdds",
      "outputs": [
        {
          "internalType": "uint256",
          "name": "",
          "type": "uint256"
        }
      ],
      "stateMutability": "view",
      "type": "function"
    },
    {
      "inputs": [],
      "name": "homeTeam",
      "outputs": [
        {
          "internalType": "string",
          "name": "",
          "type": "string"
        }
      ],
      "stateMutability": "view",
      "type": "function"
    },
    {
      "inputs": [],
      "name": "isReadyForBetting",
      "outputs": [
        {
          "internalType": "bool",
          "name": "",
          "type": "bool"
        }
      ],
      "stateMutability": "view",
      "type": "function"
    },
    {
      "inputs": [],
      "name": "liquidityPool",
      "outputs": [
        {
          "internalType": "contract LiquidityPool",
          "name": "",
          "type": "address"
        }
      ],
      "stateMutability": "view",
      "type": "function"
    },
    {
      "inputs": [],
      "name": "oddsApiId",
      "outputs": [
        {
          "internalType": "string",
          "name": "",
          "type": "string"
        }
      ],
      "stateMutability": "view",
      "type": "function"
    },
    {
      "inputs": [],
      "name": "oddsProvider",
      "outputs": [
        {
          "internalType": "address",
          "name": "",
          "type": "address"
        }
      ],
      "stateMutability": "view",
      "type": "function"
    },
    {
      "inputs": [],
      "name": "oddsSet",
      "outputs": [
        {
          "internalType": "bool",
          "name": "",
          "type": "bool"
        }
      ],
      "stateMutability": "view",
      "type": "function"
    },
    {
      "inputs": [],
      "name": "outcome",
      "outputs": [
        {
          "internalType": "enum NBAMarket.Outcome",
          "name": "",
          "type": "uint8"
        }
      ],
      "stateMutability": "view",
      "type": "function"
    },
    {
      "inputs": [
        {
          "internalType": "uint256",
          "name": "_amount",
          "type": "uint256"
        },
        {
          "internalType": "bool",
          "name": "_onHomeTeam",
          "type": "bool"
        }
      ],
      "name": "placeBet",
      "outputs": [],
      "stateMutability": "nonpayable",
      "type": "function"
    },
    {
      "inputs": [],
      "name": "resultsProvider",
      "outputs": [
        {
          "internalType": "address",
          "name": "",
          "type": "address"
        }
      ],
      "stateMutability": "view",
      "type": "function"
    },
    {
      "inputs": [
        {
          "internalType": "uint8",
          "name": "_outcome",
          "type": "uint8"
        }
      ],
      "name": "setResult",
      "outputs": [],
      "stateMutability": "nonpayable",
      "type": "function"
    },
    {
      "inputs": [],
      "name": "startGame",
      "outputs": [],
      "stateMutability": "nonpayable",
      "type": "function"
    },
    {
      "inputs": [
        {
          "internalType": "uint256",
          "name": "_newMaxExposure",
          "type": "uint256"
        }
      ],
      "name": "updateMaxExposure",
      "outputs": [],
      "stateMutability": "nonpayable",
      "type": "function"
    },
    {
      "inputs": [
        {
          "internalType": "uint256",
          "name": "_homeOdds",
          "type": "uint256"
        },
        {
          "internalType": "uint256",
          "name": "_awayOdds",
          "type": "uint256"
        }
      ],
      "name": "updateOdds",
      "outputs": [],
      "stateMutability": "nonpayable",
      "type": "function"
    },
    {
      "inputs": [],
      "name": "usdx",
      "outputs": [
        {
          "internalType": "contract IERC20",
          "name": "",
          "type": "address"
        }
      ],
      "stateMutability": "view",
      "type": "function"
    }
  ],
  "bytecode": "0x604060808152346200069257620028a3803803806200001e8162000697565b92833981019061018081830312620006925780516001600160401b0381116200069257826200004f918301620006bd565b60208201516001600160401b03811162000692578362000071918401620006bd565b82850151606084015191949091906001600160401b03821162000692576200009b918501620006bd565b60808401519460a085015190620000b560c087016200072f565b93620000c460e088016200072f565b93620000d461010089016200072f565b91620000e46101208a016200072f565b93610160620000f76101408c016200072f565b9a01516001600055895190996001600160401b038211620003625760015490600182811c9216801562000687575b60208310146200048d5781601f84931162000626575b50602090601f8311600114620005ac57600092620005a0575b50508160011b916000199060031b1c1916176001555b8051906001600160401b038211620003625760025490600182811c9216801562000595575b60208310146200048d5781601f84931162000534575b50602090601f8311600114620004ba57600092620004ae575b50508160011b916000199060031b1c1916176002555b6003558051906001600160401b0382116200036257600454600181811c91168015620004a3575b60208210146200048d57601f811162000423575b50602090601f8311600114620003905762ff000095949392916000918362000384575b50508160011b916000199060031b1c1916176004555b60058990556006839055600754600880546001600160a01b03199081166001600160a01b039889161790915560098054821693881693909317909255600a805483169387169384179055600b805490921698909516978817905595966103e890811115918262000378575b5050151560101b16600160201b600160c01b0360209390931b929092166001600160c01b0319919091161717600755835192610d8891828501918583106001600160401b038411176200036257608094869462001adb863930845260208401528683015260608201520301906000f080156200035757600c80546001600160a01b0319166001600160a01b0392909216919091179055516113969081620007458239f35b50513d6000823e3d90fd5b634e487b7160e01b600052604160045260246000fd5b101590503880620002b3565b01519050388062000232565b600460009081527f8a35acfbc15ff81a39ae7d344fd709f28e8600b4aa8c65c6b64bfe7fe36bd19b929190601f198516905b8181106200040a575091600193918562ff0000999897969410620003f0575b505050811b0160045562000248565b015160001960f88460031b161c19169055388080620003e1565b92936020600181928786015181550195019301620003c2565b60046000527f8a35acfbc15ff81a39ae7d344fd709f28e8600b4aa8c65c6b64bfe7fe36bd19b601f840160051c8101916020851062000482575b601f0160051c01905b8181106200047557506200020f565b6000815560010162000466565b90915081906200045d565b634e487b7160e01b600052602260045260246000fd5b90607f1690620001fb565b015190503880620001be565b60026000908152600080516020620028638339815191529350601f198516905b8181106200051b575090846001959493921062000501575b505050811b01600255620001d4565b015160001960f88460031b161c19169055388080620004f2565b92936020600181928786015181550195019301620004da565b600260005290915060008051602062002863833981519152601f840160051c8101602085106200058d575b90849392915b601f830160051c820181106200057d575050620001a5565b6000815585945060010162000565565b50806200055f565b91607f16916200018f565b01519050388062000154565b60016000908152600080516020620028838339815191529350601f198516905b8181106200060d5750908460019594939210620005f3575b505050811b016001556200016a565b015160001960f88460031b161c19169055388080620005e4565b92936020600181928786015181550195019301620005cc565b600160005290915060008051602062002883833981519152601f840160051c8101602085106200067f575b90849392915b601f830160051c820181106200066f5750506200013b565b6000815585945060010162000657565b508062000651565b91607f169162000125565b600080fd5b6040519190601f01601f191682016001600160401b038111838210176200036257604052565b919080601f84011215620006925782516001600160401b0381116200036257602090620006f3601f8201601f1916830162000697565b92818452828287010111620006925760005b8181106200071b57508260009394955001015290565b858101830151848201840152820162000705565b51906001600160a01b0382168203620006925756fe608060408181526004918236101561001657600080fd5b600092833560e01c91826306705b2d14610ffc5750816306fe876614610ebe57816327793f8714610e945781632f6fe39614610e6d5781633075d26314610a5d578163311176d714610e44578163382396ee14610df15781633df2967e14610ce1578163479eaf2514610b8d57816347f3c760146106115781634c5be57414610b685781635935361214610b185781635e123ce414610af4578163665a11ca14610acb578163665cae2014610aa45781636eb0bf80146105e45781637ba0293914610a7b5781637d79c19214610a5d57816380327bbb14610a0d57816380ce60d11461080d5781639ed9c74d1461062f578163a72f37cd14610611578163ae989d36146105e4578163aebc03101461049e578163b3f959691461047f578163b72c98f21461042e578163c1aa6b9f146103415783908263c3847d1814610322578263c68e052c14610303578263c6cb8ce1146102da578263d65ab5f214610290578263da4cdb23146101f15750508063e7ea03ba146101c95763f851a4401461019e57600080fd5b346101c557816003193601126101c5576007549051602091821c6001600160a01b03168152f35b5080fd5b50346101c557816003193601126101c55760095490516001600160a01b039091168152602090f35b8382913461028c57602036600319011261028c5760018060a01b0361021e8160075460201c1633146112f8565b600c5416803b15610287578390602484518096819363da4cdb2360e01b83528635878401525af1801561027d57610253578380f35b6001600160401b03831161026a5750528180808380f35b634e487b7160e01b845260419052602483fd5b82513d86823e3d90fd5b505050fd5b5050fd5b50346102d757806003193601126102d7576007546001906102bf33602083901c6001600160a01b0316146112f8565b6102cc60ff8216156112b5565b60ff19161760075580f35b80fd5b5082346101c557816003193601126101c557600c5490516001600160a01b039091168152602090f35b5082346101c557816003193601126101c5576020906006549051908152f35b5082346101c557816003193601126101c5576020906003549051908152f35b905082346102d757806003193601126102d757600c5483516304f0d71560e51b8152926020916001600160a01b031682858381845afa9485156104245784956103f1575b5082908651928380926315ef6c7b60e01b82525afa9283156103e65780936103b4575b50508351928352820152f35b909180935082813d83116103df575b6103cd8183611084565b810103126102d75750519084806103a8565b503d6103c3565b8551903d90823e3d90fd5b9094508281813d831161041d575b6104098183611084565b8101031261041957519382610385565b8380fd5b503d6103ff565b86513d86823e3d90fd5b5050346101c557816003193601126101c5576020906007549060ff8260101c169182610473575b82610464575b50519015158152f35b60081c60ff161591508361045b565b60ff8116159250610455565b5050346101c557816003193601126101c5576020906005549051908152f35b8383346101c557806003193601126101c557600854833590602435906001600160a01b0316330361058f57600754946104da60ff8716156112b5565b6103e8808410159081610584575b50156105365750620100007f401f5799446884f85b1967999c05db7393e8ce1fd302dc57ad43d6c1fafe9e299495836005558260065562ff000019161760075582519182526020820152a180f35b608490602085519162461bcd60e51b8352820152602260248201527f4f646473206d757374206265206174206c6561737420312e3030302028313030604482015261302960f01b6064820152fd5b9050821015876104e8565b825162461bcd60e51b8152602081870152602960248201527f4f6e6c79206f6464732070726f76696465722063616e2063616c6c207468697360448201526810333ab731ba34b7b760b91b6064820152608490fd5b5050346101c557816003193601126101c55761060d90610602611222565b90519182918261103b565b0390f35b5050346101c557816003193601126101c55761060d9061060261118b565b91905034610809578060031936011261080957813560243592831515938481036108055760028654146107c2576002865560075460ff8160101c1690816107b6575b816107a7575b501561076657821561071957602092916084911561071057866005545b60018060a01b03600c5416908751988996879563312892bd60e01b875233908701526024860152604485015260648401525af190811561070757506106dc575b506001815580f35b602090813d8111610700575b6106f28183611084565b810103126102d757386106d4565b503d6106e8565b513d84823e3d90fd5b86600654610694565b835162461bcd60e51b8152602081840152602160248201527f42657420616d6f756e74206d7573742062652067726561746572207468616e206044820152600360fc1b6064820152608490fd5b835162461bcd60e51b8152602081840152601b60248201527a4d61726b6574206e6f74206f70656e20666f722062657474696e6760281b6044820152606490fd5b60ff915060081c161538610677565b60ff8116159150610671565b835162461bcd60e51b8152602081840152601f60248201527f5265656e7472616e637947756172643a207265656e7472616e742063616c6c006044820152606490fd5b8580fd5b8280fd5b905034610809576020918260031936011261041957813560ff8116809103610a09576009546001600160a01b0390811633036109b1576007805460ff8160081c16610979576001841480801561096f575b1561093a578760ff6108c8602495839897957f988e4850dc6ef6024a46d494f735617e412bd3006c3318285b5118e5b1370b8f956000146109265750805463ff000000191663010000001781555b61010061ff001982541617809155895192839160181c16611018565ba1600c5416948785519687948593630284639160e01b85528401525af190811561091d57506108f5578280f35b813d8311610916575b6109088183611084565b810103126102d75738808280f35b503d6108fe565b513d85823e3d90fd5b63ff000000191663020000001781556108ac565b855162461bcd60e51b8152808801899052600f60248201526e496e76616c6964206f7574636f6d6560881b6044820152606490fd5b506002851461085e565b845162461bcd60e51b8152808701889052601260248201527111d85b5948185b1c9958591e48195b99195960721b6044820152606490fd5b825162461bcd60e51b8152808501869052602c60248201527f4f6e6c7920726573756c74732070726f76696465722063616e2063616c6c207460448201526b3434b990333ab731ba34b7b760a11b6064820152608490fd5b8480fd5b8390346101c55760203660031901126101c557356001600160a01b038181169182900361080957610a469060075460201c1633146112f8565b600980546001600160a01b03191691909117905580f35b5050346101c557816003193601126101c55761060d906106026110bd565b5050346101c557816003193601126101c55760085490516001600160a01b039091168152602090f35b5050346101c557816003193601126101c55760209060ff60075460101c1690519015158152f35b5050346101c557816003193601126101c557600b5490516001600160a01b039091168152602090f35b5050346101c557816003193601126101c55760209060ff6007541690519015158152f35b8390346101c55760203660031901126101c557356001600160a01b038181169182900361080957610b519060075460201c1633146112f8565b600880546001600160a01b03191691909117905580f35b8284346102d757806003193601126102d7575060055460065482519182526020820152f35b9190503461080957602080600319360112610419576001600160a01b0383358181169186918390036101c557600c541691602485518094819363479eaf2560e01b8352898301525afa938415610cd7578594610c26575b5050815181815283518183018190529094859493850193830192905b828110610c0f57505050500390f35b835185528695509381019392810192600101610c00565b909193503d8086843e610c398184611084565b82019084838303126108055782516001600160401b0393848211610cd357019082601f83011215610cbc578151938411610cc057508260051b90845193610c8287840186611084565b84528580850192820101928311610cbc5785809101915b838310610cac5750505050913880610be4565b8251815291810191869101610c99565b8680fd5b634e487b7160e01b875260419052602486fd5b8780fd5b83513d87823e3d90fd5b90503461080957602036600319011261080957600c548251631ef94b3f60e11b81528235928101929092526001600160a01b03919060c0908290602490829086165afa918215610de457849385908691879388958997610d66575b5060c0985082519716875260208701528501521515606084015215156080830152151560a0820152f35b95509550509450505060c0813d8211610ddc575b81610d8760c09383611084565b81010312610419578051908282168203610a095760c094506020810151938082015190610db66060840161134e565b91610dcf60a0610dc86080870161134e565b950161134e565b9496909293949538610d3c565b3d9150610d7a565b50505051903d90823e3d90fd5b5050346101c557816003193601126101c557608090610e4260075482519260ff82161515845260ff8260081c161515602085015260ff8260101c1615159084015260ff606084019160181c16611018565bf35b5050346101c557816003193601126101c557600a5490516001600160a01b039091168152602090f35b5050346101c557816003193601126101c55760209060ff60075460081c1690519015158152f35b5050346101c557816003193601126101c557602090610e4260ff60075460181c1691518092611018565b905034610809578260031936011261080957600754602092906001600160a01b0390610eef3382871c8416146112f8565b60ff811615610fa35760181c60ff16906003821015610f90578115610f3f579060248592600c5416948785519687948593630284639160e01b85528401525af190811561091d57506108f5578280f35b825162461bcd60e51b8152808501869052602560248201527f4f7574636f6d65206d75737420626520736574206265666f726520736574746c604482015264195b595b9d60da1b6064820152608490fd5b634e487b7160e01b865260218452602486fd5b825162461bcd60e51b8152808501869052602d60248201527f47616d65206d757374206265207374617274656420666f7220656d657267656e60448201526c18de481cd95d1d1b195b595b9d609a1b6064820152608490fd5b8490346101c557816003193601126101c5576020906003548152f35b9060038210156110255752565b634e487b7160e01b600052602160045260246000fd5b6020808252825181830181905290939260005b82811061107057505060409293506000838284010152601f8019910116010190565b81810186015184820160400152850161104e565b601f909101601f19168101906001600160401b038211908210176110a757604052565b634e487b7160e01b600052604160045260246000fd5b60405190600060025490600182811c90808416938415611181575b602094858410811461116d578388528794939291811561114d575060011461110b575b505061110992500383611084565b565b90939150600260005281600020936000915b818310611135575050611109935082010138806110fb565b8554888401850152948501948794509183019161111d565b91505061110994925060ff191682840152151560051b82010138806110fb565b634e487b7160e01b85526022600452602485fd5b91607f16916110d8565b60405190600060045490600182811c90808416938415611218575b602094858410811461116d578388528794939291811561114d57506001146111d657505061110992500383611084565b90939150600460005281600020936000915b818310611200575050611109935082010138806110fb565b855488840185015294850194879450918301916111e8565b91607f16916111a6565b60405190600060019081549182811c908084169384156112ab575b602094858410811461116d578388528794939291811561114d575060011461126d57505061110992500383611084565b600081815285812095935091905b818310611293575050611109935082010138806110fb565b8554888401850152948501948794509183019161127b565b91607f169161123d565b156112bc57565b60405162461bcd60e51b815260206004820152601460248201527311d85b5948185b1c9958591e481cdd185c9d195960621b6044820152606490fd5b156112ff57565b60405162461bcd60e51b815260206004820152602160248201527f4f6e6c792061646d696e2063616e2063616c6c20746869732066756e6374696f6044820152603760f91b6064820152608490fd5b5190811515820361135b57565b600080fdfea2646970667358221220a7e26801bc6660f2a233cc0f9b583801cf28af16e9a90fb06e73d8993ac08fc664736f6c634300081300336080346100b257601f610d8838819003918201601f19168301916001600160401b038311848410176100b7578084926080946040528339810103126100b257610047816100cd565b610053602083016100cd565b6060610061604085016100cd565b93015192600160005560018060a01b0380928160018060a01b0319951685600354161760035516836001541617600155169060025416176002556006556000600755604051610ca690816100e28239f35b600080fd5b634e487b7160e01b600052604160045260246000fd5b51906001600160a01b03821682036100b25756fe6080604052600436101561001257600080fd5b60003560e01c8063028463911461081557806315ef6c7b146107f757806322af00fa146107d0578063311176d7146107a7578063312892bd146103715780633cc66667146103195780633df2967e1461025a578063479eaf25146101a6578063665a11ca1461017d57806395623641146101545780639e1ae2a0146101365763da4cdb23146100a057600080fd5b34610131576020366003190112610131576004356100c960018060a01b03600354163314610b6f565b60075481106100d757600655005b60405162461bcd60e51b815260206004820152602c60248201527f4e6577206d6178206578706f73757265206d757374206265203e3d206375727260448201526b656e74206578706f7375726560a01b6064820152608490fd5b600080fd5b34610131576000366003190112610131576020600654604051908152f35b34610131576000366003190112610131576003546040516001600160a01b039091168152602090f35b34610131576000366003190112610131576002546040516001600160a01b039091168152602090f35b3461013157602080600319360112610131576001600160a01b036101c8610b41565b1660005260058152604060002060405190818382549182815201908192600052846000209060005b8682821061024657868661020682880383610be0565b604051928392818401908285525180915260408401929160005b82811061022f57505050500390f35b835185528695509381019392810192600101610220565b8354855290930192600192830192016101f0565b34610131576020366003190112610131576004356004548110156102e35761028190610b0c565b50805460018201546002830154600390930154604080516001600160a01b03909416845260208401929092529082019290925260ff80831615156060830152600883901c81161515608083015260109290921c909116151560a082015260c090f35b60405162461bcd60e51b815260206004820152600e60248201526d125b9d985b1a590818995d08125160921b6044820152606490fd5b3461013157604036600319011261013157610332610b41565b6001600160a01b03166000908152600560205260409020805460243591908210156101315760209161036391610b57565b90546040519160031b1c8152f35b346101315760803660031901126101315761038a610b41565b604435908115158203610131576064356103af60018060a01b03600354163314610b6f565b60026000541461076257600260005560243515610713578060243502906024358204036106fd576103e8900490816024358103116106fd576103f76024358303600754610bd3565b60065410610697576001546040516323b872dd60e01b81526001600160a01b03838116600483015230602480840191909152356044830152909160209183916064918391600091165af190811561068b5760009161065c575b501561061f576104666024358303600754610bd3565b60075560045460405190929060c081016001600160401b038111828210176105f35760409081526001600160a01b038416825260243560208301819052830390820152841515606082015260006080820181905260a0820152600160401b8410156105f357600184016004556104db84610b0c565b9190916106095760a0600361054593600180841b03845116600180851b03198254161781556020840151600182015560408401516002820155019160608101511515835460ff61ff006080850151151560081b1692169061ffff1916171783550151151590610c1b565b6001600160a01b0382166000908152600560205260409020805490929091600160401b8310156105f3576020956105a5847f49b226f5f2217fc8f76e75aa92cced1295253fa19969517d34b604adc5e8460496600160a097018155610b57565b81549060031b9088821b91600019901b191617905560405192868452600180861b03168784015260243560408401521515606083015260243590036080820152a16001600055604051908152f35b634e487b7160e01b600052604160045260246000fd5b634e487b7160e01b600052600060045260246000fd5b60405162461bcd60e51b8152602060048201526015602482015274151bdad95b881d1c985b9cd9995c8819985a5b1959605a1b6044820152606490fd5b61067e915060203d602011610684575b6106768183610be0565b810190610c03565b84610450565b503d61066c565b6040513d6000823e3d90fd5b60405162461bcd60e51b815260206004820152603860248201527f4d61726b65742063616e6e6f74206163636570742074686973206265742073696044820152777a6520776974682063757272656e74206578706f7375726560401b6064820152608490fd5b634e487b7160e01b600052601160045260246000fd5b60405162461bcd60e51b815260206004820152602160248201527f42657420616d6f756e74206d7573742062652067726561746572207468616e206044820152600360fc1b6064820152608490fd5b60405162461bcd60e51b815260206004820152601f60248201527f5265656e7472616e637947756172643a207265656e7472616e742063616c6c006044820152606490fd5b34610131576000366003190112610131576001546040516001600160a01b039091168152602090f35b34610131576020366003190112610131576004356004548110156101315761028190610b0c565b34610131576000366003190112610131576020600754604051908152f35b3461013157602080600319360112610131576004359060ff908183168093036101315760018060a01b0390600391610851818454163314610b6f565b60005b6004548110156109c75761086781610b0c565b50848101838154888160081c161561088f575b5050505060001981146106fd57600101610854565b600192838b1491826109bd575b8215610997575b61ff0019166101001781556108b9908290610c1b565b156109625750806108d56108fd92840154600285015490610bd3565b86818784541688875416600060405180988195829463a9059cbb60e01b845260048401610c35565b03925af1801561068b57600080516020610c51833981519152946080948892610945575b50541691604051928684528884015260408301526060820152a15b8680838161087a565b61095b908a3d8c11610684576106768183610be0565b508c610921565b60809150600080516020610c5183398151915292541660405190848252868201526000604082015260006060820152a161093c565b61010092506108b99160028d14806109b3575b935091506108a3565b508b8216156109aa565b8a8116925061089c565b506001546040516370a0823160e01b8152306004820152919081168383602481845afa92831561068b57600093610add575b50838380610a0a575b604051908152f35b610a31928460025416600060405180968195829463095ea7b360e01b845260048401610c35565b03925af1801561068b57610ac0575b5060025416803b1561013157600080916024604051809481936322baaeeb60e11b83528760048401525af1801561068b57610aa9575b507f3a17b09fdeffe50add2e5a585692d360db7e9e47a81627894b40203fca50090682604051838152a182808383610a02565b6001600160401b0381116105f35760405282610a76565b610ad690843d8611610684576106768183610be0565b5083610a40565b9092508381813d8311610b05575b610af58183610be0565b81010312610131575191846109f9565b503d610aeb565b600454811015610b2b57600460005260206000209060021b0190600090565b634e487b7160e01b600052603260045260246000fd5b600435906001600160a01b038216820361013157565b8054821015610b2b5760005260206000200190600090565b15610b7657565b60405162461bcd60e51b815260206004820152602f60248201527f4f6e6c7920746865206d61726b657420636f6e74726163742063616e2063616c60448201526e36103a3434b990333ab731ba34b7b760891b6064820152608490fd5b919082018092116106fd57565b601f909101601f19168101906001600160401b038211908210176105f357604052565b90816020910312610131575180151581036101315790565b9062ff0000825491151560101b169062ff00001916179055565b6001600160a01b03909116815260208101919091526040019056fee730d6310bec1dfc964bdf1e3f75a78c8ef2dee9d092f9ff09253258852ed7d4a26469706673582212202f4dc291aa5a305a2621c591e34a28aa280ce4eeba7e6418a22afab16cd7f66264736f6c63430008130033405787fa12a823e0f2b7631cc41b3ba8828b3321ca811111fa75cd3aa3bb5aceb10e2d527612073b26eecdfd717e6a320cf44b4afac2b0732d9fcbe2b7fa0cf6",
  "linkReferences": {},
  "deployedLinkReferences": {}
}