{
  "_format": "hh-sol-artifact-1",
  "contractName": "BettingEngine",
  "sourceName": "contracts/BettingEngine.sol",
  "abi": [
    {
      "inputs": [
        {
          "internalType": "address",
          "name": "_marketAddress",
          "type": "address"
        },
        {
          "internalType": "address",
          "name": "_usdx",
          "type": "address"
        },
        {
          "internalType": "address",
          "name": "_liquidityPool",
          "type": "address"
        },
        {
          "internalType": "uint256",
          "name": "_maxExposure",
          "type": "uint256"
        }
      ],
      "stateMutability": "nonpayable",
      "type": "constructor"
    },
    {
      "anonymous": false,
      "inputs": [
        {
          "indexed": true,
          "internalType": "uint256",
          "name": "betId",
          "type": "uint256"
        },
        {
          "indexed": true,
          "internalType": "address",
          "name": "bettor",
          "type": "address"
        },
        {
          "indexed": false,
          "internalType": "uint256",
          "name": "amount",
          "type": "uint256"
        },
        {
          "indexed": false,
          "internalType": "enum BettingEngine.BetType",
          "name": "betType",
          "type": "uint8"
        },
        {
          "indexed": false,
          "internalType": "bool",
          "name": "isBettingOnHomeOrOver",
          "type": "bool"
        },
        {
          "indexed": false,
          "internalType": "int256",
          "name": "line",
          "type": "int256"
        },
        {
          "indexed": false,
          "internalType": "uint256",
          "name": "odds",
          "type": "uint256"
        },
        {
          "indexed": false,
          "internalType": "uint256",
          "name": "potentialWinnings",
          "type": "uint256"
        }
      ],
      "name": "BetPlaced",
      "type": "event"
    },
    {
      "anonymous": false,
      "inputs": [
        {
          "indexed": true,
          "internalType": "uint256",
          "name": "betId",
          "type": "uint256"
        },
        {
          "indexed": true,
          "internalType": "address",
          "name": "bettor",
          "type": "address"
        },
        {
          "indexed": false,
          "internalType": "bool",
          "name": "won",
          "type": "bool"
        },
        {
          "indexed": false,
          "internalType": "uint256",
          "name": "payout",
          "type": "uint256"
        }
      ],
      "name": "BetSettled",
      "type": "event"
    },
    {
      "anonymous": false,
      "inputs": [
        {
          "indexed": false,
          "internalType": "uint256",
          "name": "totalRefunded",
          "type": "uint256"
        }
      ],
      "name": "BetsRefunded",
      "type": "event"
    },
    {
      "anonymous": false,
      "inputs": [
        {
          "indexed": false,
          "internalType": "uint256",
          "name": "returnedToPool",
          "type": "uint256"
        }
      ],
      "name": "MarketSettled",
      "type": "event"
    },
    {
      "inputs": [
        {
          "internalType": "uint256",
          "name": "",
          "type": "uint256"
        }
      ],
      "name": "bets",
      "outputs": [
        {
          "internalType": "address",
          "name": "bettor",
          "type": "address"
        },
        {
          "internalType": "uint256",
          "name": "amount",
          "type": "uint256"
        },
        {
          "internalType": "uint256",
          "name": "potentialWinnings",
          "type": "uint256"
        },
        {
          "internalType": "enum BettingEngine.BetType",
          "name": "betType",
          "type": "uint8"
        },
        {
          "internalType": "bool",
          "name": "isBettingOnHomeOrOver",
          "type": "bool"
        },
        {
          "internalType": "int256",
          "name": "line",
          "type": "int256"
        },
        {
          "internalType": "uint256",
          "name": "odds",
          "type": "uint256"
        },
        {
          "internalType": "bool",
          "name": "settled",
          "type": "bool"
        },
        {
          "internalType": "bool",
          "name": "won",
          "type": "bool"
        }
      ],
      "stateMutability": "view",
      "type": "function"
    },
    {
      "inputs": [
        {
          "internalType": "address",
          "name": "",
          "type": "address"
        },
        {
          "internalType": "uint256",
          "name": "",
          "type": "uint256"
        }
      ],
      "name": "bettorToBets",
      "outputs": [
        {
          "internalType": "uint256",
          "name": "",
          "type": "uint256"
        }
      ],
      "stateMutability": "view",
      "type": "function"
    },
    {
      "inputs": [],
      "name": "cancelBetsAndRefund",
      "outputs": [
        {
          "internalType": "uint256",
          "name": "",
          "type": "uint256"
        }
      ],
      "stateMutability": "nonpayable",
      "type": "function"
    },
    {
      "inputs": [],
      "name": "currentExposure",
      "outputs": [
        {
          "internalType": "uint256",
          "name": "",
          "type": "uint256"
        }
      ],
      "stateMutability": "view",
      "type": "function"
    },
    {
      "inputs": [
        {
          "internalType": "uint256",
          "name": "_betId",
          "type": "uint256"
        }
      ],
      "name": "getBetDetails",
      "outputs": [
        {
          "internalType": "address",
          "name": "bettor",
          "type": "address"
        },
        {
          "internalType": "uint256",
          "name": "amount",
          "type": "uint256"
        },
        {
          "internalType": "uint256",
          "name": "potentialWinnings",
          "type": "uint256"
        },
        {
          "internalType": "enum BettingEngine.BetType",
          "name": "betType",
          "type": "uint8"
        },
        {
          "internalType": "bool",
          "name": "isBettingOnHomeOrOver",
          "type": "bool"
        },
        {
          "internalType": "int256",
          "name": "line",
          "type": "int256"
        },
        {
          "internalType": "uint256",
          "name": "odds",
          "type": "uint256"
        },
        {
          "internalType": "bool",
          "name": "settled",
          "type": "bool"
        },
        {
          "internalType": "bool",
          "name": "won",
          "type": "bool"
        }
      ],
      "stateMutability": "view",
      "type": "function"
    },
    {
      "inputs": [
        {
          "internalType": "address",
          "name": "_bettor",
          "type": "address"
        }
      ],
      "name": "getBettorBets",
      "outputs": [
        {
          "internalType": "uint256[]",
          "name": "",
          "type": "uint256[]"
        }
      ],
      "stateMutability": "view",
      "type": "function"
    },
    {
      "inputs": [
        {
          "internalType": "uint256",
          "name": "_addedAmount",
          "type": "uint256"
        }
      ],
      "name": "increaseMaxExposure",
      "outputs": [],
      "stateMutability": "nonpayable",
      "type": "function"
    },
    {
      "inputs": [],
      "name": "liquidityPool",
      "outputs": [
        {
          "internalType": "contract LiquidityPool",
          "name": "",
          "type": "address"
        }
      ],
      "stateMutability": "view",
      "type": "function"
    },
    {
      "inputs": [],
      "name": "marketAddress",
      "outputs": [
        {
          "internalType": "address",
          "name": "",
          "type": "address"
        }
      ],
      "stateMutability": "view",
      "type": "function"
    },
    {
      "inputs": [],
      "name": "maxExposure",
      "outputs": [
        {
          "internalType": "uint256",
          "name": "",
          "type": "uint256"
        }
      ],
      "stateMutability": "view",
      "type": "function"
    },
    {
      "inputs": [
        {
          "internalType": "address",
          "name": "_bettor",
          "type": "address"
        },
        {
          "internalType": "uint256",
          "name": "_amount",
          "type": "uint256"
        },
        {
          "internalType": "enum BettingEngine.BetType",
          "name": "_betType",
          "type": "uint8"
        },
        {
          "internalType": "bool",
          "name": "_isBettingOnHomeOrOver",
          "type": "bool"
        },
        {
          "internalType": "uint256",
          "name": "_odds",
          "type": "uint256"
        },
        {
          "internalType": "int256",
          "name": "_line",
          "type": "int256"
        }
      ],
      "name": "placeBet",
      "outputs": [
        {
          "internalType": "uint256",
          "name": "",
          "type": "uint256"
        }
      ],
      "stateMutability": "nonpayable",
      "type": "function"
    },
    {
      "inputs": [
        {
          "internalType": "uint256",
          "name": "homeScore",
          "type": "uint256"
        },
        {
          "internalType": "uint256",
          "name": "awayScore",
          "type": "uint256"
        }
      ],
      "name": "settleBets",
      "outputs": [
        {
          "internalType": "uint256",
          "name": "",
          "type": "uint256"
        }
      ],
      "stateMutability": "nonpayable",
      "type": "function"
    },
    {
      "inputs": [
        {
          "internalType": "uint256",
          "name": "_newMaxExposure",
          "type": "uint256"
        }
      ],
      "name": "updateMaxExposure",
      "outputs": [],
      "stateMutability": "nonpayable",
      "type": "function"
    },
    {
      "inputs": [],
      "name": "usdx",
      "outputs": [
        {
          "internalType": "contract IERC20",
          "name": "",
          "type": "address"
        }
      ],
      "stateMutability": "view",
      "type": "function"
    }
  ],
  "bytecode": "0x60803461019757601f6200138038819003918201601f191683019291906001600160401b0384118385101761019c5781608092849260409687528339810103126101975761004c816101b2565b90610059602082016101b2565b60606100668584016101b2565b9201516001600055926001600160a01b0390811691821561015357811692831561010f57169182156100cb5760018060a01b03199182600354161760035581600154161760015560025416176002556006556000600755516111b99081620001c78239f35b845162461bcd60e51b815260206004820152601d60248201527f496e76616c6964204c6971756964697479506f6f6c20616464726573730000006044820152606490fd5b855162461bcd60e51b815260206004820152601460248201527f496e76616c6964205553445820616464726573730000000000000000000000006044820152606490fd5b855162461bcd60e51b815260206004820152601660248201527f496e76616c6964206d61726b65742061646472657373000000000000000000006044820152606490fd5b600080fd5b634e487b7160e01b600052604160045260246000fd5b51906001600160a01b03821682036101975756fe608080604052600436101561001357600080fd5b60003560e01c90816315ef6c7b14610c745750806322af00fa14610c4d5780632319e3dc14610aed578063311176d714610ac45780633cc6666714610a6c5780633df2967e146109ec578063479eaf2514610938578063665a11ca1461090f57806395623641146108e65780639e1ae2a0146108c8578063bddf3c8514610743578063ce21edd8146106a8578063da4cdb23146105fa5763de8414b6146100b957600080fd5b346105f55760c03660031901126105f5576100d2610d25565b600360443510156105f55760643580151581036105f5576100fe60018060a01b03600354163314610d53565b6002600054146105b057600260005560243515610572576103e88060843510610535576084356024350260243581046084350361051f57610143916024359104610db7565b9061015082600754610dc4565b600654106104a4576001546040516323b872dd60e01b81526001600160a01b03858116600483015230602480840191909152356044830152909160209183916064918391600091165af190811561049857600091610469575b50156103e7576101bb82600754610dc4565b60075560045460405190929061012081016001600160401b038111828210176103a55760409081526001600160a01b03861682526024356020830190815290820183815260443560608401908152851515608085015260a43560a085015260843560c0850152600060e0850181905261010085015290600160401b8710156103a5576001870160045561024d87610c8f565b9390936103d157845184546001600160a01b0319166001600160a01b0391909116178455516001840155516002830155519060038210156103bb576102e7926006826102b56003610100950160ff199660ff8883541691161781556080850151151590610e0c565b60a0830151600482015560c08301516005820155019260ff60e083015115159185541691161783550151151590610e0c565b6001600160a01b03841660009081526005602052604090208054600160401b8110156103a5576020958593610345837f95e3c80d81e8683384b5960f0d2c0c12bd9309b1549e7083c249a57457f7aaff95600160c096018155610d3b565b81549060031b9087821b91600019901b1916179055604051956024358752610371898801604435610cc4565b1515604087015260a4356060870152608435608087015260a08601526001600160a01b031693a36001600055604051908152f35b634e487b7160e01b600052604160045260246000fd5b634e487b7160e01b600052602160045260246000fd5b634e487b7160e01b600052600060045260246000fd5b60405162461bcd60e51b815260206004820152604e60248201527f42657474696e67456e67696e653a20546f6b656e207472616e7366657220666160448201527f696c65642e20456e737572652073756666696369656e742062616c616e63652060648201526d30b7321030b63637bbb0b731b29760911b608482015260a490fd5b61048b915060203d602011610491575b6104838183610dd1565b810190610df4565b386101a9565b503d610479565b6040513d6000823e3d90fd5b60405162461bcd60e51b815260206004820152604760248201527f42657474696e67456e67696e653a204d61726b65742063616e6e6f742061636360448201527f6570742074686973206265742073697a6520776974682063757272656e74206560648201526678706f7375726560c81b608482015260a490fd5b634e487b7160e01b600052601160045260246000fd5b60405162461bcd60e51b815260206004820152601560248201527404f646473206d757374206265203e3d20312e30303605c1b6044820152606490fd5b60405162461bcd60e51b8152602060048201526016602482015275042657420616d6f756e74206d757374206265203e20360541b6044820152606490fd5b60405162461bcd60e51b815260206004820152601f60248201527f5265656e7472616e637947756172643a207265656e7472616e742063616c6c006044820152606490fd5b600080fd5b346105f55760203660031901126105f55760043561062360018060a01b03600354163314610d53565b600754811061063157600655005b60a460405162461bcd60e51b815260206004820152604460248201527f42657474696e67456e67696e653a204e6577206d6178206578706f737572652060448201527f63616e6e6f74206265206c657373207468616e2063757272656e74206578706f6064820152637375726560e01b6084820152fd5b346105f55760203660031901126105f5576002546001600160a01b031633036106de576106d9600435600654610dc4565b600655005b60405162461bcd60e51b815260206004820152603760248201527f42657474696e67456e67696e653a204f6e6c79204c6971756964697479506f6f6044820152766c2063616e20696e637265617365206578706f7375726560481b6064820152608490fd5b346105f55760403660031901126105f5576004356024359060018060a01b0361077181600354163314610d53565b60005b600454811080156108b65761078890610e4e565b61079181610c8f565b5090826006830192835460ff8116156107b7575b5050506107b29150610e24565b610774565b6107d76107c5898985611029565b80966001809460ff1916178155610e0c565b6000851561088257506107f281830154600284015490610dc4565b928391541686835416604051809263a9059cbb60e01b82528160008161081f602098899760048401610e33565b03925af195861561049857878694600080516020611164833981519152946040946107b29a610864575b50505b541694825191151582526020820152a38286806107a5565b8161087a92903d10610491576104838183610dd1565b508c80610849565b9260008051602061116483398151915291506107b295604091846002889601546108af6007918254610db7565b905561084c565b60206108c0610e8b565b604051908152f35b346105f55760003660031901126105f5576020600654604051908152f35b346105f55760003660031901126105f5576003546040516001600160a01b039091168152602090f35b346105f55760003660031901126105f5576002546040516001600160a01b039091168152602090f35b346105f5576020806003193601126105f5576001600160a01b0361095a610d25565b1660005260058152604060002060405190818382549182815201908192600052846000209060005b868282106109d857868661099882880383610dd1565b604051928392818401908285525180915260408401929160005b8281106109c157505050500390f35b8351855286955093810193928101926001016109b2565b835485529093019260019283019201610982565b346105f55760203660031901126105f557610a15600435610a106004548210610e4e565b610c8f565b5060018060a01b0381541690610a686001820154916002810154926003820154916004810154600660058301549201549360405197889760ff808860081c1697169560ff808560081c169416928a610cd1565b0390f35b346105f55760403660031901126105f557610a85610d25565b6001600160a01b03166000908152600560205260409020805460243591908210156105f557602091610ab691610d3b565b90546040519160031b1c8152f35b346105f55760003660031901126105f5576001546040516001600160a01b039091168152602090f35b346105f55760003660031901126105f5576003546001600160a01b0390610b179082163314610d53565b60009060005b600454811015610c1857610b3081610c8f565b506006810180549060ff821615610b53575b505050610b4e90610e24565b610b1d565b6001809261ffff191617905580820154908115610b42578490959392955416928185875416604051809663a9059cbb60e01b825281600081610b9c6020998a9760048401610e33565b03925af19182156104985786610bcf60008051602061116483398151915293604093610b4e998997610bfb575b50610dc4565b986002810154610be26007918254610db7565b90555416936000825191818352820152a3908480610b42565b610c1190893d8b11610491576104838183610dd1565b508c610bc9565b7f5acc3653d085a8a05d8682b132c9d1ffa7976497780b87ebfa5c4569eaa19c82602084604051908152a160206108c0610e8b565b346105f55760203660031901126105f5576004356004548110156105f557610a1590610c8f565b346105f55760003660031901126105f5576020906007548152f35b600454811015610cae5760046000526007602060002091020190600090565b634e487b7160e01b600052603260045260246000fd5b9060038210156103bb5752565b97949193610d06919a99969361010098956101208b019c60018060a01b03168b5260208b015260408a01526060890190610cc4565b1515608087015260a086015260c0850152151560e08401521515910152565b600435906001600160a01b03821682036105f557565b8054821015610cae5760005260206000200190600090565b15610d5a57565b60405162461bcd60e51b815260206004820152602f60248201527f4f6e6c7920746865206d61726b657420636f6e74726163742063616e2063616c60448201526e36103a3434b990333ab731ba34b7b760891b6064820152608490fd5b9190820391821161051f57565b9190820180921161051f57565b601f909101601f19168101906001600160401b038211908210176103a557604052565b908160209103126105f5575180151581036105f55790565b9061ff00825491151560081b169061ff001916179055565b600019811461051f5760010190565b6001600160a01b039091168152602081019190915260400190565b15610e5557565b60405162461bcd60e51b815260206004820152600e60248201526d125b9d985b1a590818995d08125160921b6044820152606490fd5b600154604080516370a0823160e01b8152306004820152916020906001600160a01b039081168285602481845afa948515610fa957600095610fd0575b50600060075584908115610fb457610efe91849184600254166000885180968195829463095ea7b360e01b845260048401610e33565b03925af18015610fa957610f8c575b506002541691823b156105f5576000809360248351809681936322baaeeb60e11b83528960048401525af18015610f8157610f5c575b600080516020611144833981519152925051838152a190565b6001600160401b0383116103a557600080516020611144833981519152928152610f43565b50513d6000823e3d90fd5b610fa290833d8511610491576104838183610dd1565b5038610f0d565b84513d6000823e3d90fd5b505050600080516020611144833981519152915160008152a190565b90948382813d8311610ffb575b610fe78183610dd1565b81010312610ff85750519338610ec8565b80fd5b503d610fdd565b90600a820291808305600a149015171561051f57565b600160ff1b811461051f5760000390565b919060038301549060ff821660038110156103bb578061108e5750828111935090918361107f575b831561105e575b50505090565b11915081611070575b50388080611058565b60ff915060081c161538611067565b925060ff8260081c1692611051565b600181036110e557506000838203931281841281169184139015161761051f5760081c60ff16156110d35760046110c76110cf92611002565b920154611018565b1290565b60046110c76110e192611002565b1390565b91939290916002146110fa5750505050600090565b61110860049160ff93610dc4565b9201549260081c161561112c57600a810290808204600a149015171561051f571190565b600a810290808204600a149015171561051f57109056fe3a17b09fdeffe50add2e5a585692d360db7e9e47a81627894b40203fca500906e730d6310bec1dfc964bdf1e3f75a78c8ef2dee9d092f9ff09253258852ed7d4a26469706673582212205f9306c709875f16df83046a9631c276d37fe1d8b33e89a1c82ead2de9d45c4264736f6c63430008130033",
  "linkReferences": {},
  "deployedLinkReferences": {}
}