{
  "_format": "hh-sol-artifact-1",
  "contractName": "BettingEngine",
  "sourceName": "contracts/BettingEngine.sol",
  "abi": [
    {
      "inputs": [
        {
          "internalType": "address",
          "name": "_marketAddress",
          "type": "address"
        },
        {
          "internalType": "address",
          "name": "_usdx",
          "type": "address"
        },
        {
          "internalType": "address",
          "name": "_liquidityPool",
          "type": "address"
        },
        {
          "internalType": "uint256",
          "name": "_maxExposure",
          "type": "uint256"
        }
      ],
      "stateMutability": "nonpayable",
      "type": "constructor"
    },
    {
      "anonymous": false,
      "inputs": [
        {
          "indexed": false,
          "internalType": "uint256",
          "name": "betId",
          "type": "uint256"
        },
        {
          "indexed": false,
          "internalType": "address",
          "name": "bettor",
          "type": "address"
        },
        {
          "indexed": false,
          "internalType": "uint256",
          "name": "amount",
          "type": "uint256"
        },
        {
          "indexed": false,
          "internalType": "bool",
          "name": "onHomeTeam",
          "type": "bool"
        },
        {
          "indexed": false,
          "internalType": "uint256",
          "name": "potentialWinnings",
          "type": "uint256"
        }
      ],
      "name": "BetPlaced",
      "type": "event"
    },
    {
      "anonymous": false,
      "inputs": [
        {
          "indexed": false,
          "internalType": "uint256",
          "name": "betId",
          "type": "uint256"
        },
        {
          "indexed": false,
          "internalType": "address",
          "name": "bettor",
          "type": "address"
        },
        {
          "indexed": false,
          "internalType": "bool",
          "name": "won",
          "type": "bool"
        },
        {
          "indexed": false,
          "internalType": "uint256",
          "name": "payout",
          "type": "uint256"
        }
      ],
      "name": "BetSettled",
      "type": "event"
    },
    {
      "anonymous": false,
      "inputs": [
        {
          "indexed": false,
          "internalType": "uint256",
          "name": "returnedToPool",
          "type": "uint256"
        }
      ],
      "name": "MarketSettled",
      "type": "event"
    },
    {
      "inputs": [
        {
          "internalType": "uint256",
          "name": "",
          "type": "uint256"
        }
      ],
      "name": "bets",
      "outputs": [
        {
          "internalType": "address",
          "name": "bettor",
          "type": "address"
        },
        {
          "internalType": "uint256",
          "name": "amount",
          "type": "uint256"
        },
        {
          "internalType": "uint256",
          "name": "potentialWinnings",
          "type": "uint256"
        },
        {
          "internalType": "bool",
          "name": "onHomeTeam",
          "type": "bool"
        },
        {
          "internalType": "bool",
          "name": "settled",
          "type": "bool"
        },
        {
          "internalType": "bool",
          "name": "won",
          "type": "bool"
        }
      ],
      "stateMutability": "view",
      "type": "function"
    },
    {
      "inputs": [
        {
          "internalType": "address",
          "name": "",
          "type": "address"
        },
        {
          "internalType": "uint256",
          "name": "",
          "type": "uint256"
        }
      ],
      "name": "bettorToBets",
      "outputs": [
        {
          "internalType": "uint256",
          "name": "",
          "type": "uint256"
        }
      ],
      "stateMutability": "view",
      "type": "function"
    },
    {
      "inputs": [],
      "name": "currentExposure",
      "outputs": [
        {
          "internalType": "uint256",
          "name": "",
          "type": "uint256"
        }
      ],
      "stateMutability": "view",
      "type": "function"
    },
    {
      "inputs": [
        {
          "internalType": "uint256",
          "name": "_betId",
          "type": "uint256"
        }
      ],
      "name": "getBetDetails",
      "outputs": [
        {
          "internalType": "address",
          "name": "",
          "type": "address"
        },
        {
          "internalType": "uint256",
          "name": "",
          "type": "uint256"
        },
        {
          "internalType": "uint256",
          "name": "",
          "type": "uint256"
        },
        {
          "internalType": "bool",
          "name": "",
          "type": "bool"
        },
        {
          "internalType": "bool",
          "name": "",
          "type": "bool"
        },
        {
          "internalType": "bool",
          "name": "",
          "type": "bool"
        }
      ],
      "stateMutability": "view",
      "type": "function"
    },
    {
      "inputs": [
        {
          "internalType": "address",
          "name": "_bettor",
          "type": "address"
        }
      ],
      "name": "getBettorBets",
      "outputs": [
        {
          "internalType": "uint256[]",
          "name": "",
          "type": "uint256[]"
        }
      ],
      "stateMutability": "view",
      "type": "function"
    },
    {
      "inputs": [],
      "name": "liquidityPool",
      "outputs": [
        {
          "internalType": "contract LiquidityPool",
          "name": "",
          "type": "address"
        }
      ],
      "stateMutability": "view",
      "type": "function"
    },
    {
      "inputs": [],
      "name": "marketAddress",
      "outputs": [
        {
          "internalType": "address",
          "name": "",
          "type": "address"
        }
      ],
      "stateMutability": "view",
      "type": "function"
    },
    {
      "inputs": [],
      "name": "maxExposure",
      "outputs": [
        {
          "internalType": "uint256",
          "name": "",
          "type": "uint256"
        }
      ],
      "stateMutability": "view",
      "type": "function"
    },
    {
      "inputs": [
        {
          "internalType": "address",
          "name": "_bettor",
          "type": "address"
        },
        {
          "internalType": "uint256",
          "name": "_amount",
          "type": "uint256"
        },
        {
          "internalType": "bool",
          "name": "_onHomeTeam",
          "type": "bool"
        },
        {
          "internalType": "uint256",
          "name": "_odds",
          "type": "uint256"
        }
      ],
      "name": "placeBet",
      "outputs": [
        {
          "internalType": "uint256",
          "name": "",
          "type": "uint256"
        }
      ],
      "stateMutability": "nonpayable",
      "type": "function"
    },
    {
      "inputs": [
        {
          "internalType": "uint8",
          "name": "outcome",
          "type": "uint8"
        }
      ],
      "name": "settleBets",
      "outputs": [
        {
          "internalType": "uint256",
          "name": "",
          "type": "uint256"
        }
      ],
      "stateMutability": "nonpayable",
      "type": "function"
    },
    {
      "inputs": [
        {
          "internalType": "uint256",
          "name": "_newMaxExposure",
          "type": "uint256"
        }
      ],
      "name": "updateMaxExposure",
      "outputs": [],
      "stateMutability": "nonpayable",
      "type": "function"
    },
    {
      "inputs": [],
      "name": "usdx",
      "outputs": [
        {
          "internalType": "contract IERC20",
          "name": "",
          "type": "address"
        }
      ],
      "stateMutability": "view",
      "type": "function"
    }
  ],
  "bytecode": "0x6080346100b257601f610d8838819003918201601f19168301916001600160401b038311848410176100b7578084926080946040528339810103126100b257610047816100cd565b610053602083016100cd565b6060610061604085016100cd565b93015192600160005560018060a01b0380928160018060a01b0319951685600354161760035516836001541617600155169060025416176002556006556000600755604051610ca690816100e28239f35b600080fd5b634e487b7160e01b600052604160045260246000fd5b51906001600160a01b03821682036100b25756fe6080604052600436101561001257600080fd5b60003560e01c8063028463911461081557806315ef6c7b146107f757806322af00fa146107d0578063311176d7146107a7578063312892bd146103715780633cc66667146103195780633df2967e1461025a578063479eaf25146101a6578063665a11ca1461017d57806395623641146101545780639e1ae2a0146101365763da4cdb23146100a057600080fd5b34610131576020366003190112610131576004356100c960018060a01b03600354163314610b6f565b60075481106100d757600655005b60405162461bcd60e51b815260206004820152602c60248201527f4e6577206d6178206578706f73757265206d757374206265203e3d206375727260448201526b656e74206578706f7375726560a01b6064820152608490fd5b600080fd5b34610131576000366003190112610131576020600654604051908152f35b34610131576000366003190112610131576003546040516001600160a01b039091168152602090f35b34610131576000366003190112610131576002546040516001600160a01b039091168152602090f35b3461013157602080600319360112610131576001600160a01b036101c8610b41565b1660005260058152604060002060405190818382549182815201908192600052846000209060005b8682821061024657868661020682880383610be0565b604051928392818401908285525180915260408401929160005b82811061022f57505050500390f35b835185528695509381019392810192600101610220565b8354855290930192600192830192016101f0565b34610131576020366003190112610131576004356004548110156102e35761028190610b0c565b50805460018201546002830154600390930154604080516001600160a01b03909416845260208401929092529082019290925260ff80831615156060830152600883901c81161515608083015260109290921c909116151560a082015260c090f35b60405162461bcd60e51b815260206004820152600e60248201526d125b9d985b1a590818995d08125160921b6044820152606490fd5b3461013157604036600319011261013157610332610b41565b6001600160a01b03166000908152600560205260409020805460243591908210156101315760209161036391610b57565b90546040519160031b1c8152f35b346101315760803660031901126101315761038a610b41565b604435908115158203610131576064356103af60018060a01b03600354163314610b6f565b60026000541461076257600260005560243515610713578060243502906024358204036106fd576103e8900490816024358103116106fd576103f76024358303600754610bd3565b60065410610697576001546040516323b872dd60e01b81526001600160a01b03838116600483015230602480840191909152356044830152909160209183916064918391600091165af190811561068b5760009161065c575b501561061f576104666024358303600754610bd3565b60075560045460405190929060c081016001600160401b038111828210176105f35760409081526001600160a01b038416825260243560208301819052830390820152841515606082015260006080820181905260a0820152600160401b8410156105f357600184016004556104db84610b0c565b9190916106095760a0600361054593600180841b03845116600180851b03198254161781556020840151600182015560408401516002820155019160608101511515835460ff61ff006080850151151560081b1692169061ffff1916171783550151151590610c1b565b6001600160a01b0382166000908152600560205260409020805490929091600160401b8310156105f3576020956105a5847f49b226f5f2217fc8f76e75aa92cced1295253fa19969517d34b604adc5e8460496600160a097018155610b57565b81549060031b9088821b91600019901b191617905560405192868452600180861b03168784015260243560408401521515606083015260243590036080820152a16001600055604051908152f35b634e487b7160e01b600052604160045260246000fd5b634e487b7160e01b600052600060045260246000fd5b60405162461bcd60e51b8152602060048201526015602482015274151bdad95b881d1c985b9cd9995c8819985a5b1959605a1b6044820152606490fd5b61067e915060203d602011610684575b6106768183610be0565b810190610c03565b84610450565b503d61066c565b6040513d6000823e3d90fd5b60405162461bcd60e51b815260206004820152603860248201527f4d61726b65742063616e6e6f74206163636570742074686973206265742073696044820152777a6520776974682063757272656e74206578706f7375726560401b6064820152608490fd5b634e487b7160e01b600052601160045260246000fd5b60405162461bcd60e51b815260206004820152602160248201527f42657420616d6f756e74206d7573742062652067726561746572207468616e206044820152600360fc1b6064820152608490fd5b60405162461bcd60e51b815260206004820152601f60248201527f5265656e7472616e637947756172643a207265656e7472616e742063616c6c006044820152606490fd5b34610131576000366003190112610131576001546040516001600160a01b039091168152602090f35b34610131576020366003190112610131576004356004548110156101315761028190610b0c565b34610131576000366003190112610131576020600754604051908152f35b3461013157602080600319360112610131576004359060ff908183168093036101315760018060a01b0390600391610851818454163314610b6f565b60005b6004548110156109c75761086781610b0c565b50848101838154888160081c161561088f575b5050505060001981146106fd57600101610854565b600192838b1491826109bd575b8215610997575b61ff0019166101001781556108b9908290610c1b565b156109625750806108d56108fd92840154600285015490610bd3565b86818784541688875416600060405180988195829463a9059cbb60e01b845260048401610c35565b03925af1801561068b57600080516020610c51833981519152946080948892610945575b50541691604051928684528884015260408301526060820152a15b8680838161087a565b61095b908a3d8c11610684576106768183610be0565b508c610921565b60809150600080516020610c5183398151915292541660405190848252868201526000604082015260006060820152a161093c565b61010092506108b99160028d14806109b3575b935091506108a3565b508b8216156109aa565b8a8116925061089c565b506001546040516370a0823160e01b8152306004820152919081168383602481845afa92831561068b57600093610add575b50838380610a0a575b604051908152f35b610a31928460025416600060405180968195829463095ea7b360e01b845260048401610c35565b03925af1801561068b57610ac0575b5060025416803b1561013157600080916024604051809481936322baaeeb60e11b83528760048401525af1801561068b57610aa9575b507f3a17b09fdeffe50add2e5a585692d360db7e9e47a81627894b40203fca50090682604051838152a182808383610a02565b6001600160401b0381116105f35760405282610a76565b610ad690843d8611610684576106768183610be0565b5083610a40565b9092508381813d8311610b05575b610af58183610be0565b81010312610131575191846109f9565b503d610aeb565b600454811015610b2b57600460005260206000209060021b0190600090565b634e487b7160e01b600052603260045260246000fd5b600435906001600160a01b038216820361013157565b8054821015610b2b5760005260206000200190600090565b15610b7657565b60405162461bcd60e51b815260206004820152602f60248201527f4f6e6c7920746865206d61726b657420636f6e74726163742063616e2063616c60448201526e36103a3434b990333ab731ba34b7b760891b6064820152608490fd5b919082018092116106fd57565b601f909101601f19168101906001600160401b038211908210176105f357604052565b90816020910312610131575180151581036101315790565b9062ff0000825491151560101b169062ff00001916179055565b6001600160a01b03909116815260208101919091526040019056fee730d6310bec1dfc964bdf1e3f75a78c8ef2dee9d092f9ff09253258852ed7d4a26469706673582212202f4dc291aa5a305a2621c591e34a28aa280ce4eeba7e6418a22afab16cd7f66264736f6c63430008130033",
  "linkReferences": {},
  "deployedLinkReferences": {}
}