{
  "_format": "hh-sol-artifact-1",
  "contractName": "BettingEngine",
  "sourceName": "contracts/BettingEngine.sol",
  "abi": [
    {
      "inputs": [
        {
          "internalType": "address",
          "name": "_marketAddress",
          "type": "address"
        },
        {
          "internalType": "address",
          "name": "_usdx",
          "type": "address"
        },
        {
          "internalType": "address",
          "name": "_liquidityPoolAddress",
          "type": "address"
        },
        {
          "internalType": "uint256",
          "name": "_maxExposure",
          "type": "uint256"
        }
      ],
      "stateMutability": "nonpayable",
      "type": "constructor"
    },
    {
      "anonymous": false,
      "inputs": [
        {
          "indexed": true,
          "internalType": "uint256",
          "name": "betId",
          "type": "uint256"
        },
        {
          "indexed": true,
          "internalType": "address",
          "name": "bettor",
          "type": "address"
        },
        {
          "indexed": false,
          "internalType": "uint256",
          "name": "amount",
          "type": "uint256"
        },
        {
          "indexed": false,
          "internalType": "enum MarketExposureManager.BetType",
          "name": "betType",
          "type": "uint8"
        },
        {
          "indexed": false,
          "internalType": "bool",
          "name": "isBettingOnHomeOrOver",
          "type": "bool"
        },
        {
          "indexed": false,
          "internalType": "int256",
          "name": "line",
          "type": "int256"
        },
        {
          "indexed": false,
          "internalType": "uint256",
          "name": "odds",
          "type": "uint256"
        },
        {
          "indexed": false,
          "internalType": "uint256",
          "name": "potentialWinnings",
          "type": "uint256"
        }
      ],
      "name": "BetPlaced",
      "type": "event"
    },
    {
      "anonymous": false,
      "inputs": [
        {
          "indexed": true,
          "internalType": "uint256",
          "name": "betId",
          "type": "uint256"
        },
        {
          "indexed": true,
          "internalType": "address",
          "name": "bettor",
          "type": "address"
        },
        {
          "indexed": false,
          "internalType": "bool",
          "name": "won",
          "type": "bool"
        },
        {
          "indexed": false,
          "internalType": "uint256",
          "name": "payout",
          "type": "uint256"
        }
      ],
      "name": "BetSettled",
      "type": "event"
    },
    {
      "anonymous": false,
      "inputs": [
        {
          "indexed": false,
          "internalType": "uint256",
          "name": "totalRefunded",
          "type": "uint256"
        }
      ],
      "name": "BetsRefunded",
      "type": "event"
    },
    {
      "anonymous": false,
      "inputs": [
        {
          "indexed": false,
          "internalType": "enum MarketExposureManager.BetType",
          "name": "betType",
          "type": "uint8"
        },
        {
          "indexed": false,
          "internalType": "bool",
          "name": "isBettingOnHomeOrOver",
          "type": "bool"
        },
        {
          "indexed": false,
          "internalType": "uint256",
          "name": "newLimit",
          "type": "uint256"
        }
      ],
      "name": "MarketExposureLimitSet",
      "type": "event"
    },
    {
      "anonymous": false,
      "inputs": [
        {
          "indexed": false,
          "internalType": "uint256",
          "name": "returnedToPool",
          "type": "uint256"
        }
      ],
      "name": "MarketSettled",
      "type": "event"
    },
    {
      "inputs": [],
      "name": "_liquidityPool",
      "outputs": [
        {
          "internalType": "contract LiquidityPool",
          "name": "",
          "type": "address"
        }
      ],
      "stateMutability": "view",
      "type": "function"
    },
    {
      "inputs": [],
      "name": "awayMoneylineCurrentExposure",
      "outputs": [
        {
          "internalType": "uint256",
          "name": "",
          "type": "uint256"
        }
      ],
      "stateMutability": "view",
      "type": "function"
    },
    {
      "inputs": [],
      "name": "awayMoneylineMaxExposure",
      "outputs": [
        {
          "internalType": "uint256",
          "name": "",
          "type": "uint256"
        }
      ],
      "stateMutability": "view",
      "type": "function"
    },
    {
      "inputs": [],
      "name": "awaySpreadCurrentExposure",
      "outputs": [
        {
          "internalType": "uint256",
          "name": "",
          "type": "uint256"
        }
      ],
      "stateMutability": "view",
      "type": "function"
    },
    {
      "inputs": [],
      "name": "awaySpreadMaxExposure",
      "outputs": [
        {
          "internalType": "uint256",
          "name": "",
          "type": "uint256"
        }
      ],
      "stateMutability": "view",
      "type": "function"
    },
    {
      "inputs": [
        {
          "internalType": "uint256",
          "name": "",
          "type": "uint256"
        }
      ],
      "name": "bets",
      "outputs": [
        {
          "internalType": "address",
          "name": "bettor",
          "type": "address"
        },
        {
          "internalType": "uint256",
          "name": "amount",
          "type": "uint256"
        },
        {
          "internalType": "uint256",
          "name": "potentialWinnings",
          "type": "uint256"
        },
        {
          "internalType": "enum MarketExposureManager.BetType",
          "name": "betType",
          "type": "uint8"
        },
        {
          "internalType": "bool",
          "name": "isBettingOnHomeOrOver",
          "type": "bool"
        },
        {
          "internalType": "int256",
          "name": "line",
          "type": "int256"
        },
        {
          "internalType": "uint256",
          "name": "odds",
          "type": "uint256"
        },
        {
          "internalType": "bool",
          "name": "settled",
          "type": "bool"
        },
        {
          "internalType": "bool",
          "name": "won",
          "type": "bool"
        }
      ],
      "stateMutability": "view",
      "type": "function"
    },
    {
      "inputs": [
        {
          "internalType": "address",
          "name": "",
          "type": "address"
        },
        {
          "internalType": "uint256",
          "name": "",
          "type": "uint256"
        }
      ],
      "name": "bettorToBets",
      "outputs": [
        {
          "internalType": "uint256",
          "name": "",
          "type": "uint256"
        }
      ],
      "stateMutability": "view",
      "type": "function"
    },
    {
      "inputs": [],
      "name": "cancelBetsAndRefund",
      "outputs": [
        {
          "internalType": "uint256",
          "name": "",
          "type": "uint256"
        }
      ],
      "stateMutability": "nonpayable",
      "type": "function"
    },
    {
      "inputs": [],
      "name": "currentExposure",
      "outputs": [
        {
          "internalType": "uint256",
          "name": "",
          "type": "uint256"
        }
      ],
      "stateMutability": "view",
      "type": "function"
    },
    {
      "inputs": [
        {
          "internalType": "uint256",
          "name": "_removedAmount",
          "type": "uint256"
        }
      ],
      "name": "decreaseMaxExposure",
      "outputs": [],
      "stateMutability": "nonpayable",
      "type": "function"
    },
    {
      "inputs": [],
      "name": "drawCurrentExposure",
      "outputs": [
        {
          "internalType": "uint256",
          "name": "",
          "type": "uint256"
        }
      ],
      "stateMutability": "view",
      "type": "function"
    },
    {
      "inputs": [],
      "name": "drawMaxExposure",
      "outputs": [
        {
          "internalType": "uint256",
          "name": "",
          "type": "uint256"
        }
      ],
      "stateMutability": "view",
      "type": "function"
    },
    {
      "inputs": [
        {
          "internalType": "uint256",
          "name": "_betId",
          "type": "uint256"
        }
      ],
      "name": "getBetDetails",
      "outputs": [
        {
          "internalType": "address",
          "name": "bettor",
          "type": "address"
        },
        {
          "internalType": "uint256",
          "name": "amount",
          "type": "uint256"
        },
        {
          "internalType": "uint256",
          "name": "potentialWinnings",
          "type": "uint256"
        },
        {
          "internalType": "enum MarketExposureManager.BetType",
          "name": "betType",
          "type": "uint8"
        },
        {
          "internalType": "bool",
          "name": "isBettingOnHomeOrOver",
          "type": "bool"
        },
        {
          "internalType": "int256",
          "name": "line",
          "type": "int256"
        },
        {
          "internalType": "uint256",
          "name": "odds",
          "type": "uint256"
        },
        {
          "internalType": "bool",
          "name": "settled",
          "type": "bool"
        },
        {
          "internalType": "bool",
          "name": "won",
          "type": "bool"
        }
      ],
      "stateMutability": "view",
      "type": "function"
    },
    {
      "inputs": [
        {
          "internalType": "address",
          "name": "_bettor",
          "type": "address"
        }
      ],
      "name": "getBettorBets",
      "outputs": [
        {
          "internalType": "uint256[]",
          "name": "",
          "type": "uint256[]"
        }
      ],
      "stateMutability": "view",
      "type": "function"
    },
    {
      "inputs": [
        {
          "internalType": "enum MarketExposureManager.BetType",
          "name": "_betType",
          "type": "uint8"
        },
        {
          "internalType": "bool",
          "name": "_isBettingOnHomeOrOver",
          "type": "bool"
        }
      ],
      "name": "getMarketExposure",
      "outputs": [
        {
          "internalType": "uint256",
          "name": "maxLimit",
          "type": "uint256"
        },
        {
          "internalType": "uint256",
          "name": "currentAmount",
          "type": "uint256"
        }
      ],
      "stateMutability": "view",
      "type": "function"
    },
    {
      "inputs": [],
      "name": "getMoneylineExposure",
      "outputs": [
        {
          "internalType": "uint256",
          "name": "homeMaxExposure",
          "type": "uint256"
        },
        {
          "internalType": "uint256",
          "name": "homeCurrentExposure",
          "type": "uint256"
        },
        {
          "internalType": "uint256",
          "name": "awayMaxExposure",
          "type": "uint256"
        },
        {
          "internalType": "uint256",
          "name": "awayCurrentExposure",
          "type": "uint256"
        },
        {
          "internalType": "uint256",
          "name": "drawMax",
          "type": "uint256"
        },
        {
          "internalType": "uint256",
          "name": "drawCurrent",
          "type": "uint256"
        }
      ],
      "stateMutability": "view",
      "type": "function"
    },
    {
      "inputs": [],
      "name": "getSpreadExposure",
      "outputs": [
        {
          "internalType": "uint256",
          "name": "homeMaxExposure",
          "type": "uint256"
        },
        {
          "internalType": "uint256",
          "name": "homeCurrentExposure",
          "type": "uint256"
        },
        {
          "internalType": "uint256",
          "name": "awayMaxExposure",
          "type": "uint256"
        },
        {
          "internalType": "uint256",
          "name": "awayCurrentExposure",
          "type": "uint256"
        }
      ],
      "stateMutability": "view",
      "type": "function"
    },
    {
      "inputs": [],
      "name": "getTotalExposure",
      "outputs": [
        {
          "internalType": "uint256",
          "name": "overMax",
          "type": "uint256"
        },
        {
          "internalType": "uint256",
          "name": "overCurrent",
          "type": "uint256"
        },
        {
          "internalType": "uint256",
          "name": "underMax",
          "type": "uint256"
        },
        {
          "internalType": "uint256",
          "name": "underCurrent",
          "type": "uint256"
        }
      ],
      "stateMutability": "view",
      "type": "function"
    },
    {
      "inputs": [],
      "name": "homeMoneylineCurrentExposure",
      "outputs": [
        {
          "internalType": "uint256",
          "name": "",
          "type": "uint256"
        }
      ],
      "stateMutability": "view",
      "type": "function"
    },
    {
      "inputs": [],
      "name": "homeMoneylineMaxExposure",
      "outputs": [
        {
          "internalType": "uint256",
          "name": "",
          "type": "uint256"
        }
      ],
      "stateMutability": "view",
      "type": "function"
    },
    {
      "inputs": [],
      "name": "homeSpreadCurrentExposure",
      "outputs": [
        {
          "internalType": "uint256",
          "name": "",
          "type": "uint256"
        }
      ],
      "stateMutability": "view",
      "type": "function"
    },
    {
      "inputs": [],
      "name": "homeSpreadMaxExposure",
      "outputs": [
        {
          "internalType": "uint256",
          "name": "",
          "type": "uint256"
        }
      ],
      "stateMutability": "view",
      "type": "function"
    },
    {
      "inputs": [
        {
          "internalType": "uint256",
          "name": "_addedAmount",
          "type": "uint256"
        }
      ],
      "name": "increaseMaxExposure",
      "outputs": [],
      "stateMutability": "nonpayable",
      "type": "function"
    },
    {
      "inputs": [],
      "name": "marketAddress",
      "outputs": [
        {
          "internalType": "address",
          "name": "",
          "type": "address"
        }
      ],
      "stateMutability": "view",
      "type": "function"
    },
    {
      "inputs": [],
      "name": "maxExposure",
      "outputs": [
        {
          "internalType": "uint256",
          "name": "",
          "type": "uint256"
        }
      ],
      "stateMutability": "view",
      "type": "function"
    },
    {
      "inputs": [],
      "name": "overCurrentExposure",
      "outputs": [
        {
          "internalType": "uint256",
          "name": "",
          "type": "uint256"
        }
      ],
      "stateMutability": "view",
      "type": "function"
    },
    {
      "inputs": [],
      "name": "overMaxExposure",
      "outputs": [
        {
          "internalType": "uint256",
          "name": "",
          "type": "uint256"
        }
      ],
      "stateMutability": "view",
      "type": "function"
    },
    {
      "inputs": [
        {
          "internalType": "address",
          "name": "_bettor",
          "type": "address"
        },
        {
          "internalType": "uint256",
          "name": "_amount",
          "type": "uint256"
        },
        {
          "internalType": "enum MarketExposureManager.BetType",
          "name": "_betType",
          "type": "uint8"
        },
        {
          "internalType": "bool",
          "name": "_isBettingOnHomeOrOver",
          "type": "bool"
        },
        {
          "internalType": "uint256",
          "name": "_odds",
          "type": "uint256"
        },
        {
          "internalType": "int256",
          "name": "_line",
          "type": "int256"
        }
      ],
      "name": "placeBet",
      "outputs": [
        {
          "internalType": "uint256",
          "name": "",
          "type": "uint256"
        }
      ],
      "stateMutability": "nonpayable",
      "type": "function"
    },
    {
      "inputs": [
        {
          "internalType": "uint256",
          "name": "_homeMoneylineLimit",
          "type": "uint256"
        },
        {
          "internalType": "uint256",
          "name": "_awayMoneylineLimit",
          "type": "uint256"
        },
        {
          "internalType": "uint256",
          "name": "_drawLimit",
          "type": "uint256"
        },
        {
          "internalType": "uint256",
          "name": "_homeSpreadLimit",
          "type": "uint256"
        },
        {
          "internalType": "uint256",
          "name": "_awaySpreadLimit",
          "type": "uint256"
        },
        {
          "internalType": "uint256",
          "name": "_overLimit",
          "type": "uint256"
        },
        {
          "internalType": "uint256",
          "name": "_underLimit",
          "type": "uint256"
        }
      ],
      "name": "setAllMarketExposureLimits",
      "outputs": [],
      "stateMutability": "nonpayable",
      "type": "function"
    },
    {
      "inputs": [
        {
          "internalType": "enum MarketExposureManager.BetType",
          "name": "_betType",
          "type": "uint8"
        },
        {
          "internalType": "bool",
          "name": "_isBettingOnHomeOrOver",
          "type": "bool"
        },
        {
          "internalType": "uint256",
          "name": "_newLimit",
          "type": "uint256"
        }
      ],
      "name": "setMarketExposureLimit",
      "outputs": [],
      "stateMutability": "nonpayable",
      "type": "function"
    },
    {
      "inputs": [
        {
          "internalType": "uint256",
          "name": "homeScore",
          "type": "uint256"
        },
        {
          "internalType": "uint256",
          "name": "awayScore",
          "type": "uint256"
        }
      ],
      "name": "settleBets",
      "outputs": [
        {
          "internalType": "uint256",
          "name": "",
          "type": "uint256"
        }
      ],
      "stateMutability": "nonpayable",
      "type": "function"
    },
    {
      "inputs": [],
      "name": "underCurrentExposure",
      "outputs": [
        {
          "internalType": "uint256",
          "name": "",
          "type": "uint256"
        }
      ],
      "stateMutability": "view",
      "type": "function"
    },
    {
      "inputs": [],
      "name": "underMaxExposure",
      "outputs": [
        {
          "internalType": "uint256",
          "name": "",
          "type": "uint256"
        }
      ],
      "stateMutability": "view",
      "type": "function"
    },
    {
      "inputs": [
        {
          "internalType": "uint256",
          "name": "_newMaxExposure",
          "type": "uint256"
        }
      ],
      "name": "updateMaxExposure",
      "outputs": [],
      "stateMutability": "nonpayable",
      "type": "function"
    },
    {
      "inputs": [],
      "name": "usdx",
      "outputs": [
        {
          "internalType": "contract IERC20",
          "name": "",
          "type": "address"
        }
      ],
      "stateMutability": "view",
      "type": "function"
    }
  ],
  "bytecode": "0x608034620001a357601f62001e6338819003918201601f191683019291906001600160401b03841183851017620001a8578160809284926040968752833981010312620001a3576200005181620001be565b906200006060208201620001be565b60606200006f858401620001be565b9201516001600055926001600160a01b039081169182156200015f5781169283156200011b5716918215620000d75760018060a01b0319918260015416176001558160125416176012556013541617601355600255600060035551611c8f9081620001d48239f35b845162461bcd60e51b815260206004820152601d60248201527f496e76616c6964204c6971756964697479506f6f6c20616464726573730000006044820152606490fd5b855162461bcd60e51b815260206004820152601460248201527f496e76616c6964205553445820616464726573730000000000000000000000006044820152606490fd5b855162461bcd60e51b815260206004820152601660248201527f496e76616c6964206d61726b65742061646472657373000000000000000000006044820152606490fd5b600080fd5b634e487b7160e01b600052604160045260246000fd5b51906001600160a01b0382168203620001a35756fe608080604052600436101561001357600080fd5b60003560e01c90816315ef6c7b146113f9575080631f43e0db14611290578063207deba01461126757806322af00fa146112405780632319e3dc146110b85780632349cd801461109a578063285088ac146110525780632d7cbf7014611034578063311176d71461100b5780633cc6666714610fb35780633df2967e14610f37578063479eaf2514610e835780634aafe85a14610e65578063550ee27c14610e4757806359736e7614610d5d57806364ee9bc714610d3f57806367674e0714610d215780637189c36f14610d035780637508864a14610ce557806388a0a98114610ca85780638ac6d21714610c7a5780639562364114610c515780639ab1f60014610c335780639e1ae2a014610c15578063a29b989314610be3578063afd8cd4714610bc5578063bddf3c8514610a1b578063c1e2e6de14610945578063ce21edd8146108b9578063d23fa5ea1461089b578063d9859dd41461087d578063da4cdb23146107e3578063dc117352146107c5578063de8414b6146101c35763e989817c146101a057600080fd5b346101be5760003660031901126101be576020600454604051908152f35b600080fd5b346101be5760c03660031901126101be576101dc6114aa565b600460443510156101be576064351515606435036101be5761020960018060a01b03600154163314611503565b60026000541461078057600260005560243515610742576103e8806084351061070557608435602435026024358104608435036106ef5761024e9160243591046115a2565b61025d81606435604435611977565b15610694576012546040516323b872dd60e01b81526001600160a01b03848116600483015230602480840191909152356044830152909160209183916064918391600091165af190811561068857600091610659575b50156105d7576102c5816003546115f1565b6003556000906044356105395760643515610525576102e681600b546115f1565b600b555b60145460405190926001600160401b036101208301908111908311176104e357610120820160409081526001600160a01b0386168352602435602084015282018390526104f95760443560608201526064351515608082015260a43560a082015260843560c0820152600060e08201819052610100820152600160401b8310156104e3576001830160145561037e83611414565b61050f57815181546001600160a01b0319166001600160a01b0391909116178155602082015160018201556040820151600282015560608201519060048210156104f957610421926006826103ef6003610100950160ff199660ff88835416911617815560808501511515906115af565b60a0830151600482015560c08301516005820155019260ff60e0830151151591855416911617835501511515906115af565b6001600160a01b038316600090815260156020526040902080549390600160401b8510156104e35760c08492610480877f95e3c80d81e8683384b5960f0d2c0c12bd9309b1549e7083c249a57457f7aaff94600160209a0181556114c0565b81549060031b9086821b91600019901b19161790556040519460243586526104ac888701604435611449565b6064351515604087015260a4356060870152608435608087015260a08601526001600160a01b031693a36001600055604051908152f35b634e487b7160e01b600052604160045260246000fd5b634e487b7160e01b600052602160045260246000fd5b634e487b7160e01b600052600060045260246000fd5b61053181600c546115f1565b600c556102ea565b6000915060443560030361055b5761055381600d546115f1565b600d556102ea565b6000915060443560010361059957606435156105855761057d81600e546115f1565b600e556102ea565b61059181600f546115f1565b600f556102ea565b600091506044356002036102ea57606435156105c3576105bb816010546115f1565b6010556102ea565b6105cf816011546115f1565b6011556102ea565b60405162461bcd60e51b815260206004820152604e60248201527f42657474696e67456e67696e653a20546f6b656e207472616e7366657220666160448201527f696c65642e20456e737572652073756666696369656e742062616c616e63652060648201526d30b7321030b63637bbb0b731b29760911b608482015260a490fd5b61067b915060203d602011610681575b6106738183611567565b81019061158a565b836102b3565b503d610669565b6040513d6000823e3d90fd5b60405162461bcd60e51b815260206004820152602d60248201527f42657474696e67456e67696e653a204d61726b6574206578706f73757265206c60448201526c1a5b5a5d08195e18d959591959609a1b6064820152608490fd5b634e487b7160e01b600052601160045260246000fd5b60405162461bcd60e51b815260206004820152601560248201527404f646473206d757374206265203e3d20312e30303605c1b6044820152606490fd5b60405162461bcd60e51b8152602060048201526016602482015275042657420616d6f756e74206d757374206265203e20360541b6044820152606490fd5b60405162461bcd60e51b815260206004820152601f60248201527f5265656e7472616e637947756172643a207265656e7472616e742063616c6c006044820152606490fd5b346101be5760003660031901126101be576020601154604051908152f35b346101be5760203660031901126101be5760043561080c60018060a01b03600154163314611503565b600354811061081a57600255005b60405162461bcd60e51b815260206004820152603560248201527f4e6577206d6178206578706f737572652063616e6e6f74206265206c657373206044820152747468616e2063757272656e74206578706f7375726560581b6064820152608490fd5b346101be5760003660031901126101be576020600954604051908152f35b346101be5760003660031901126101be576020600f54604051908152f35b346101be5760203660031901126101be576013546001600160a01b031633036108ef576108ea6004356002546115f1565b600255005b60405162461bcd60e51b815260206004820152602860248201527f4f6e6c79204c6971756964697479506f6f6c2063616e20696e637265617365206044820152676578706f7375726560c01b6064820152608490fd5b346101be5760603660031901126101be5760043560048110156101be576060600080516020611c3a8339815191529161097c6114d8565b6044359061099560018060a01b03600154163314611503565b826109ca5780156109c157816004555b6109b26040518094611449565b151560208301526040820152a1005b816005556109a5565b600383036109db57816006556109a5565b600183036109fb5780156109f257816007556109a5565b816008556109a5565b600283036109a5578015610a1257816009556109a5565b81600a556109a5565b346101be5760403660031901126101be5760018054602435919081906001600160a01b039060043590610a519083163314611503565b6000925b610a6c575b6020610a6461163b565b604051908152f35b6014548310928315610bbf57610a8285946115fe565b610a8b81611414565b50908460068301805460ff9182821615610ab4575b50505050610aae91506115c7565b92610a55565b90610ad391610ac48c8989611800565b998a9260ff19161781556115af565b6000908715610b845750508201546002830154610aef916115f1565b8460125416928186825416604051809663a9059cbb60e01b825281600081610b1e6020978897600484016115d6565b03925af1948515610688578998888694600080516020611c1a83398151915294604094610aae9a610b66575b50505b541694825191151582526020820152a384888080610aa0565b81610b7c92903d10610681576106738183611567565b508e80610b4a565b6040849293988887610bba600080516020611c1a833981519152956003610aae9b0154600284015491808260081c169116611ab0565b610b4d565b50610a5a565b346101be5760003660031901126101be576020600a54604051908152f35b346101be5760003660031901126101be57600754600e5490610c11600854600f5490604051948594856114e7565b0390f35b346101be5760003660031901126101be576020600254604051908152f35b346101be5760003660031901126101be576020600854604051908152f35b346101be5760003660031901126101be576001546040516001600160a01b039091168152602090f35b346101be5760003660031901126101be5760095460105490610c11600a5460115490604051948594856114e7565b346101be5760403660031901126101be5760043560048110156101be57610cd9604091610cd36114d8565b90611b72565b82519182526020820152f35b346101be5760003660031901126101be576020600c54604051908152f35b346101be5760003660031901126101be576020601054604051908152f35b346101be5760003660031901126101be576020600554604051908152f35b346101be5760003660031901126101be576020600e54604051908152f35b346101be5760203660031901126101be576013546001600160a01b03163303610df157610d8e6004356002546115a2565b6003548110610d9c57600255005b60405162461bcd60e51b815260206004820152602760248201527f446563726561736520776f756c64206c65617665206d61726b657420756e64656044820152661c999d5b99195960ca1b6064820152608490fd5b60405162461bcd60e51b815260206004820152602860248201527f4f6e6c79204c6971756964697479506f6f6c2063616e206465637265617365206044820152676578706f7375726560c01b6064820152608490fd5b346101be5760003660031901126101be576020600654604051908152f35b346101be5760003660031901126101be576020600d54604051908152f35b346101be576020806003193601126101be576001600160a01b03610ea56114aa565b1660005260158152604060002060405190818382549182815201908192600052846000209060005b86828210610f23578686610ee382880383611567565b604051928392818401908285525180915260408401929160005b828110610f0c57505050500390f35b835185528695509381019392810192600101610efd565b835485529093019260019283019201610ecd565b346101be5760203660031901126101be57610f60600435610f5b60145482106115fe565b611414565b5060018060a01b0381541690610c116001820154916002810154926003820154916004810154600660058301549201549360405197889760ff808860081c1697169560ff808560081c169416928a611456565b346101be5760403660031901126101be57610fcc6114aa565b6001600160a01b03166000908152601560205260409020805460243591908210156101be57602091610ffd916114c0565b90546040519160031b1c8152f35b346101be5760003660031901126101be576012546040516001600160a01b039091168152602090f35b346101be5760003660031901126101be576020600754604051908152f35b346101be5760003660031901126101be5760c0600454600b54600554600c5460065491600d5493604051958652602086015260408501526060840152608083015260a0820152f35b346101be5760003660031901126101be576020600b54604051908152f35b346101be5760003660031901126101be5760018060a01b0360016110e0828254163314611503565b60009182825b611120575b7f5acc3653d085a8a05d8682b132c9d1ffa7976497780b87ebfa5c4569eaa19c82602085604051908152a16020610a6461163b565b60145481101561123b5790816111368493611414565b50600681019081549160ff928381161561115f575b50505050611158906115c7565b90916110e6565b61ffff9691929394959619161790558481015480611182575b808695949361114b565b84601297959492939754168185855416604051809363a9059cbb60e01b8252816000816111b66020998a97600484016115d6565b03925af19081156106885786611158966112076111ee6040948d9c8a98600080516020611c1a8339815191529861121e575b506115f1565b9c6003830154600284015491808260081c169116611ab0565b5416936000825191818352820152a3919286611178565b611234908b3d8d11610681576106738183611567565b50386111e8565b6110eb565b346101be5760203660031901126101be576004356014548110156101be57610f6090611414565b346101be5760003660031901126101be576013546040516001600160a01b039091168152602090f35b346101be5760e03660031901126101be57600080516020611c3a83398151915260606004356112ca60018060a01b03600154163314611503565b8060045560243560055560443560065560643560075560843560085560a43560095560c435600a556040519060008252600160208301526040820152a1600080516020611c3a833981519152606060405160008152600060208201526024356040820152a1600080516020611c3a833981519152606060405160038152600060208201526044356040820152a1600080516020611c3a833981519152606060405160018152600160208201526064356040820152a1600080516020611c3a833981519152606060405160018152600060208201526084356040820152a1600080516020611c3a8339815191526060604051600281526001602082015260a4356040820152a1600080516020611c3a8339815191526060604051600281526000602082015260c4356040820152a1005b346101be5760003660031901126101be576020906003548152f35b6014548110156114335760146000526007602060002091020190600090565b634e487b7160e01b600052603260045260246000fd5b9060048210156104f95752565b9794919361148b919a99969361010098956101208b019c60018060a01b03168b5260208b015260408a01526060890190611449565b1515608087015260a086015260c0850152151560e08401521515910152565b600435906001600160a01b03821682036101be57565b80548210156114335760005260206000200190600090565b6024359081151582036101be57565b9094939260609260808301968352602083015260408201520152565b1561150a57565b60405162461bcd60e51b815260206004820152602f60248201527f4f6e6c7920746865206d61726b657420636f6e74726163742063616e2063616c60448201526e36103a3434b990333ab731ba34b7b760891b6064820152608490fd5b601f909101601f19168101906001600160401b038211908210176104e357604052565b908160209103126101be575180151581036101be5790565b919082039182116106ef57565b9061ff00825491151560081b169061ff001916179055565b60001981146106ef5760010190565b6001600160a01b039091168152602081019190915260400190565b919082018092116106ef57565b1561160557565b60405162461bcd60e51b815260206004820152600e60248201526d125b9d985b1a590818995d08125160921b6044820152606490fd5b601254604080516370a0823160e01b8152306004820152916020906001600160a01b039081168285602481845afa948515611780576000956117a7575b5084906000600b556000600c556000600d556000600e556000600f5560006010556000601155600060035581151560001461178b576116d591849184601354166000885180968195829463095ea7b360e01b8452600484016115d6565b03925af1801561178057611763575b506013541691823b156101be576000809360248351809681936322baaeeb60e11b83528960048401525af1801561175857611733575b600080516020611bfa833981519152925051838152a190565b6001600160401b0383116104e357600080516020611bfa83398151915292815261171a565b50513d6000823e3d90fd5b61177990833d8511610681576106738183611567565b50386116e4565b84513d6000823e3d90fd5b505050600080516020611bfa833981519152915160008152a190565b90948382813d83116117d2575b6117be8183611567565b810103126117cf5750519338611678565b80fd5b503d6117b4565b90600a820291808305600a14901517156106ef57565b600160ff1b81146106ef5760000390565b60038101549190600460ff8416818110156119625780611864575050508281119283611855575b8315611834575b50505090565b11915081611846575b5038808061182e565b60ff915060081c16153861183d565b925060ff8260081c1692611827565b60038195929394951460001461187c57505050501490565b600181969592939496146000146118ed5750600084820394128185128116918513901516176118d85760081c60ff16156118c8576118bc6118c4926117d9565b9201546117ef565b1290565b6118bc6118d4926117d9565b1390565b601182634e487b7160e01b6000525260246000fd5b9194939091600214611903575050505050600090565b611910839160ff936115f1565b9301549360081c161561194a57600a820291808304600a149015171561193557501190565b601190634e487b7160e01b6000525260246000fd5b600a820291808304600a149015171561193557501090565b602182634e487b7160e01b6000525260246000fd5b611983836003546115f1565b60025410611aa85760048110156104f957806119e25750156119c35760045480159182156119b057505090565b6119be919250600b546115f1565b111590565b60055480159182156119d457505090565b6119be919250600c546115f1565b60038103611a0b57505060065480159182156119fd57505090565b6119be919250600d546115f1565b60018103611a57575015611a38576007548015918215611a2a57505090565b6119be919250600e546115f1565b6008548015918215611a4957505090565b6119be919250600f546115f1565b600214611a65575050600090565b15611a89576009548015918215611a7b57505090565b6119be9192506010546115f1565b600a548015918215611a9a57505090565b6119be9192506011546115f1565b505050600090565b611abc836003546115a2565b60035560048110156104f95780611af5575015611ae457611adf90600b546115a2565b600b55565b611af090600c546115a2565b600c55565b60038103611b10575050611b0b90600d546115a2565b600d55565b60018103611b40575015611b2f57611b2a90600e546115a2565b600e55565b611b3b90600f546115a2565b600f55565b600214611b4b575050565b15611b6157611b5c906010546115a2565b601055565b611b6d906011546115a2565b601155565b60048110156104f95780611b9a575015611b905760045490600b5490565b60055490600c5490565b60038103611bae57505060065490600d5490565b60018103611bd0575015611bc65760075490600e5490565b60085490600f5490565b600214611be05750600090600090565b15611bef576009549060105490565b600a54906011549056fe3a17b09fdeffe50add2e5a585692d360db7e9e47a81627894b40203fca500906e730d6310bec1dfc964bdf1e3f75a78c8ef2dee9d092f9ff09253258852ed7d4df92ec8f4fc500c62cb2e5f13c1d523325f9e14e0b1f7d0022bc64ca093ef163a2646970667358221220950573861e0a7f86a15cc8a83840406583b5aab21d4273a2077bf04ddc0c9cb764736f6c63430008130033",
  "linkReferences": {},
  "deployedLinkReferences": {}
}