{
  "_format": "hh-sol-artifact-1",
  "contractName": "LiquidityPool",
  "sourceName": "contracts/LiquidityPool.sol",
  "abi": [
    {
      "inputs": [
        {
          "internalType": "address",
          "name": "_usdx",
          "type": "address"
        }
      ],
      "stateMutability": "nonpayable",
      "type": "constructor"
    },
    {
      "anonymous": false,
      "inputs": [
        {
          "indexed": true,
          "internalType": "address",
          "name": "market",
          "type": "address"
        },
        {
          "indexed": false,
          "internalType": "uint256",
          "name": "amount",
          "type": "uint256"
        }
      ],
      "name": "FundsReturned",
      "type": "event"
    },
    {
      "anonymous": false,
      "inputs": [
        {
          "indexed": true,
          "internalType": "address",
          "name": "market",
          "type": "address"
        }
      ],
      "name": "MarketAuthorized",
      "type": "event"
    },
    {
      "anonymous": false,
      "inputs": [
        {
          "indexed": true,
          "internalType": "address",
          "name": "market",
          "type": "address"
        }
      ],
      "name": "MarketDeauthorized",
      "type": "event"
    },
    {
      "anonymous": false,
      "inputs": [
        {
          "indexed": true,
          "internalType": "address",
          "name": "market",
          "type": "address"
        },
        {
          "indexed": false,
          "internalType": "uint256",
          "name": "amount",
          "type": "uint256"
        }
      ],
      "name": "MarketFunded",
      "type": "event"
    },
    {
      "anonymous": false,
      "inputs": [
        {
          "indexed": true,
          "internalType": "address",
          "name": "previousOwner",
          "type": "address"
        },
        {
          "indexed": true,
          "internalType": "address",
          "name": "newOwner",
          "type": "address"
        }
      ],
      "name": "OwnershipTransferred",
      "type": "event"
    },
    {
      "inputs": [
        {
          "internalType": "address",
          "name": "_market",
          "type": "address"
        }
      ],
      "name": "authorizeMarket",
      "outputs": [],
      "stateMutability": "nonpayable",
      "type": "function"
    },
    {
      "inputs": [
        {
          "internalType": "address",
          "name": "",
          "type": "address"
        }
      ],
      "name": "authorizedMarkets",
      "outputs": [
        {
          "internalType": "bool",
          "name": "",
          "type": "bool"
        }
      ],
      "stateMutability": "view",
      "type": "function"
    },
    {
      "inputs": [
        {
          "internalType": "address",
          "name": "_market",
          "type": "address"
        }
      ],
      "name": "deauthorizeMarket",
      "outputs": [],
      "stateMutability": "nonpayable",
      "type": "function"
    },
    {
      "inputs": [
        {
          "internalType": "uint256",
          "name": "_amount",
          "type": "uint256"
        }
      ],
      "name": "emergencyWithdraw",
      "outputs": [],
      "stateMutability": "nonpayable",
      "type": "function"
    },
    {
      "inputs": [
        {
          "internalType": "address",
          "name": "_market",
          "type": "address"
        },
        {
          "internalType": "uint256",
          "name": "_amount",
          "type": "uint256"
        }
      ],
      "name": "fundMarket",
      "outputs": [],
      "stateMutability": "nonpayable",
      "type": "function"
    },
    {
      "inputs": [],
      "name": "getBalance",
      "outputs": [
        {
          "internalType": "uint256",
          "name": "",
          "type": "uint256"
        }
      ],
      "stateMutability": "view",
      "type": "function"
    },
    {
      "inputs": [],
      "name": "marketFactory",
      "outputs": [
        {
          "internalType": "address",
          "name": "",
          "type": "address"
        }
      ],
      "stateMutability": "view",
      "type": "function"
    },
    {
      "inputs": [],
      "name": "owner",
      "outputs": [
        {
          "internalType": "address",
          "name": "",
          "type": "address"
        }
      ],
      "stateMutability": "view",
      "type": "function"
    },
    {
      "inputs": [],
      "name": "renounceOwnership",
      "outputs": [],
      "stateMutability": "nonpayable",
      "type": "function"
    },
    {
      "inputs": [
        {
          "internalType": "uint256",
          "name": "_amount",
          "type": "uint256"
        }
      ],
      "name": "returnFunds",
      "outputs": [],
      "stateMutability": "nonpayable",
      "type": "function"
    },
    {
      "inputs": [
        {
          "internalType": "address",
          "name": "_marketFactory",
          "type": "address"
        }
      ],
      "name": "setMarketFactory",
      "outputs": [],
      "stateMutability": "nonpayable",
      "type": "function"
    },
    {
      "inputs": [
        {
          "internalType": "address",
          "name": "newOwner",
          "type": "address"
        }
      ],
      "name": "transferOwnership",
      "outputs": [],
      "stateMutability": "nonpayable",
      "type": "function"
    },
    {
      "inputs": [],
      "name": "usdx",
      "outputs": [
        {
          "internalType": "contract IERC20",
          "name": "",
          "type": "address"
        }
      ],
      "stateMutability": "view",
      "type": "function"
    }
  ],
  "bytecode": "0x60803461008a57601f610cac38819003918201601f19168301916001600160401b0383118484101761008f5780849260209460405283398101031261008a57516001600160a01b0381169081900361008a5761005a336100a5565b60018055610067336100a5565b600280546001600160a01b031916919091179055604051610bbf90816100ed8239f35b600080fd5b634e487b7160e01b600052604160045260246000fd5b600080546001600160a01b039283166001600160a01b03198216811783559216907f8be0079c531659141344cd1fd0a4f28419497f9722a3daafe3b4186f6b6457e09080a356fe608060408181526004908136101561001657600080fd5b600092833560e01c90816306ae70951461098b5750806312065fe0146108f557806328a6ea53146105d2578063311176d7146105a95780634299b8a21461056c57806345755dd6146103f55780634dcc434a146103b05780635312ea8e14610308578063715018a6146102bd5780638da5cb5b14610291578063f2862e67146101ce578063f2fde38b1461011b5763fa26958c146100b357600080fd5b34610117576020366003190112610117576100cc6109b0565b6100d46109cb565b6001600160a01b03168084526020929092528220805460ff191690557f014dad1a8290ff4fc1990d6ffdfce4ef09f541b4e8e02abce86c42d4c310d0568280a280f35b8280fd5b509034610117576020366003190112610117576101366109b0565b9061013f6109cb565b6001600160a01b0391821692831561017c5750506000548260018060a01b031982161760005516600080516020610b4a833981519152600080a380f35b906020608492519162461bcd60e51b8352820152602660248201527f4f776e61626c653a206e6577206f776e657220697320746865207a65726f206160448201526564647265737360d01b6064820152fd5b5034610117576020366003190112610117576101e86109b0565b83546001600160a01b039190821633148015610284575b156102405716918284526020528220600160ff198254161790557fff192fe3e3e847428def87bbc2d04aa27048f6669caf7380828f868acd86bbfa8280a280f35b825162461bcd60e51b8152602081860152602a6024820152600080516020610b6a83398151915260448201526920617574686f72697a6560b01b6064820152608490fd5b50816003541633146101ff565b8382346102b957816003193601126102b957905490516001600160a01b039091168152602090f35b5080fd5b83346103055780600319360112610305576102d66109cb565b600080546001600160a01b0319811682556001600160a01b0316600080516020610b4a8339815191528280a380f35b80fd5b509034610117576020366003190112610117576020610356916103296109cb565b60018060a01b0380600254169086541686865180968195829463a9059cbb60e01b84528135918401610a74565b03925af19081156103a45761037392508391610376575b50610a8f565b80f35b610397915060203d811161039d575b61038f8183610a23565b810190610a5c565b3861036d565b503d610385565b505051903d90823e3d90fd5b8334610305576020366003190112610305576103ca6109b0565b6103d26109cb565b600380546001600160a01b0319166001600160a01b039290921691909117905580f35b5034610117576020908160031936011261056857823592610414610ad3565b33855280835260ff8286205416156105165760025482516323b872dd60e01b8152338382015230602482015260448101869052908490829060649082908a906001600160a01b03165af190811561050c5786916104ef575b50156104a45750907fd7289cb4bb1d80932416fb1a5e3130055c190f63290d5762ff0389a3163b6e8a91519283523392a26001805580f35b82608492519162461bcd60e51b8352820152602160248201527f546f6b656e207472616e736665722066726f6d206d61726b6574206661696c656044820152601960fa1b6064820152fd5b6105069150843d861161039d5761038f8183610a23565b3861046c565b83513d88823e3d90fd5b82608492519162461bcd60e51b8352820152602860248201527f4f6e6c7920617574686f72697a6564206d61726b6574732063616e2072657475604482015267726e2066756e647360c01b6064820152fd5b8380fd5b5090346101175760203660031901126101175760209260ff918391906001600160a01b036105986109b0565b168252855220541690519015158152f35b8382346102b957816003193601126102b95760025490516001600160a01b039091168152602090f35b508290346102b957806003193601126102b9576105ed6109b0565b906024908135906105fc610ad3565b84546001600160a01b0393908416331480156108e8575b156108a2578385169485875260209488865260ff848920541615610868578461065992879260025416908a8c88519687958694859363a9059cbb60e01b85528401610a74565b03925af190811561085e57906106759188916108415750610a8f565b843b1561083d5781516319c43dbb60e31b815287810184905286818381838a5af19081610812575b506107f9573d156107f4573d6001600160401b0381116107e0578251906106cd601f8201601f1916870183610a23565b815286853d92013e5b81519660608801906001600160401b038211898310176107cc57508252603487527f4661696c656420746f2063616c6c20696e6372656173654d61784578706f7375848801527339329037b7102132ba3a34b733a2b733b4b7329d60611b828801528151848082019263104c13eb60e21b84528201528751806044830152875b8181106107b85750879850918161079a606482868c838199600080516020610b2a8339815191529e9f99010152601f80199101168101036044810184520182610a23565b51906a636f6e736f6c652e6c6f675afa505b51908152a26001805580f35b898101870151838201606401528601610756565b60419150634e487b7160e01b600052526000fd5b50634e487b7160e01b600090815260418852fd5b6106d6565b50600080516020610b2a833981519152939495506107ac565b9096906001600160401b03811161082c578352958861069d565b50634e487b7160e01b815260418852fd5b8580fd5b6108589150863d881161039d5761038f8183610a23565b8961036d565b83513d89823e3d90fd5b835162461bcd60e51b8152808a018790526015818501527413585c9ad95d081b9bdd08185d5d1a1bdc9a5e9959605a1b6044820152606490fd5b602d87916020608494519362461bcd60e51b8552840152820152600080516020610b6a83398151915260448201526c2066756e64206d61726b65747360981b6064820152fd5b5083600354163314610613565b503461011757826003193601126101175760025481516370a0823160e01b81523093810193909352602090839060249082906001600160a01b03165afa91821561098157839261094a575b6020838351908152f35b9091506020813d8211610979575b8161096560209383610a23565b810103126101175760209250519038610940565b3d9150610958565b81513d85823e3d90fd5b8490346102b957816003193601126102b9576003546001600160a01b03168152602090f35b600435906001600160a01b03821682036109c657565b600080fd5b6000546001600160a01b031633036109df57565b606460405162461bcd60e51b815260206004820152602060248201527f4f776e61626c653a2063616c6c6572206973206e6f7420746865206f776e65726044820152fd5b601f909101601f19168101906001600160401b03821190821017610a4657604052565b634e487b7160e01b600052604160045260246000fd5b908160209103126109c6575180151581036109c65790565b6001600160a01b039091168152602081019190915260400190565b15610a9657565b60405162461bcd60e51b8152602060048201526015602482015274151bdad95b881d1c985b9cd9995c8819985a5b1959605a1b6044820152606490fd5b600260015414610ae4576002600155565b60405162461bcd60e51b815260206004820152601f60248201527f5265656e7472616e637947756172643a207265656e7472616e742063616c6c006044820152606490fdfeedaf24f11c26659e1b8b626d6a5e8f72aa1935fa8e9f69fe207d0f7477b135358be0079c531659141344cd1fd0a4f28419497f9722a3daafe3b4186f6b6457e04f6e6c79206f776e6572206f72206d61726b657420666163746f72792063616ea2646970667358221220abe87311612492e12ff4255d4ea7ba5617038e24d2fa6daf4ac3fa4f2bd849e064736f6c63430008130033",
  "linkReferences": {},
  "deployedLinkReferences": {}
}