{
  "_format": "hh-sol-artifact-1",
  "contractName": "LiquidityPool",
  "sourceName": "contracts/LiquidityPool.sol",
  "abi": [
    {
      "inputs": [
        {
          "internalType": "address",
          "name": "_usdx",
          "type": "address"
        }
      ],
      "stateMutability": "nonpayable",
      "type": "constructor"
    },
    {
      "anonymous": false,
      "inputs": [
        {
          "indexed": true,
          "internalType": "address",
          "name": "market",
          "type": "address"
        },
        {
          "indexed": false,
          "internalType": "uint256",
          "name": "amount",
          "type": "uint256"
        }
      ],
      "name": "FundsReturned",
      "type": "event"
    },
    {
      "anonymous": false,
      "inputs": [
        {
          "indexed": true,
          "internalType": "address",
          "name": "market",
          "type": "address"
        }
      ],
      "name": "MarketAuthorized",
      "type": "event"
    },
    {
      "anonymous": false,
      "inputs": [
        {
          "indexed": true,
          "internalType": "address",
          "name": "market",
          "type": "address"
        }
      ],
      "name": "MarketDeauthorized",
      "type": "event"
    },
    {
      "anonymous": false,
      "inputs": [
        {
          "indexed": true,
          "internalType": "address",
          "name": "market",
          "type": "address"
        },
        {
          "indexed": false,
          "internalType": "uint256",
          "name": "amount",
          "type": "uint256"
        }
      ],
      "name": "MarketFunded",
      "type": "event"
    },
    {
      "anonymous": false,
      "inputs": [
        {
          "indexed": true,
          "internalType": "address",
          "name": "previousOwner",
          "type": "address"
        },
        {
          "indexed": true,
          "internalType": "address",
          "name": "newOwner",
          "type": "address"
        }
      ],
      "name": "OwnershipTransferred",
      "type": "event"
    },
    {
      "inputs": [
        {
          "internalType": "address",
          "name": "_market",
          "type": "address"
        }
      ],
      "name": "authorizeMarket",
      "outputs": [],
      "stateMutability": "nonpayable",
      "type": "function"
    },
    {
      "inputs": [
        {
          "internalType": "address",
          "name": "",
          "type": "address"
        }
      ],
      "name": "authorizedMarkets",
      "outputs": [
        {
          "internalType": "bool",
          "name": "",
          "type": "bool"
        }
      ],
      "stateMutability": "view",
      "type": "function"
    },
    {
      "inputs": [
        {
          "internalType": "address",
          "name": "_market",
          "type": "address"
        }
      ],
      "name": "deauthorizeMarket",
      "outputs": [],
      "stateMutability": "nonpayable",
      "type": "function"
    },
    {
      "inputs": [
        {
          "internalType": "uint256",
          "name": "_amount",
          "type": "uint256"
        }
      ],
      "name": "emergencyWithdraw",
      "outputs": [],
      "stateMutability": "nonpayable",
      "type": "function"
    },
    {
      "inputs": [
        {
          "internalType": "address",
          "name": "_market",
          "type": "address"
        },
        {
          "internalType": "uint256",
          "name": "_amount",
          "type": "uint256"
        }
      ],
      "name": "fundMarket",
      "outputs": [],
      "stateMutability": "nonpayable",
      "type": "function"
    },
    {
      "inputs": [],
      "name": "getBalance",
      "outputs": [
        {
          "internalType": "uint256",
          "name": "",
          "type": "uint256"
        }
      ],
      "stateMutability": "view",
      "type": "function"
    },
    {
      "inputs": [],
      "name": "marketFactory",
      "outputs": [
        {
          "internalType": "address",
          "name": "",
          "type": "address"
        }
      ],
      "stateMutability": "view",
      "type": "function"
    },
    {
      "inputs": [],
      "name": "owner",
      "outputs": [
        {
          "internalType": "address",
          "name": "",
          "type": "address"
        }
      ],
      "stateMutability": "view",
      "type": "function"
    },
    {
      "inputs": [
        {
          "internalType": "address",
          "name": "_bettingEngineAddress",
          "type": "address"
        },
        {
          "internalType": "uint256",
          "name": "_amount",
          "type": "uint256"
        }
      ],
      "name": "reduceMarketFunding",
      "outputs": [],
      "stateMutability": "nonpayable",
      "type": "function"
    },
    {
      "inputs": [],
      "name": "renounceOwnership",
      "outputs": [],
      "stateMutability": "nonpayable",
      "type": "function"
    },
    {
      "inputs": [
        {
          "internalType": "uint256",
          "name": "_amount",
          "type": "uint256"
        }
      ],
      "name": "returnFunds",
      "outputs": [],
      "stateMutability": "nonpayable",
      "type": "function"
    },
    {
      "inputs": [
        {
          "internalType": "address",
          "name": "_marketFactory",
          "type": "address"
        }
      ],
      "name": "setMarketFactory",
      "outputs": [],
      "stateMutability": "nonpayable",
      "type": "function"
    },
    {
      "inputs": [
        {
          "internalType": "address",
          "name": "newOwner",
          "type": "address"
        }
      ],
      "name": "transferOwnership",
      "outputs": [],
      "stateMutability": "nonpayable",
      "type": "function"
    },
    {
      "inputs": [],
      "name": "usdx",
      "outputs": [
        {
          "internalType": "contract IERC20",
          "name": "",
          "type": "address"
        }
      ],
      "stateMutability": "view",
      "type": "function"
    }
  ],
  "bytecode": "0x60803461008a57601f610e6b38819003918201601f19168301916001600160401b0383118484101761008f5780849260209460405283398101031261008a57516001600160a01b0381169081900361008a5761005a336100a5565b60018055610067336100a5565b600280546001600160a01b031916919091179055604051610d7e90816100ed8239f35b600080fd5b634e487b7160e01b600052604160045260246000fd5b600080546001600160a01b039283166001600160a01b03198216811783559216907f8be0079c531659141344cd1fd0a4f28419497f9722a3daafe3b4186f6b6457e09080a356fe608060408181526004908136101561001657600080fd5b600092833560e01c90816306ae709514610a5c5750806312065fe0146109c657806328a6ea5314610796578063311176d71461076d5780634299b8a21461073057806345755dd6146105b95780634dcc434a146105745780635312ea8e146104cc5780635941dcac14610313578063715018a6146102c85780638da5cb5b1461029c578063f2862e67146101d9578063f2fde38b146101265763fa26958c146100be57600080fd5b34610122576020366003190112610122576100d7610a81565b6100df610a9c565b6001600160a01b03168084526020929092528220805460ff191690557f014dad1a8290ff4fc1990d6ffdfce4ef09f541b4e8e02abce86c42d4c310d0568280a280f35b8280fd5b50903461012257602036600319011261012257610141610a81565b9061014a610a9c565b6001600160a01b039182169283156101875750506000548260018060a01b031982161760005516600080516020610d09833981519152600080a380f35b906020608492519162461bcd60e51b8352820152602660248201527f4f776e61626c653a206e6577206f776e657220697320746865207a65726f206160448201526564647265737360d01b6064820152fd5b5034610122576020366003190112610122576101f3610a81565b83546001600160a01b03919082163314801561028f575b1561024b5716918284526020528220600160ff198254161790557fff192fe3e3e847428def87bbc2d04aa27048f6669caf7380828f868acd86bbfa8280a280f35b825162461bcd60e51b8152602081860152602a6024820152600080516020610d2983398151915260448201526920617574686f72697a6560b01b6064820152608490fd5b508160035416331461020a565b8382346102c457816003193601126102c457905490516001600160a01b039091168152602090f35b5080fd5b83346103105780600319360112610310576102e1610a9c565b600080546001600160a01b0319811682556001600160a01b0316600080516020610d098339815191528280a380f35b80fd5b50913461031057826003193601126103105761032d610a81565b610335610a9c565b61033d610c11565b6001600160a01b031680825260208390528382205460ff161561046c57803b156102c457818080926024875180958193632cb9b73b60e11b835283358a8401525af19182610458575b50506104515750602060849261039a610bd2565b506103f381516103a981610b1d565b603481527f4661696c656420746f2063616c6c2064656372656173654d61784578706f7375848201527339329037b7102132ba3a34b733a2b733b4b7329d60611b83820152610c67565b5162461bcd60e51b815291820152603860248201527f4c6971756964697479506f6f6c3a204661696c656420746f2064656372656173604482015277652042657474696e67456e67696e65206578706f7375726560401b6064820152fd5b6001805580f35b61046190610af4565b6102c4578138610386565b835162461bcd60e51b8152602081850152603460248201527f4c6971756964697479506f6f6c3a204d61726b6574202842657474696e67456e60448201527319da5b994a481b9bdd08185d5d1a1bdc9a5e995960621b6064820152608490fd5b50903461012257602036600319011261012257602061051a916104ed610a9c565b60018060a01b0380600254169086541686865180968195829463a9059cbb60e01b84528135918401610b73565b03925af1908115610568576105379250839161053a575b50610b8e565b80f35b61055b915060203d8111610561575b6105538183610b38565b810190610b5b565b38610531565b503d610549565b505051903d90823e3d90fd5b83346103105760203660031901126103105761058e610a81565b610596610a9c565b600380546001600160a01b0319166001600160a01b039290921691909117905580f35b5034610122576020908160031936011261072c578235926105d8610c11565b33855280835260ff8286205416156106da5760025482516323b872dd60e01b8152338382015230602482015260448101869052908490829060649082908a906001600160a01b03165af19081156106d05786916106b3575b50156106685750907fd7289cb4bb1d80932416fb1a5e3130055c190f63290d5762ff0389a3163b6e8a91519283523392a26001805580f35b82608492519162461bcd60e51b8352820152602160248201527f546f6b656e207472616e736665722066726f6d206d61726b6574206661696c656044820152601960fa1b6064820152fd5b6106ca9150843d8611610561576105538183610b38565b38610630565b83513d88823e3d90fd5b82608492519162461bcd60e51b8352820152602860248201527f4f6e6c7920617574686f72697a6564206d61726b6574732063616e2072657475604482015267726e2066756e647360c01b6064820152fd5b8380fd5b5090346101225760203660031901126101225760209260ff918391906001600160a01b0361075c610a81565b168252855220541690519015158152f35b8382346102c457816003193601126102c45760025490516001600160a01b039091168152602090f35b508290346102c457806003193601126102c4576107b1610a81565b906024356107bd610c11565b83546001600160a01b0392908316331480156109b9575b15610973578284169384865260209387855260ff838820541615610938578361081a9286926002541690898b87519687958694859363a9059cbb60e01b85528401610b73565b03925af190811561092e57906108369187916109115750610b8e565b833b1561090d5780516319c43dbb60e31b8152958601829052848660248183885af195866108ec575b50600080516020610ce9833981519152939495156000146108e757610882610bd2565b506108db815161089181610b1d565b603481527f4661696c656420746f2063616c6c20696e6372656173654d61784578706f7375858201527339329037b7102132ba3a34b733a2b733b4b7329d60611b83820152610c67565b51908152a26001805580f35b6108db565b94610906600080516020610ce98339815191529596610af4565b949361085f565b8480fd5b6109289150853d8711610561576105538183610b38565b88610531565b82513d88823e3d90fd5b825162461bcd60e51b8152808901869052601560248201527413585c9ad95d081b9bdd08185d5d1a1bdc9a5e9959605a1b6044820152606490fd5b5162461bcd60e51b8152602081870152602d6024820152600080516020610d2983398151915260448201526c2066756e64206d61726b65747360981b6064820152608490fd5b50826003541633146107d4565b503461012257826003193601126101225760025481516370a0823160e01b81523093810193909352602090839060249082906001600160a01b03165afa918215610a52578392610a1b575b6020838351908152f35b9091506020813d8211610a4a575b81610a3660209383610b38565b810103126101225760209250519038610a11565b3d9150610a29565b81513d85823e3d90fd5b8490346102c457816003193601126102c4576003546001600160a01b03168152602090f35b600435906001600160a01b0382168203610a9757565b600080fd5b6000546001600160a01b03163303610ab057565b606460405162461bcd60e51b815260206004820152602060248201527f4f776e61626c653a2063616c6c6572206973206e6f7420746865206f776e65726044820152fd5b6001600160401b038111610b0757604052565b634e487b7160e01b600052604160045260246000fd5b606081019081106001600160401b03821117610b0757604052565b601f909101601f19168101906001600160401b03821190821017610b0757604052565b90816020910312610a9757518015158103610a975790565b6001600160a01b039091168152602081019190915260400190565b15610b9557565b60405162461bcd60e51b8152602060048201526015602482015274151bdad95b881d1c985b9cd9995c8819985a5b1959605a1b6044820152606490fd5b3d15610c0c573d906001600160401b038211610b075760405191610c00601f8201601f191660200184610b38565b82523d6000602084013e565b606090565b600260015414610c22576002600155565b60405162461bcd60e51b815260206004820152601f60248201527f5265656e7472616e637947756172643a207265656e7472616e742063616c6c006044820152606490fd5b6040516020918282019263104c13eb60e21b845280602484015281519182604485015260005b838110610cd4575050509181610cc16064828660008381998299010152601f80199101168101036044810184520182610b38565b51906a636f6e736f6c652e6c6f675afa50565b818101830151858201606401528201610c8d56feedaf24f11c26659e1b8b626d6a5e8f72aa1935fa8e9f69fe207d0f7477b135358be0079c531659141344cd1fd0a4f28419497f9722a3daafe3b4186f6b6457e04f6e6c79206f776e6572206f72206d61726b657420666163746f72792063616ea26469706673582212203a4f9f3f77905002746410b8a28e25da005b60ff3f3b800d19ee365f899ff59464736f6c63430008130033",
  "linkReferences": {},
  "deployedLinkReferences": {}
}