{
  "_format": "hh-sol-artifact-1",
  "contractName": "LiquidityPool",
  "sourceName": "contracts/LiquidityPool.sol",
  "abi": [
    {
      "inputs": [
        {
          "internalType": "address",
          "name": "_usdx",
          "type": "address"
        }
      ],
      "stateMutability": "nonpayable",
      "type": "constructor"
    },
    {
      "anonymous": false,
      "inputs": [
        {
          "indexed": true,
          "internalType": "address",
          "name": "market",
          "type": "address"
        },
        {
          "indexed": false,
          "internalType": "uint256",
          "name": "amount",
          "type": "uint256"
        }
      ],
      "name": "FundsReturned",
      "type": "event"
    },
    {
      "anonymous": false,
      "inputs": [
        {
          "indexed": true,
          "internalType": "address",
          "name": "market",
          "type": "address"
        }
      ],
      "name": "MarketAuthorized",
      "type": "event"
    },
    {
      "anonymous": false,
      "inputs": [
        {
          "indexed": true,
          "internalType": "address",
          "name": "market",
          "type": "address"
        }
      ],
      "name": "MarketDeauthorized",
      "type": "event"
    },
    {
      "anonymous": false,
      "inputs": [
        {
          "indexed": true,
          "internalType": "address",
          "name": "market",
          "type": "address"
        },
        {
          "indexed": false,
          "internalType": "uint256",
          "name": "amount",
          "type": "uint256"
        }
      ],
      "name": "MarketFunded",
      "type": "event"
    },
    {
      "anonymous": false,
      "inputs": [
        {
          "indexed": true,
          "internalType": "address",
          "name": "previousOwner",
          "type": "address"
        },
        {
          "indexed": true,
          "internalType": "address",
          "name": "newOwner",
          "type": "address"
        }
      ],
      "name": "OwnershipTransferred",
      "type": "event"
    },
    {
      "inputs": [
        {
          "internalType": "address",
          "name": "_market",
          "type": "address"
        }
      ],
      "name": "authorizeMarket",
      "outputs": [],
      "stateMutability": "nonpayable",
      "type": "function"
    },
    {
      "inputs": [
        {
          "internalType": "address",
          "name": "",
          "type": "address"
        }
      ],
      "name": "authorizedMarkets",
      "outputs": [
        {
          "internalType": "bool",
          "name": "",
          "type": "bool"
        }
      ],
      "stateMutability": "view",
      "type": "function"
    },
    {
      "inputs": [
        {
          "internalType": "address",
          "name": "_market",
          "type": "address"
        }
      ],
      "name": "deauthorizeMarket",
      "outputs": [],
      "stateMutability": "nonpayable",
      "type": "function"
    },
    {
      "inputs": [
        {
          "internalType": "uint256",
          "name": "_amount",
          "type": "uint256"
        }
      ],
      "name": "emergencyWithdraw",
      "outputs": [],
      "stateMutability": "nonpayable",
      "type": "function"
    },
    {
      "inputs": [
        {
          "internalType": "address",
          "name": "_market",
          "type": "address"
        },
        {
          "internalType": "uint256",
          "name": "_amount",
          "type": "uint256"
        }
      ],
      "name": "fundMarket",
      "outputs": [],
      "stateMutability": "nonpayable",
      "type": "function"
    },
    {
      "inputs": [],
      "name": "getBalance",
      "outputs": [
        {
          "internalType": "uint256",
          "name": "",
          "type": "uint256"
        }
      ],
      "stateMutability": "view",
      "type": "function"
    },
    {
      "inputs": [],
      "name": "marketFactory",
      "outputs": [
        {
          "internalType": "address",
          "name": "",
          "type": "address"
        }
      ],
      "stateMutability": "view",
      "type": "function"
    },
    {
      "inputs": [],
      "name": "owner",
      "outputs": [
        {
          "internalType": "address",
          "name": "",
          "type": "address"
        }
      ],
      "stateMutability": "view",
      "type": "function"
    },
    {
      "inputs": [],
      "name": "renounceOwnership",
      "outputs": [],
      "stateMutability": "nonpayable",
      "type": "function"
    },
    {
      "inputs": [
        {
          "internalType": "uint256",
          "name": "_amount",
          "type": "uint256"
        }
      ],
      "name": "returnFunds",
      "outputs": [],
      "stateMutability": "nonpayable",
      "type": "function"
    },
    {
      "inputs": [
        {
          "internalType": "address",
          "name": "_marketFactory",
          "type": "address"
        }
      ],
      "name": "setMarketFactory",
      "outputs": [],
      "stateMutability": "nonpayable",
      "type": "function"
    },
    {
      "inputs": [
        {
          "internalType": "address",
          "name": "newOwner",
          "type": "address"
        }
      ],
      "name": "transferOwnership",
      "outputs": [],
      "stateMutability": "nonpayable",
      "type": "function"
    },
    {
      "inputs": [],
      "name": "usdx",
      "outputs": [
        {
          "internalType": "contract IERC20",
          "name": "",
          "type": "address"
        }
      ],
      "stateMutability": "view",
      "type": "function"
    }
  ],
  "bytecode": "0x60803461008a57601f610ae538819003918201601f19168301916001600160401b0383118484101761008f5780849260209460405283398101031261008a57516001600160a01b0381169081900361008a5761005a336100a5565b60018055610067336100a5565b600280546001600160a01b0319169190911790556040516109f890816100ed8239f35b600080fd5b634e487b7160e01b600052604160045260246000fd5b600080546001600160a01b039283166001600160a01b03198216811783559216907f8be0079c531659141344cd1fd0a4f28419497f9722a3daafe3b4186f6b6457e09080a356fe608060408181526004908136101561001657600080fd5b600092833560e01c90816306ae7095146107e45750806312065fe01461074e57806328a6ea53146105d0578063311176d7146105a75780634299b8a21461056a57806345755dd6146103f35780634dcc434a146103ae5780635312ea8e14610306578063715018a6146102bb5780638da5cb5b1461028f578063f2862e67146101cc578063f2fde38b1461011b5763fa26958c146100b357600080fd5b34610117576020366003190112610117576100cc610809565b6100d4610824565b6001600160a01b03168084526020929092528220805460ff191690557f014dad1a8290ff4fc1990d6ffdfce4ef09f541b4e8e02abce86c42d4c310d0568280a280f35b8280fd5b50903461011757602036600319011261011757610136610809565b9061013f610824565b6001600160a01b0391821692831561017a57505082546001600160a01b0319811683178455166000805160206109838339815191528380a380f35b906020608492519162461bcd60e51b8352820152602660248201527f4f776e61626c653a206e6577206f776e657220697320746865207a65726f206160448201526564647265737360d01b6064820152fd5b5034610117576020366003190112610117576101e6610809565b83546001600160a01b039190821633148015610282575b1561023e5716918284526020528220600160ff198254161790557fff192fe3e3e847428def87bbc2d04aa27048f6669caf7380828f868acd86bbfa8280a280f35b825162461bcd60e51b8152602081860152602a60248201526000805160206109a383398151915260448201526920617574686f72697a6560b01b6064820152608490fd5b50816003541633146101fd565b8382346102b757816003193601126102b757905490516001600160a01b039091168152602090f35b5080fd5b83346103035780600319360112610303576102d4610824565b80546001600160a01b03198116825581906001600160a01b03166000805160206109838339815191528280a380f35b80fd5b50903461011757602036600319011261011757602061035491610327610824565b60018060a01b0380600254169086541686865180968195829463a9059cbb60e01b845281359184016108cd565b03925af19081156103a25761037192508391610374575b506108e8565b80f35b610395915060203d811161039b575b61038d818361087c565b8101906108b5565b3861036b565b503d610383565b505051903d90823e3d90fd5b8334610303576020366003190112610303576103c8610809565b6103d0610824565b600380546001600160a01b0319166001600160a01b039290921691909117905580f35b503461011757602090816003193601126105665782359261041261092c565b33855280835260ff8286205416156105145760025482516323b872dd60e01b8152338382015230602482015260448101869052908490829060649082908a906001600160a01b03165af190811561050a5786916104ed575b50156104a25750907fd7289cb4bb1d80932416fb1a5e3130055c190f63290d5762ff0389a3163b6e8a91519283523392a26001805580f35b82608492519162461bcd60e51b8352820152602160248201527f546f6b656e207472616e736665722066726f6d206d61726b6574206661696c656044820152601960fa1b6064820152fd5b6105049150843d861161039b5761038d818361087c565b3861046a565b83513d88823e3d90fd5b82608492519162461bcd60e51b8352820152602860248201527f4f6e6c7920617574686f72697a6564206d61726b6574732063616e2072657475604482015267726e2066756e647360c01b6064820152fd5b8380fd5b5090346101175760203660031901126101175760209260ff918391906001600160a01b03610596610809565b168252855220541690519015158152f35b8382346102b757816003193601126102b75760025490516001600160a01b039091168152602090f35b5090346101175781600319360112610117576105ea610809565b906024356105f661092c565b84546001600160a01b039290831633148015610741575b156106fa578284169384875260209382855260ff8789205416156106bf5761065392859289869360025416928a519687958694859363a9059cbb60e01b855284016108cd565b03925af19081156106b5577fedaf24f11c26659e1b8b626d6a5e8f72aa1935fa8e9f69fe207d0f7477b1353594959161069291889161069e57506108e8565b51908152a26001805580f35b6103959150853d871161039b5761038d818361087c565b85513d88823e3d90fd5b865162461bcd60e51b8152808401869052601560248201527413585c9ad95d081b9bdd08185d5d1a1bdc9a5e9959605a1b6044820152606490fd5b608490602086519162461bcd60e51b8352820152602d60248201526000805160206109a383398151915260448201526c2066756e64206d61726b65747360981b6064820152fd5b508260035416331461060d565b503461011757826003193601126101175760025481516370a0823160e01b81523093810193909352602090839060249082906001600160a01b03165afa9182156107da5783926107a3575b6020838351908152f35b9091506020813d82116107d2575b816107be6020938361087c565b810103126101175760209250519038610799565b3d91506107b1565b81513d85823e3d90fd5b8490346102b757816003193601126102b7576003546001600160a01b03168152602090f35b600435906001600160a01b038216820361081f57565b600080fd5b6000546001600160a01b0316330361083857565b606460405162461bcd60e51b815260206004820152602060248201527f4f776e61626c653a2063616c6c6572206973206e6f7420746865206f776e65726044820152fd5b601f909101601f19168101906001600160401b0382119082101761089f57604052565b634e487b7160e01b600052604160045260246000fd5b9081602091031261081f5751801515810361081f5790565b6001600160a01b039091168152602081019190915260400190565b156108ef57565b60405162461bcd60e51b8152602060048201526015602482015274151bdad95b881d1c985b9cd9995c8819985a5b1959605a1b6044820152606490fd5b60026001541461093d576002600155565b60405162461bcd60e51b815260206004820152601f60248201527f5265656e7472616e637947756172643a207265656e7472616e742063616c6c006044820152606490fdfe8be0079c531659141344cd1fd0a4f28419497f9722a3daafe3b4186f6b6457e04f6e6c79206f776e6572206f72206d61726b657420666163746f72792063616ea26469706673582212206cf45c11f497da3a74cf2195e59b4b23b284158c4966085e3fda37025ce0d00264736f6c63430008130033",
  "linkReferences": {},
  "deployedLinkReferences": {}
}